:020000040800F2
:10000000585500205D02000851360008DF31000815
:1000100075350008E507000865410008000000008C
:100020000000000000000000000000009D0100082A
:10003000CF0A000800000000F9010008DB370008C3
:1000400077020008770200087702000877020008AC
:10005000770200087702000877020008770200089C
:10006000770200087702000877020008770200088C
:100070009509000877020008770200087702000857
:10008000A509000877020008770200087702000837
:10009000E9070008770200087702000877020008E5
:1000A000770200087702000877020008770200084C
:1000B000770200087702000877020008770200083C
:1000C000770200087702000877020008770200082C
:1000D00077020008770200087540000855410008C3
:1000E000770200087702000877020008770200080C
:1000F00077020008BD380008770200087702000880
:1001000077020008770200087702000877020008EB
:1001100077020008770200087702000877020008DB
:1001200077020008B5090008770200087702000886
:1001300077020008770200087702000877020008BB
:10014000F907000877020008770200087702000824
:10015000770200087702000877020008770200089B
:10016000770200087702000877020008770200088B
:1001700077020008770200087702000800000000FC
:100180007702000877020008DFF80CD000F018FBB7
:10019000004800474D4E0008585500202C4B196868
:1001A0000868B0E8F04F80F30988BFF36F8F4FF015
:1001B000000080F3118870470000000008480068C4
:1001C000006880F308884FF0000080F3148862B65E
:1001D00061B6BFF34F8FBFF36F8F00DF00BF00BF6B
:1001E00008ED00E0DFF80C00016841F470010160E7
:1001F000704700BF88ED00E0EFF30980BFF36F8F19
:10020000134B1A681EF0100F08BF20ED108A20E96A
:10021000F04F106009B44FF0500080F31188BFF325
:100220004F8FBFF36F8F05F035FF4FF0000080F365
:10023000118809BC19680868B0E8F04F1EF0100F6B
:1002400008BFB0EC108A80F30988BFF36F8F704746
:100250004C000020EFF305807047000006488047FF
:1002600006480047FEE7FEE7FEE7FEE7FEE7FEE79B
:10027000FEE7FEE7FEE7FEE7A9380008890100086F
:100280009FED1A1AF5EE000A40EE010ABDEEE00AF3
:10029000F5EEC00A10EE100AF1EE10FA38BF401E5B
:1002A00000EE100A1349F7EE001AB8EEC00A30EE5D
:1002B000C00ADFED0F0A20EE200AFCEEC00A10EEA5
:1002C000900AC0F3080000EE900A01EB8000F8EEFF
:1002D000600A90ED011A70EE600A90ED000A71EE6E
:1002E000E01A21EE800A00EE810A704783F9223E6F
:1002F00000000044486F0008DFED190AB5EEC00A9F
:1003000060EE200ABDEEE01A11EE100AF1EE10FACE
:1003100038BF401E00EE100A1349F7EE001AB8EE7F
:10032000C00A30EEC00ADFED0F0A60EE200ABCEE14
:10033000E00A10EE100AC0F3080000EE100A01EB0C
:100340008000B8EE400A90ED011A70EEC00A90ED00
:10035000000A71EEE01A21EE800A00EE810A704771
:1003600083F9223E00000044486F00082DE9F05F49
:100370000546002092469B46884606468146402414
:100380001BE0284641464746224600F074F9534692
:100390005A46C01A914110D311461846224600F021
:1003A0005BF92D1A67EB01084F4622460120002118
:1003B00000F052F917EB00094E41201EA4F1010490
:1003C000DFDC484631462A464346BDE8F09F40EA16
:1003D00001039B0703D009E008C9121F08C0042AC3
:1003E000FAD203E011F8013B00F8013B521EF9D2AA
:1003F0007047D2B201E000F8012B491EFBD27047D2
:100400000022F6E710B513460A4604461946FFF7E0
:10041000F0FF204610BD2DE9FE4F81EA030404F0F1
:10042000004421F0004100944FF0000B23F0004302
:1004300050EA01045ED052EA03045BD0C3F30A54CD
:10044000C1F30A552C44A4F2F3340194A0FB0254E6
:10045000C1F3130141F48011C3F3130343F4801378
:1004600001FB024400FB034E840A970A44EA8154CC
:1004700047EA8357A4FB076802958D0A05FB0785A9
:100480004FEA932C04FB0C542705029D4FEA0658B3
:1004900047EA1637B5EB08056EEB070C870E920E90
:1004A00047EA811742EA8312A7FB0201B6EB0B0170
:1004B00064EB00042B0D43EA0C335E1844EB1C5034
:1004C000DA465146E7FB0201C5F313044FEA0B334A
:1004D00043EA14534FEA0432019C43EA0603A4F1B1
:1004E0000C040294009CCDE900B400F01AF903B0AA
:1004F000BDE8F08F00200146F9E72DE9F04D81EAD3
:10050000030404F0004B21F0004514464FF0000AAC
:1005100023F0004150EA050220D054EA01021DD028
:10052000C5F30A570246C5F31303C1F31300C1F321
:100530000A5640F4801543F48013A7EB0608101BFD
:10054000D64608F2FD3873EB050002D308F1010826
:1005500001E092185B41B8F1000F03DA0020014678
:10056000BDE8F08D00204FF48011064684460EE071
:10057000171B73EB050705D3121B63EB050306433B
:100580004CEA010C49084FEA300092185B4150EAEE
:100590000107EDD152EA030012D082EA040083EA97
:1005A0000501084305D0101BAB4106D201220023F0
:1005B00006E000224FF0004302E06FF0010253100A
:1005C0001AEB06004CEB085110EB0A0041EB0B0153
:1005D000BDE8F04D00F096B80EB5C10F80EAE070AE
:1005E0000844CA07002140F233438DE80E000A4652
:1005F0000B4600F096F803B000BD00F0004230F06A
:1006000000400AD0C10D01F56071C0F3160042EA46
:100610000151C2084007114370470020014670474E
:1006200001F0004330B421F0004150EA010206D04D
:100630000A0DA2F56072C1F31301002A02DC30BC7E
:1006400000207047440F44EAC104C100E01830BCE8
:1006500000EBC25000F01FB8202A04DB203A00FA59
:1006600002F1002070479140C2F1200320FA03F309
:10067000194390407047202A04DB203A21FA02F007
:100680000021704721FA02F3D040C2F120029140CC
:100690000843194670470029A8BF7047401C49000D
:1006A00008BF20F00100704710B4B0FA80FC00FAD7
:1006B0000CF050EA010404BF10BC704749B1CCF102
:1006C000200421FA04F411FA0CF118BF012121438E
:1006D0000843A3EB0C01CB1D4FEA00614FEA102049
:1006E00042BF002010BC704700EBC35010440029EB
:1006F000A4BF10BC7047401C490008BF20F0010097
:1007000010BC704710B5141E73F1000408DA401CC9
:1007100041F1000192185B411A4301D120F0010020
:1007200010BD2DE9F04D92469B4611B1B1FA81F210
:1007300002E0B0FA80F220329046FFF78DFF0446C7
:100740000F4640EA0A0041EA0B0153465A46084365
:1007500013D0114653EA010019D0C8F140025046A7
:10076000FFF789FF05460E46504659464246FFF7B9
:1007700073FF084305D0012004E020463946BDE858
:10078000F08D0020054346EAE0762C4337430A9873
:100790006305E40AA0EB08000022FD0A44EA47547E
:1007A0000A3002D500200146E9E701051019694128
:1007B000DDE9084500196941BDE8F04DA2E70000F8
:1007C000064C074D06E0E06840F0010394E807009E
:1007D00098471034AC42F6D3FFF7DAFC6C77000888
:1007E0008C77000800BFFEE710B5024800F0E0FC7F
:1007F00010BD00002401002010B5024800F0D8FC14
:1008000010BD00004C010020F8B507460C46154607
:100810001E464FF400700D49086000208860C860D3
:1008200008200861380A0A4908704F70200A887049
:10083000CC70280A08714D71300A8871CE716B46F0
:100840000A460249034800F0B8FAF8BDEC0300205C
:10085000180000202401002070B505460E462868C7
:10086000B0F5017F30D010DC40F20122A0EB020194
:10087000904226D004DC64283AD096285DD13FE02F
:1008800001291FD0022958D11DE0A0F2052030B166
:1008900001280CD002280FD0FB284ED141E0314670
:1008A000274804F05FFA002000F012F946E03146D4
:1008B000244804F057FA41E03146234804F052FA44
:1008C0003CE000BF00BF00BF2878401E1F490870F1
:1008D000097801EB41011E4A02EBC100314604F0E8
:1008E00041FA1A490978491CC8B200F0F1F825E02C
:1008F0003146134804F036FA002000F0E9F81DE014
:10090000002404E0305D13490855601CC4B2072C74
:10091000F8DB1049104800F0BFF9052000F0D8F8C6
:100920000CE0082006E0A0F10801715C094A1154AE
:10093000411CC8B20F28F6DB00E000BF00BF70BD4D
:100940001C040020340400204C0400202C00002053
:1009500064040020C40400205805002010B503F0F2
:1009600031FC044800F0DBFE0221024800F010FADE
:1009700010BD00004C01002010B503F03FFC0448FE
:1009800000F0CDFE0221024800F002FA10BD000086
:100990002401002010B5024800F062FF10BD0000E5
:1009A000E402002010B5024800F05AFF10BD00001C
:1009B0008402002010B5024800F052FF10BD000074
:1009C000440300200146087810381823B0FBF3F2E6
:1009D0000848805CC865032A05D908686FF30900D8
:1009E000001D886503E008686FF309008865886D5D
:1009F00070470000086F0008014600208A6A8B6972
:100A0000CBB932B1012A0DD0022A03D0032A10D16A
:100A10000EE000BFCB6A03F08073B3F1807F00D19A
:100A2000012007E0CB6AB3F1C07F00D1012001E0D3
:100A300000E000BF34E08B69B3F5005F1AD132B13A
:100A4000012A07D0022A03D0032A11D10AE000BFED
:100A500001200EE0CB6A03F08073B3F1807F00D1F8
:100A6000012006E0CB6AB3F1C07F00D1012000E095
:100A700000BF15E032B1012A05D0022A04D0032AB2
:100A80000CD103E000BF00BF012008E0CB6A03F0F7
:100A90008073B3F1807F00D1012000E000BF00BF70
:100AA000704730B50468246824F4802405682C60FD
:100AB000046863608468402C04D10468A260046800
:100AC000E16003E00468A1600468E26030BD704743
:100AD00010B5044605F09CFF04EB0411014A1144D3
:100AE000086010BDEC50002070B504460D4605F0BE
:100AF0008FFF04EB0411044A1144086004EB041056
:100B000011460844856070BDEC500020014601EBA1
:100B10000110044A1044007B012800D170470020D6
:100B2000FCE70000EC5000204FF47A710020FFF742
:100B3000DBFF4FF47A710120FFF7D6FF4FF47A7193
:100B40000220FFF7D1FF4FF47A710320FFF7CCFFAB
:100B50004FF47A710420FFF7C7FF4FF47A71052034
:100B6000FFF7C2FF0A2005F0B5F900BF002455E0E9
:100B700005F04EFF04EB04112B4A1144096888422A
:100B800007D205F045FF401E04EB0411264A11442C
:100B9000086005F03DFF04EB0411234A1144096885
:100BA000401A04EB04111144486004EB0410114690
:100BB0000844406804EB041111448968884220D934
:100BC00004EB041011460844D0F80D00401C04EB5F
:100BD00004111144C1F80D0004EB0410114608443F
:100BE000D0F80D00B0F5FA7F16D9002004EB0411FF
:100BF0001144C1F80D00012004EB041111440873E5
:100C00000AE0002004EB0411074A1144C1F80D006A
:100C100004EB041111440873601CC4B2062CA7DB5A
:100C2000022005F057F9A1E7EC50002072B600BF92
:100C3000FEE7000010B5B0EE000A164B83ED000A87
:100C40001B789BB990ED000A124B83ED000A1B78CC
:100C50008B54104B5C78531CCC540E4B9C78931CDB
:100C6000CC540C4BDC78D31CCC5412E090ED000A31
:100C7000084B83ED000ADB788B54064B9C78531CA1
:100C8000CC54044B5C78931CCC54024B1C78D31C82
:100C9000CC5410BDD00000200A784B7842EA0322E1
:100CA000C2F30A0202804A78D2108B7842EA4312D9
:100CB000C2F30A0242808A789211CB7842EA830218
:100CC0000B7942EA8322C2F30A0282800A79521027
:100CD0004B7942EAC312C2F30A02C2804A79C2F3D4
:100CE000011282724A7912119308C372827A012A20
:100CF00002D1264B1A600AE0827A032A02D1234BE2
:100D00001A6004E0827A022A01D1204B1A608A79A3
:100D1000CB7942EA032212B282810A7A4B7A42EA02
:100D2000032213B200F10C02C3818A7ACB7A42EA21
:100D3000032213B200F10C0203820B7B83744B7B02
:100D4000C3748A7BCB7B42EA032282820A7C4B7C7F
:100D500042EA032212B202810288A2F5806212B234
:100D600002804288A2F5806212B242808288A2F597
:100D7000806212B28280C288A2F5806212B2C28002
:100D80000289A2F5806212B2028170473800002009
:100D900010B5024692F82030012B01D0022B06D16B
:100DA00010684069084314686061002010BD506AF3
:100DB00040F4802050620120F8E7F0B504460D466B
:100DC0001E4694F8207020688368A86800B900E087
:100DD00000BF012F01D0022F7CD103F0806030B919
:100DE00003F0006018B903F08050002873D0C3F3FB
:100DF0000161022905D9606A40F4000060620120A7
:100E0000F0BD012088403060A86860B9B5F800C026
:100E1000E86840EA4C5C206800F5C07000EB011007
:100E2000C0F800C00FE0D5E901C040EACC00D5F819
:100E30000CC040EA0C00D4F800C00CF5C07C0CEBF0
:100E4000011CCCF80000D5F810C0206800F5C07077
:100E500000EB0110C0F804C0287D01280ED12068E5
:100E600000F5C07000EB0110406840F4807C206801
:100E700000F5C07000EB0110C0F804C0D079000686
:100E800092F806C040EA0C4092F805C040EA0C2CEB
:100E900010794CEA000C206800F5C07000EB0110DE
:100EA000C0F80CC0D078000692F802C040EA0C40AE
:100EB00092F801C040EA0C2092F800C040EA0C0011
:100EC000D4F800C00CF5C07C0CEB011CCCF8080079
:100ED000206801E016E00FE000F5C07000EB0110A3
:100EE000006840F0010C206800F5C07000EB0110B4
:100EF000C0F800C0002083E7606A40F40010606220
:100F000001207DE7606A40F480206062012077E77D
:100F1000F0B504460A46216894F82050012D01D00E
:100F2000022D7ED1424901F50071086840F00100B0
:100F30000860086820F47C5008600868566A40EA37
:100F400006200860107D00F01F06012000FA06F35D
:100F5000C8699843C861A1F50071D069C8B9D1F8D2
:100F60000C029843C1F80C02908880B2968940EA3E
:100F7000064601F51070576940F83760108880B256
:100F8000168940EA064601F51070576900EBC70064
:100F90004660D069012819D1D1F80C021843C1F874
:100FA0000C02908880B2168840EA064601F510705F
:100FB000576940F83760908980B2168940EA064642
:100FC00001F51070576900EBC7004660906928B9B9
:100FD000D1F804029843C1F8040204E0D1F80402F5
:100FE0001843C1F80402106928B9D1F814029843D3
:100FF000C1F8140204E0D1F814021843C1F8140235
:10100000106A012804D1D1F81C021843C1F81C024F
:10101000D1F8000220F00100C1F800020020F0BD6C
:10102000FFE7606A40F4802060620120F7E700007B
:1010300000640040704770B5044694F82050012DBC
:1010400001D0022D7DD151B92068C06800F00300A5
:1010500080B9606A40F400106062012070BD2068B1
:10106000006900F0030028B9606A40F40010606273
:101070000120F3E7206800F5D87000EB011000684C
:1010800000F004009060906840B9206800F5D870C6
:1010900000EB01100068400D106007E0206800F5CB
:1010A000D87000EB01100068C0085060206800F59F
:1010B000D87000EB0110006800F00200D0602068DA
:1010C00000F5D87000EB0110406800F00F001061CF
:1010D000206800F5D87000EB0110406800F47F40F4
:1010E000000A9061206800F5D87000EB011040689C
:1010F000000C5061206800F5D87000EB011080688A
:101100001870206800F5D87000EB0110806800F4BA
:101110007F40000A5870206800F5D87000EB01107D
:10112000806800F47F00000C9870206800F5D8708B
:1011300000EB01108068000ED870206800F5D870B0
:1011400000E02FE000EB0110C0681871206800F586
:10115000D87000EB0110C06800F47F40000A58719D
:10116000206800F5D87000EB0110C06800F47F0023
:10117000000C9871206800F5D87000EB0110C06871
:10118000000ED87131B92068C06840F02000266890
:10119000F06005E02068006940F0200026683061BA
:1011A00000205BE7606A40F480206062012055E720
:1011B0002DE9F05F04460025206846692068D0F8D4
:1011C0000490206887682068D0F80CA02068D0F8C8
:1011D00010B02068D0F8188006F00100002855D023
:1011E00007F00100C0B101202168886007F002000B
:1011F00018B1204600F0C3FA0EE007F0040010B169
:1012000045F4006508E007F0080010B145F480558A
:1012100002E0204600F0B2FA07F48070C8B14FF443
:1012200080702168886007F4007018B1204600F0D3
:10123000A8FA0EE007F4806010B145F4005508E00C
:1012400007F4006010B145F4804502E0204600F04C
:1012500097FA07F48030C8B14FF480302168886075
:1012600007F4003018B1204600F08DFA0EE007F4C4
:10127000802010B145F4004508E007F4002010B1CB
:1012800045F4803502E0204600F07CFA06F00800C4
:1012900038B10AF0100020B145F400751020216823
:1012A000C86006F0040040B10AF0080028B1082028
:1012B0002168C860204600F007FA06F0020038B145
:1012C0002068C06800F0030010B1204600F0FEF96D
:1012D00006F0400038B10BF0100020B145F48065F5
:1012E00010202168086106F0200040B10BF00800D2
:1012F00028B1082021680861204600F00DFA06F0A8
:10130000100038B12068006900F0030010B12046D9
:1013100000F003FA06F4003040B109F0100028B1E3
:10132000102021684860204600F0F8F906F480306B
:1013300040B109F0080028B1082021684860204623
:1013400000F022FA06F4004088B309F0040078B3F4
:1013500006F4807020B108F0010008B145F00105E5
:1013600006F4007020B108F0020008B145F0020553
:1013700006F4806020B108F0040008B145F00405CF
:1013800006F40060A0B108F0700088B108F07000A9
:10139000402817D006DC10280BD020280CD030288D
:1013A00019D10CE0502810D0602814D110E01DE0B5
:1013B00019E045F008050FE045F010050CE045F098
:1013C000200509E045F0400506E045F0800503E012
:1013D00045F4807500E000BF00BF2068806920F000
:1013E0007000216888610420216848602DB1606A1E
:1013F000284360622046FFF71DFEBDE8F09F70B5F0
:1014000004460CB9012070BD94F8200010B92046A4
:1014100000F0B0F82068006840F001002168086022
:1014200000F0F8FC05460DE000F0F4FC401B0A2833
:1014300008D9606A40F400306062052084F820001A
:101440000120E0E72068406800F001000028EBD0B0
:101450002068006820F002002168086000F0DAFCD3
:1014600005460DE000F0D6FC401B0A2808D9606A4A
:1014700040F400306062052084F820000120C2E7BB
:101480002068406800F002000028EBD1207E01288F
:1014900006D12068006840F080002168086005E0FF
:1014A0002068006820F0800021680860607E0128C4
:1014B00006D12068006840F040002168086005E01F
:1014C0002068006820F0400021680860A07E0128A4
:1014D00006D12068006840F020002168086005E01F
:1014E0002068006820F0200021680860E07E012864
:1014F00006D12068006820F010002168086005E02F
:101500002068006840F0100021680860207F0128F2
:1015100006D12068006840F008002168086005E0F6
:101520002068006820F0080021680860607F0128BA
:1015300006D12068006840F004002168086005E0DA
:101540002068006820F0040021680860D4E90201E6
:10155000084321690843616908436168491E0843DB
:101560002168C86100206062012084F8200000200A
:1015700049E7000010B586B00446142101A8FEF723
:101580003FFF4B492068884239D14A480068401CD7
:10159000484908600846006801280FD100BF0020B4
:1015A00000904548006840F00070434908600846D4
:1015B000006800F00070009000BF00BF00BF002076
:1015C00000903D481038006840F008003A49103952
:1015D00008600846006800F00800009000BF00BFE7
:1015E0000320019002200290002003900320049029
:1015F0000920059001A9314800F012FB55E030495F
:101600002068884251D100BF002000902A4800681D
:1016100040F08060284908600846006800F080605B
:10162000009000BF00BF23480068401C21490860AB
:101630000846006801280FD100BF002000901E4816
:10164000006840F000701C4908600846006800F01F
:101650000070009000BF00BF00BF0020009016483F
:101660001038006840F0020013491039086008463D
:10167000006800F00200009000BF00BF4FF48250ED
:101680000190022002900020039003200490092082
:10169000059001A90B4800F0C3FA00220521402063
:1016A00000F07CFC402000F069FC06B010BD00009A
:1016B000006400401400002040380240000C02404A
:1016C00000680040000402407047000010B58AB076
:1016D00004460F4884420AD101AB03AA00212046E8
:1016E000FFF7A9FC01A903A8FFF7B6F800BF094856
:1016F00084420AD101AB03AA00212046FFF79BFCDC
:1017000001A903A8FFF7A8F800BF0AB010BD0000A8
:10171000240100204C01002070477047704770B5CD
:10172000044694F82000012822D1022084F82000E9
:101730002068006820F001002168086000F06AFB62
:1017400005460DE000F066FB401B0A2808D9606AD8
:1017500040F400306062052084F82000012070BD54
:101760002068406800F001000028EBD16062F6E7D5
:10177000606A40F4002060620120F0E77047704723
:101780007047704770477047704770B50446A56D45
:1017900000F040FB064694F83500022808D080206F
:1017A000606500BF002084F8340000BF012070BDD8
:1017B0002068006820F016002168086020684069F1
:1017C00020F0800021684861206C08B9A06C28B125
:1017D0002068006820F00800216808602068006820
:1017E00020F001002168086010E000F013FB801B6E
:1017F00005280BD920206065032084F8350000BF40
:10180000002084F8340000BF0320D0E7206800687F
:1018100000F001000028E8D194F85C103F208840D7
:10182000A860012084F8350000BF002084F834004F
:1018300000BF00BFBBE7014691F83500022803D086
:101840008020486501207047052081F83500086830
:10185000006820F001000A6810600020F3E7000033
:10186000F8B50446002000908C4800684FF41651EB
:10187000B0FBF1F7A56D2E6894F85C100820884045
:10188000304098B12068006800F0040070B1206812
:10189000006820F004002168086094F85C100820BB
:1018A0008840A860606D40F00100606594F85C10AD
:1018B00001208840304068B12068406900F0800015
:1018C00040B194F85C1001208840A860606D40F041
:1018D0000200606594F85C1004208840304068B1D4
:1018E0002068006800F0020040B194F85C10042009
:1018F0008840A860606D40F00400606594F85C105A
:1019000010208840304078B32068006800F008005C
:1019100050B394F85C1010208840A86020680068DC
:1019200000F4802080B12068006800F4002028B90D
:10193000206CC8B12046216C884715E0A06C98B196
:101940002046A16C88470FE02068006800F4807092
:1019500028B92068006820F0080021680860206C21
:1019600010B12046216C884794F85C1020208840F4
:101970003040002865D02068006800F01000002882
:101980005FD094F85C1020208840A86094F835005F
:10199000052828D12068006820F01600216808601A
:1019A0002068406920F0800021684861206C08B9F7
:1019B000A06C28B12068006820F008002168086049
:1019C00094F85C103F208840A860012084F835001E
:1019D00000BF002084F8340000BF206D10B1204605
:1019E000216D8847F8BD2068006800F4802080B130
:1019F0002068006800F4002028B9606C10B120460F
:101A0000616C88471DE0E06BD8B12046E16B8847E8
:101A100017E02068006800F4807068B920680068EA
:101A200020F0100021680860012084F8350000BF14
:101A3000002084F8340000BFE06B10B12046E16B59
:101A40008847606D38B3606D00F00100F0B105208B
:101A500084F835002068006820F0010021680860E3
:101A600000BF0098401C0090B84200D905E02068F3
:101A7000006800F001000028F3D100BF012084F8C5
:101A8000350000BF002084F8340000BFE06C10B1C6
:101A90002046E16C884700BFA4E700004800002012
:101AA0002DE9F0410446002500F0B4F9074614B9C9
:101AB0000120BDE8F081606A00B100BF022084F817
:101AC000350000BF002084F8340000BF20680068A3
:101AD00020F00100216808600AE000F09BF9C01BBB
:101AE000052805D920206065032084F83500E0E74B
:101AF0002068006800F001000028EED12068056829
:101B000021480540D4E901010843E16808432169FF
:101B1000084361690843A1690843E1690843216AF0
:101B200008430543606A042803D1D4E90B01084344
:101B30000543206805602068456925F00705606A4F
:101B40000543606A04280DD1A06A0543E06A48B1E4
:101B50002046FEF751FF28B140206065012084F83F
:101B60003500A6E7206845612046FEF72BFF0646B4
:101B700094F85C103F208840B06000206065012030
:101B800084F83500002094E73F8010F02DE9F047FD
:101B900004460D4616461F464FF00008D4F85890EC
:101BA00000BF94F83400012802D10220BDE8F0877C
:101BB000012084F8340000BF94F83500012825D1B5
:101BC000022084F83500002060653B4632462946F5
:101BD0002046FEF766FF94F85C103F208840C9F865
:101BE00008002068006840F0160021680860206C3A
:101BF00028B12068006840F008002168086020686B
:101C0000006840F001002168086006E000BF002085
:101C100084F8340000BF4FF002084046C6E70000D9
:101C2000F8B502460B460025002400200021D6E02E
:101C3000012606FA01F51E6806EA0504AC4274D1D5
:101C40001E7906F00306012E04D01E7906F0030665
:101C5000022E13D190684F000326BE40B0434F00C0
:101C6000DE68BE4030439060506801268E40B0432D
:101C70001E79C6F300168E40304350601E7906F080
:101C80000306032E09D0D0684F000326BE40B043A0
:101C90004F009E68BE403043D0601E7906F00306B8
:101CA000022E13D1CF0802F1200656F827004E0766
:101CB000F70E0F26BE40B0434F07FF0E1E69BE4011
:101CC0003043CF0802F1200646F8270010684F0085
:101CD0000326BE40B0431E7906F003064F00BE4007
:101CE000304310605E6806F44036002E76D000BFA8
:101CF000002600963C4E366846F480463A4F3E60D9
:101D00003E46366806F48046009600BF00BF374E58
:101D10008F0856F827008E07370F0F26BE40B043B6
:101D2000334EB24202D1002624E057E0314EB24297
:101D300001D101261EE0304EB24201D1022619E047
:101D40002E4EB24201D1032614E02D4EB24201D1F3
:101D500004260FE02B4EB24201D105260AE02A4E9E
:101D6000B24201D1062605E0284EB24201D1072633
:101D700000E008268F073F0FBE4030431B4E8F0800
:101D800046F82700224E3068A0435E6806F48016AD
:101D900006B120431E4E3060361D3068A0435E6899
:101DA00006F4001606B12043194E361D3060184E59
:101DB000361F3068A0435E6806F4003606B1204343
:101DC000134E361F3060361F3068A0435E6806F43D
:101DD000803606B120430E4E083E3060491C102963
:101DE000FFF426AFF8BD0000443802400838014037
:101DF000000002400004024000080240000C0240C3
:101E0000001002400014024000180240001C024072
:101E1000083C014001480068704700003C00002079
:101E2000034800680349097808440149086070477D
:101E30003C0000204400002010B50D48006840F42C
:101E400000700B4908600846006840F48060086034
:101E50000846006840F480700860032000F0DCF859
:101E6000002000F007F800F05FF8002010BD00002F
:101E7000003C02402DE9F04188B004460027B846F6
:101E800000BF002001902348006840F48070214981
:101E900008600846006800F48070019000BF00BF31
:101EA00002A903A800F08EF9069F1FB900F0B2F94D
:101EB000054602E000F0AEF945001748B5FBF0F02A
:101EC000A0F1010815481649086040F2E7311448AE
:101ED000C160C0F80480002101618160816100F06F
:101EE00061FC064696B90E4800F090FC06466EB9B5
:101EF0002D2000F043F8102C07D2002221462D207F
:101F000000F04CF80748046000E00126304608B0B5
:101F1000BDE8F0814038024040420F000020004000
:101F2000A40300204000002008B500BF002000905E
:101F30001148006840F480400F4908600846006876
:101F400000F48040009000BF00BF00BF0020009060
:101F5000081F006840F08050091F086008460068AC
:101F600000F08050009000BF00BF00220F21901EA3
:101F700000F014F808BD000044380240014608464D
:101F8000002809DB00F01F0301229A4043099B004F
:101F900003F1E023C3F8002100BF70472DE9F05F93
:101FA00080460D461646002702F0DEF80746394601
:101FB0002A46334601F00700C0F1070ABAF1040FC0
:101FC00002D94FF0040A01E0C0F1070AD14600F13E
:101FD000040ABAF1070F02D24FF0000A01E0A0F1A3
:101FE000030AD4464FF0010A0AFA09FAAAF1010AD3
:101FF0000AEA020A0AFA0CFA4FF0010B0BFA0CFB80
:10200000ABF1010B0BEA030B4AEA0B0421464046F5
:1020100002F0B2F8BDE8F09F00BF00F00702064BE7
:1020200019684FF6FF031940044B0B4343EA0221A2
:10203000014B196000BF70470CED00E00000FA058D
:1020400070B504460D460CB9012070BD58480068B3
:1020500000F00700A84209D255490D7008460068F3
:1020600000F00700A84201D00120EEE7207800F040
:10207000020002281DD1207800F00400042805D1B8
:102080004C48006840F4E0504A490860207800F06D
:102090000800082805D14748006840F460404549D9
:1020A00008604448006820F0F000A16808434149F6
:1020B0000860207800F00100A8B36068012807D10B
:1020C0003C4808380068C0F34040B8B90120BCE77C
:1020D0006068022802D06068032807D135480838B4
:1020E0000068C0F3406048B90120AEE731480838C5
:1020F0000068C0F3400008B90120A6E72D48006839
:1021000020F00300616808432A490860FFF782FE57
:10211000064609E0FFF77EFE801B41F288318842C7
:1021200002D9032091E707E02248006800F00C0084
:102130006168B0EB810FEDD11D48006800F0070029
:10214000A84209D91A490D700846006800F0070036
:10215000A84201D0012078E7207800F0040004288C
:1021600007D11448006820F4E050E16808431149A1
:102170000860207800F00800082808D10D480068A1
:1021800020F46040216940EAC1000A49086000F07B
:1021900061F808490968C1F30311074A515CC84056
:1021A0000649086006480068FFF764FE00204CE717
:1021B000003C024008380240106F00084800002030
:1021C000400000200F2202600D4A126802F0030254
:1021D00042600B4A126802F0F0028260084A1268FC
:1021E00002F4E052C260064A126802F46042D20869
:1021F0000261044A126802F007020A607047000098
:1022000008380240003C0240014800687047000066
:102210004800002000B5FFF7F7FF04490968C1F343
:102220008221034A515CC84000BD000008380240CA
:10223000206F000800B5FFF7E7FF04490968C1F304
:102240004231034A515CC84000BD000008380240DA
:10225000206F00082DE9F047002400250026A14644
:102260002548006800F00C0020B1042805D008289B
:102270003AD105E0DFF8849039E0DFF8849036E069
:102280001D48001F006800F03F041B48001F006845
:1022900000F4800078B11A481749091F0968C1F392
:1022A0008811A0FB01700146224600233846FEF744
:1022B0005DF805460EE011480F49091F0968C1F392
:1022C0008811A0FB01700146224600233846FEF724
:1022D0004DF805460848001F0068C0F30140401C47
:1022E0004600B5FBF6F902E0DFF8109000BF00BF32
:1022F0004846BDE8F0870000083802400024F4009A
:1023000000127A00F8B504460CB90120F8BD207817
:1023100000F00100002874D0F948006800F00C00BB
:1023200004280DD0F648006800F00C00082813D1EE
:10233000F348001F006800F48000B0F5800F0BD157
:10234000EF4808380068C0F34040002859D0606862
:10235000002856D10120D9E700BF6068B0F5803F62
:1023600008D1E7480838006840F48030E44908396B
:1023700008601EE06068B0F5A02F0DD1E048083875
:10238000006840F48020DE4908390860084600688B
:1023900040F4803008600CE0D9480838006820F428
:1023A0008030D749083908600846006820F480204A
:1023B000086000BF606890B1FFF72CFD054606E09D
:1023C000FFF728FD401B642801D903209EE7CC4875
:1023D00008380068C0F340400028F1D011E0FFF752
:1023E00019FD054606E0FFF715FD401B642801D9DD
:1023F00003208BE7C24808380068C0F3404000283B
:10240000F1D1207800F0020002285FD1BC480068BA
:1024100000F00C0058B1BA48006800F00C00082821
:102420001CD1B748001F006800F48000B0B9B44860
:1024300008380068C0F3400020B1E068012801D0EE
:10244000012063E7AE480838006820F0F8002169F1
:1024500040EAC100AA490839086037E0E06800B3E3
:102460000120A8490860FFF7D5FC054606E0FFF704
:10247000D1FC401B022801D9032047E7A0480838B7
:102480000068C0F340000028F1D09D48083800687B
:1024900020F0F800216940EAC10099490839086034
:1024A00014E0002097490860FFF7B4FC054606E0F9
:1024B000FFF7B0FC401B022801D9032026E7904813
:1024C00008380068C0F340000028F1D1207800F0FF
:1024D000080008282CD16069A8B101208A49086049
:1024E000FFF798FC054606E0FFF794FC401B022826
:1024F00001D903200AE782486C300068C0F340002D
:102500000028F1D014E000207F490860FFF782FC2A
:10251000054606E0FFF77EFC401B022801D9032098
:10252000F4E677486C300068C0F340000028F1D131
:10253000207800F00400042870D10027704838305B
:10254000006800F0805090B900BF002000906C48F7
:102550003830006840F080506949383108600846DA
:10256000006800F08050009000BF00BF012767485E
:10257000006800F48070B0B96448006840F480706E
:1025800062490860FFF746FC054606E0FFF742FC9B
:10259000401B022801D90320B8E65C48006800F41B
:1025A00080700028F2D000BFA068012808D15448EC
:1025B0006830006840F001005149683108601DE052
:1025C000A06805280DD14E486830006840F004002E
:1025D0004B49683108600846006840F00100086017
:1025E0000CE047486830006820F001004449683139
:1025F00008600846006820F00400086000BFA0687A
:10260000A8B1FFF707FC054609E0FFF703FC401BF4
:1026100041F28831884202D9032077E626E0384823
:1026200068300068C0F340000028EED013E0FFF7E8
:10263000F1FB054608E0FFF7EDFB401B41F2883156
:10264000884201D9032061E62D4868300068C0F354
:1026500040000028EFD1012F07D129483830006809
:1026600020F0805026493831086000BFA06900285A
:1026700045D02348006800F00C0008285DD0A06910
:10268000022845D100201F490866FFF7C3FB054615
:1026900006E0FFF7BFFB401B022801D9032035E607
:1026A000174808380068C0F340600028F1D1D4E929
:1026B00007010843616A40EA81110122A06AC2EB66
:1026C000500041EA00412C20005D41EA00600C49C5
:1026D000091F086001200B490866FFF79BFB0546B0
:1026E00006E0FFF797FB401B022801D903200DE607
:1026F000034808380068C0F340600028F1D049E082
:102700000838024000004742800E474200700040F7
:10271000002021490866FFF77DFB054606E0FFF72C
:1027200079FB401B022801D90320EFE51B48006814
:10273000C0F340600028F2D12CE0A069012800D14C
:10274000E4E51648001D0668A069012820D006F4BB
:102750008001E06981421BD106F03F01206A81427D
:1027600016D147F6C0703040616AB0EB811F0FD1BF
:1027700006F440310122A06AC2EB5000B1EB004FD9
:1027800006D106F070612C20005DB1EB006F01D026
:102790000120BBE50020B9E50000474200380240B7
:1027A0007047704710B504460CB9012010BD94F86D
:1027B0003D0028B9002084F83C00204600F025F8B0
:1027C000022084F83D00211D206801F07FF80120DF
:1027D00084F8460000BF84F83E0001213F200155E7
:1027E000402001554120015500BF00BF012084F861
:1027F000420043200155442001554520015500BFAA
:10280000012084F83D000020D0E77047014691F890
:102810003D00012801D001207047022081F83D00D1
:102820000868C06840F001000B68D8601A4B08685F
:1028300098421BD00868B0F1804F17D0174B08683A
:10284000984213D0164B086898420FD0154B086871
:1028500098420BD0144B0868984207D0134B086875
:10286000984203D0124B086898420CD108688068DF
:1028700000F00702062A0CD00868006840F001004A
:102880000B68186005E00868006840F001000B68FC
:1028900018600020C0E70000000001400004004074
:1028A00000080040000C00400004014000400140CE
:1028B00000180040704710B5044620680069C0F356
:1028C0004000D8B12068C068C0F34000B0B16FF0DC
:1028D000020021680861012020772068806900F0EB
:1028E000030018B12046FFF7E5FF05E0204600F0A1
:1028F000ADF8204600F0ABF8002020772068006992
:10290000C0F38000D8B12068C068C0F38000B0B1C7
:102910006FF0040021680861022020772068806938
:1029200000F4407018B12046FFF7C4FF05E02046D0
:1029300000F08CF8204600F08AF80020207720680C
:102940000069C0F3C000D8B12068C068C0F3C000FF
:10295000B0B16FF00800216808610420207720687A
:10296000C06900F0030018B12046FFF7A3FF05E09F
:10297000204600F06BF8204600F069F80020207730
:1029800020680069C0F30010D8B12068C068C0F3A7
:102990000010B0B16FF010002168086108202077A6
:1029A0002068C06900F4407018B12046FFF782FF2C
:1029B00005E0204600F04AF8204600F048F80020E4
:1029C00020772068006900F0010058B12068C068D5
:1029D00000F0010030B16FF001002168086120466D
:1029E00000F036F820680069C0F3C01058B12068C4
:1029F000C068C0F3C01030B16FF08000216808617A
:102A00002046FFF7CDFE20680069C0F3801058B162
:102A10002068C068C0F3801030B16FF040002168BA
:102A20000861204600F020F820680069C0F34010DB
:102A300058B12068C068C0F3401030B16FF020007A
:102A4000216808612046FFF7ACFE10BD7047704753
:102A500010B5044603492068884201D1FFF7E0F928
:102A600010BD000000200040704770477047000014
:102A70002DE9F84F0446206805682068C66820687C
:102A800047694FF00009CA4605F00F09B9F1000F78
:102A90000AD105F0200038B106F0200020B1204610
:102AA00001F073F8BDE8F88FB9F1000F7CD007F0A2
:102AB000010018B906F49070002875D005F00100E7
:102AC00030B106F4807018B1206C40F00100206431
:102AD00005F0040030B107F0010018B1206C40F09F
:102AE0000200206405F0020030B107F0010018B1C7
:102AF000206C40F00400206405F0080048B106F0A6
:102B0000200010B907F0010018B1206C40F0080057
:102B10002064206C002846D005F0200028B106F083
:102B2000200010B1204601F030F820684069C0F361
:102B3000801A206C00F0080010B9BAF1000F2DD0F7
:102B4000204600F0C9FF2068406900F0400040289E
:102B500020D100BF00BF2168143151E8001F21F0CF
:102B600040002168143141E80002002AF3D100BF7F
:102B7000A06B50B17548A16B0865A06BFEF75BFEBA
:102B800088B1A06B016D88470DE02046FFF76EFF0E
:102B900009E009E02046FFF769FF04E02046FFF75F
:102BA00065FF002020647DE7206B012876D105F0C9
:102BB0001000002872D006F010000028FAD000BFE4
:102BC0000020009020680068009020684068009015
:102BD00000BF00BF2068406900F0400040285ED17F
:102BE000A06B006840681FFA80F8B8F1000F54D05D
:102BF000A08D404551DDA4F82E80A06BC069B0F5D2
:102C0000807F43D000BF00BF21680C3151E8001F16
:102C100021F4807021680C3141E80002002AF3D1D0
:102C200000BF00BF00BF2168143151E8001F21F030
:102C300001002168143141E80002002AF3D100BFED
:102C400000BF00BF2168143151E8001F21F040008F
:102C50002168143141E80002002AF3D100BF20208E
:102C600084F83E000020206300BF00BF21680C31C3
:102C700051E8001F21F0100021680C3141E80002EA
:102C8000002AF3D100BFA06BFEF77FFDA08DE28D7F
:102C9000801A81B22046FFF7E8FE03E740E0A08DEE
:102CA000E18D401A1FFA80F8E08DC0B3B8F1000F33
:102CB00035D000BF00BF21680C3151E8001F21F45E
:102CC000907021680C3141E80002002AF3D100BF66
:102CD00000BF00BF2168143151E8001F21F001003E
:102CE0002168143141E80002002AF3D100BF2020FE
:102CF00084F83E000020206300BF00BF21680C3133
:102D000051E8001F21F0100021680C3141E8000259
:102D1000002AF3D100BF41462046FFF7A6FEC1E6D8
:102D200005F0800030B106F0800018B1204601F0B7
:102D300027F9B7E605F0400030B106F0400018B1C1
:102D4000204600F0FFFEADE600BFABE6A539000867
:102D500010B504460CB9012010BDA06900B100E017
:102D600000BF94F83D0028B9002084F83C002046BC
:102D700000F028F8242084F83D002068C06820F482
:102D800000502168C860204600F07CFF2068006980
:102D900020F49040216808612068406920F02A00F2
:102DA000216848612068C06840F400502168C8600C
:102DB00000202064202084F83D0084F83E0000209C
:102DC000CAE7000010B586B00446142101A8FDF73B
:102DD00017FBAE492068884231D100BF0020009027
:102DE000AB48006840F01000A94908600846006838
:102DF00000F01000009000BF00BF00BF0020009056
:102E0000A3481438006840F00100A1491439086053
:102E10000846006800F00100009000BF00BF4FF4BA
:102E2000C0600190022002900020039003200490D3
:102E30000720059001A99748FEF7F2FE23E1964985
:102E40002068884271D100BF002000909048001F88
:102E5000006840F400308E49091F08600846006889
:102E600000F40030009000BF00BF00BF00200090C1
:102E700087481438006840F001008549143908601B
:102E80000846006800F00100009000BF00BF00BFCE
:102E9000002000900846006840F0080008600846DE
:102EA000006800F00800009000BF00BF04200190FF
:102EB0000220029000200390032004900720059038
:102EC00001A97448FEF7ACFE402001900220029058
:102ED00000200390032004900720059001A96F486B
:102EE000FEF79EFE6E486F4908604FF00060486034
:102EF00000216C488160C1604FF480610161002154
:102F0000416181614FF48071C1614FF440310162D0
:102F100000214162FEF7C4FD08B1FDF787FE00BF46
:102F20006048A0638463AEE0FFE75F4920688842A1
:102F300059D100BF002000905548001F006840F4A0
:102F400080205349091F08600846006800F480206B
:102F5000009000BF00BF00BF002000904C48143814
:102F6000006840F002004A491439086008460068C9
:102F700000F00200009000BF00BF4FF440600190DD
:102F80000220029000200390032004900720059067
:102F900001A94648FEF744FE4148603844490860AC
:102FA0004FF000604860002141488160C1604FF4EB
:102FB00080610161002141618161C1610162416201
:102FC000FEF76EFD08B1FDF731FE00BF3848A06383
:102FD000846300BF002211462720FEF7DFFF272071
:102FE000FEF7CCFF4FE03349206888424BD100BF49
:102FF000002000902648006840F020002449086026
:103000000846006800F02000009000BF00BF00BF2D
:10301000002000901E481438006840F004001C494D
:10302000143908600846006800F00400009000BFF2
:1030300000BFC020019002200290002003900320D6
:1030400004900820059001A91B48FEF7E9FD1B48E4
:103050001B49086080054860002119488160C160F3
:103060004FF480610161002141618161C1610162B0
:103070004162FEF715FD08B1FDF7D8FD00BF10480D
:10308000A063846300BF06B010BD000000100140C3
:10309000443802400000024000440040000C02405E
:1030A0008860024084020020004800400004024082
:1030B000E40200200014014000080240286402409D
:1030C0004403002070B504460D46164694F83E00B1
:1030D000202816D105B10EB9012070BD00BF94F8AB
:1030E0003C00012801D10220F7E7012084F83C00D0
:1030F00000BF0020206332462946204600F0D8FE5B
:10310000EBE70220E9E7704770472DE9F84F0446E6
:103110000E46174699464FF0000A94F83D002028C5
:103120005AD106B117B90120BDE8F88F00BF94F855
:103130003C00012801D10220F6E7012084F83C0080
:1031400000BF00202064212084F83D00FEF762FECD
:103150008246A784E784A068B0F5805F04D1206927
:1031600010B90025B04602E035464FF0000800BF18
:10317000002084F83C0000BF1BE053460022802161
:103180002046CDF8009000F02BFF08B10320CBE7DC
:1031900045B9B8F80000C0F308002168486008F19C
:1031A000020803E02878216848606D1CE08C401E0E
:1031B000E084E08C0028E0D15346002240212046E4
:1031C000CDF8009000F00CFF08B10320ACE7202000
:1031D00084F83D000020A7E70220A5E7704700BF64
:1031E000FEE7B5EEC00AF1EE10FA1ED1D0ED0A0AE4
:1031F00090ED051AF4EEC10AF1EE10FA04DDD0EDFF
:10320000050AC0ED0A0A10E0D0ED0A0A90ED051A91
:10321000B1EE411AF4EEC10AF1EE10FA05D2D0ED8A
:10322000050AF1EE600AC0ED0A0AF7EE000AB4EEF4
:10323000600AF1EE10FA1ED1D0ED080A90ED041AE2
:10324000F4EEC10AF1EE10FA04DDD0ED040AC0ED8F
:10325000080A10E0D0ED080A90ED041AB1EE411A08
:10326000F4EEC10AF1EE10FA05D2D0ED040AF1EE47
:10327000600AC0ED080A704710B50E480E49086094
:103280000320486000210C488160C1604FF4002198
:1032900001614FF440114161002101764176817650
:1032A000C17601774177FEF7AAF808B1FDF7BEFCB9
:1032B00010BD0000006400402401002010B50E483D
:1032C0000E4908600320486000210C488160C160FD
:1032D0004FF4002101614FF440114161002101765A
:1032E00041768176C17601774177FEF788F808B19B
:1032F000FDF79CFC10BD0000006800404C01002060
:1033000008B500BF002000901648006840F4001087
:10331000144908600846006800F40010009000BFDF
:1033200000BF00BF002000900846006840F4800005
:1033300008600846006800F48000009000BF00BFED
:10334000002205210C20FEF729FE0C20FEF716FEB8
:10335000002205213920FEF721FE3920FEF70EFE5E
:1033600008BD00003038024010B50B4A00210B4860
:1033700001F0E6FD0A4908600A4A00210A4801F006
:10338000DFFD0A4908600A4A00210A4801F0D8FD19
:103390000949086010BD00009C6E0008894A0008B9
:1033A00008000020C06E0008B53700080C0000209F
:1033B000E46E0008290B00081000002008B500BFCB
:1033C000002000902448006840F0800022490860F6
:1033D0000846006800F08000009000BF00BF00BFFA
:1033E000002000900846006840F001000860084690
:1033F000006800F00100009000BF00BF00BF002087
:1034000000900846006840F0020008600846006826
:1034100000F00200009000BF00BF00BF002000903D
:103420000846006840F0040008600846006800F0A4
:103430000400009000BF00BF00BF002000900846BD
:10344000006840F0080008600846006800F00800C6
:10345000009000BF00BF08BD3038024010B5002208
:1034600005212620FEF79AFD2620FEF787FD002283
:1034700005211420FEF792FD1420FEF77FFD0022A7
:1034800005211020FEF78AFD1020FEF777FD10BD04
:1034900010B50B480B4908604FF4E130486000213B
:1034A00008488160C160016108214161002181619A
:1034B000C161FFF74DFC08B1FDF7B8FB10BD00007E
:1034C000001001407401002010B50B480B49086042
:1034D0000B484860002109488160C1604FF4806159
:1034E00001610C21416100218161C161FFF730FC64
:1034F00008B1FDF79BFB10BD00440040B80100205F
:10350000A086010010B50B480B4908604FF4E1306C
:103510004860002108488160C16001610C2141615F
:1035200000218161C161FFF713FC08B1FDF77EFB4B
:1035300010BD000000480040FC01002010B50B4801
:103540000B4908604FF4E130486000210848816071
:10355000C16001610C21416100218161C161FFF7FE
:10356000F7FB08B1FDF762FB10BD0000001401403D
:103570004002002000BFFEE770B52DED060B0026CF
:10358000002400252F4802782146641C2E4842540E
:103590002C4842782146641C2B484254092221467B
:1035A000641C425400222146641C425422460146B7
:1035B0006846FDF73FFB241D2246234901A8FDF77D
:1035C00039FB241D2246204902A8FDF733FB241DA8
:1035D00022461D4903A8FDF72DFB201DC4B222463B
:1035E000194904A8FDF726FB201DC4B2224616493E
:1035F00005A8FDF71FFB201DC4B2201F1249C8708B
:1036000000BF04E01048405D4640681CC5B2A542BA
:10361000F8DB2046611CCCB20B490E540B480278F3
:103620002046611CCCB208490A540848427820461A
:10363000611CCCB204490A542146034800F0AEF89C
:1036400006B070BDCC000020544E0020CE000020FB
:1036500000BFFEE700B50146F0EE401AB0EE602A6A
:1036600011B99FED2B0A00BD91ED100A81ED110AF1
:1036700091ED0F0A81ED100A81ED062AC1ED071ABE
:1036800032EE610A81ED0F0A91ED010AD1ED0F0AC8
:1036900020EE200A81ED090A91ED0A0AD1ED020A15
:1036A00091ED0F1A00EE810A81ED0A0A91ED0D0AE3
:1036B00081ED0E0A91ED0C0A81ED0D0A91ED0F0AD4
:1036C000D1ED100A30EE600A81ED0C0A91ED030A8B
:1036D000D1ED0C0A20EE200A81ED0B0A9FED0C0AB9
:1036E0000846FFF77EFD91ED090AD1ED0A0A30EE9A
:1036F000200AD1ED0B0A30EE200A81ED080AB7EE60
:10370000000A0846FFF76DFD91ED080AABE70000DF
:103710000000000000B102B97047017092ED001A7C
:1037200080ED011A92ED011A80ED021A92ED021A53
:1037300080ED031A80ED040AC0ED050A9FED0C1A16
:1037400080ED0E1A80ED0D1A80ED0C1A9FED081A0F
:1037500080ED081A80ED0B1A80ED0A1A80ED091A27
:1037600080ED111A80ED101A80ED0F1A00BFD3E71B
:103770000000000070B504460D4607480068C068A8
:1037800040F0100004490968C8602A4621460248F2
:10379000FFF798FC70BD0000B801002070B504462A
:1037A0000D46AAB20A2321460148FFF7AEFC70BDC0
:1037B0004002002000BFF7EE002AB7EE002AF7EE25
:1037C000001AB7EE001AF7EE000AB7EE000AFFF78C
:1037D000D3FE0A2001F05EFBEDE710B54FF0E020CC
:1037E000006903F005F9012801D002F04FFD10BD7A
:1037F00000B593B0302107A8FCF702FE142102A8FF
:10380000FCF7FEFD00BF002001902548006840F055
:103810008050234908600846006800F080500190FD
:1038200000BF00BF00BF002001901E48006840F4A8
:1038300080401C4908600846006800F48040019000
:1038400000BF00BF0220079001200A9010200B90BB
:1038500002200D9000210E9108210F91A8211091B6
:10386000022111910421129107A8FEF74BFD08B126
:10387000FDF7DCF90F200290022003900020049055
:103880004FF4A05005904FF480500690052102A8F7
:10389000FEF7D6FB08B1FDF7C9F913B000BD000073
:1038A00040380240007000400348006840F4700057
:1038B000014908607047000088ED00E010B502483B
:1038C000FEF7F9FF10BD0000A403002010B5026848
:1038D000294B98420ED0B0F1804F0BD0274B984225
:1038E00008D0274B984205D0264B984202D0264B51
:1038F000984203D122F070024B681A431E4B984243
:1039000020D0B0F1804F1DD01C4B98421AD01C4BD8
:10391000984217D01B4B984214D01B4B984211D0A1
:103920001A4B98420ED01A4B98420BD0194B984222
:1039300008D0194B984205D0184B984202D0184B2A
:10394000984203D122F44072CB681A4322F08003DC
:103950004C6943EA040202608B68C3620B688362AD
:10396000054B984202D0084B984201D10B69036382
:103970000123436110BD000000000140000400402D
:1039800000080040000C00400004014000400140DD
:10399000004401400048014000180040001C004065
:1039A0000020004070B50546AC6B0020E085E08447
:1039B0002046FFF75BF870BD70B506460025B46B76
:1039C00020684069C0F3C01594F83D00212805D156
:1039D00025B10020E084204600F0C4F8206840694A
:1039E000C0F3801594F83E00222805D125B10020AF
:1039F000E085204600F070F8206C40F01000206454
:103A00002046FFF733F870BD70B50546AC6B2868EB
:103A1000006800F48070002842D1E08500BF00BF3C
:103A200021680C3151E8001F21F4807021680C31AD
:103A300041E80002002AF3D100BF00BF00BF2168A7
:103A4000143151E8001F21F001002168143141E8D0
:103A50000002002AF3D100BF00BF00BF216814316B
:103A600051E8001F21F040002168143141E80002B4
:103A7000002AF3D100BF202084F83E00206B0128EB
:103A80000ED100BF00BF21680C3151E8001F21F0AA
:103A9000100021680C3141E80002002AF3D100BF78
:103AA000206B012804D1A18D2046FEF7DEFF02E045
:103AB0002046FFF728FB70BD70B50546AC6B206B48
:103AC000012805D1A08D41082046FEF7CEFF02E077
:103AD0002046FFF719FB70BD00BF00BF02680C3223
:103AE00052E8002F22F4907102680C3242E8001371
:103AF000002BF3D100BF00BF00BF0268143252E8B0
:103B0000002F22F001010268143242E80013002B5A
:103B1000F3D100BF016B01290ED100BF00BF0268C5
:103B20000C3252E8002F22F0100102680C3242E8F9
:103B30000013002BF3D100BF202180F83E1000219C
:103B40000163704710B504462068C06820F040004B
:103B50002168C860202084F83D002046FFF73EFB26
:103B6000002010BD00BF00BF02680C3252E8002FD9
:103B700022F0C00102680C3242E80013002BF3D19E
:103B800000BF202180F83D107047F8B5044694F836
:103B90003E00222873D1A068B0F5805F0CD1206967
:103BA00050B90025A66A20684068C0F3080030803C
:103BB000A06A801CA06215E0A56A0026A068B0F586
:103BC000805F03D0A06828B9206918B920684068D0
:103BD000287004E02068406800F07F002870A06A28
:103BE000401CA062E08D401E80B2E085002844D1D8
:103BF0002068C06820F020002168C8602068C06884
:103C000020F480702168C8602068406920F00100BD
:103C100021684861202084F83E00206B012826D1CD
:103C20000020206300BF00BF21680C3151E8001F55
:103C300021F0100021680C3141E80002002AF3D184
:103C400000BF2068006800F0100010280AD100BFF3
:103C50000020009020680068009020684068009074
:103C600000BF00BFA18D2046FEF7FFFE02E0204608
:103C7000FFF749FA0020F8BD01E00020FBE7022031
:103C8000F9E700002DE9F84F04462068006920F4A8
:103C90004050E1680843216808612169A068084331
:103CA00061690843E169084300902068C06849F2EF
:103CB0000C618843009908432168C8602068406906
:103CC00020F44070A1690843216848617649206862
:103CD000884203D075492068884203D1FEF7AAFACA
:103CE000814602E0FEF796FA8146E069B0F5004FA2
:103CF0006CD102206168A0FB015003461920A9FB8A
:103D0000007001462A463846FCF730FB6421B0FBC0
:103D1000F1F04FEA001A02206168A0FB01510B4646
:103D20001920A9FB00712A463846FCF71FFB834681
:103D300002206168A0FB015003461920A9FB007115
:103D40002A463846FCF712FB6421B0FBF1F000EB89
:103D5000C00101EB0010ABEB8000322101EBC00091
:103D60006421B0FBF1F000F0F8000AEB400A0220F9
:103D70006168A0FB015003461920A9FB00700146B1
:103D80002A463846FCF7F2FA834602206168A0FB17
:103D9000015003461920A9FB00712A463846FCF75A
:103DA000E5FA6421B0FBF1F000EBC00101EB00107B
:103DB000ABEB8000322101EBC0006421B0FBF1F0DD
:103DC00000F007005044216888606AE004206168C0
:103DD000A0FB015003461920A9FB007001462A46AA
:103DE0003846FCF7C3FA824604206168A0FB015004
:103DF00003461920A9FB007001462A463846FCF705
:103E0000B5FA6421B0FBF1F000EBC00101EB00104A
:103E1000AAEB8000322101EB00106421B0FBF1F02D
:103E200000F0F00A04206168A0FB0170034619202D
:103E3000A9FB00513A462846FCF798FA6421B0FBEA
:103E4000F1F00AEB001A04206168A0FB01510B4657
:103E50001920A9FB00712A463846FCF787FA8346E9
:103E600004206168A0FB015003461920A9FB0070E3
:103E700001462A463846FCF779FA6421B0FBF1F096
:103E800000EBC00101EB0010ABEB8000322101EB35
:103E900000106421B0FBF1F000F00F0050442168E5
:103EA0008860BDE8F88F0000001001400014014058
:103EB00077B581B0044615460298A062A58500201A
:103EC0002064222084F83E002A48A16BC8632A4857
:103ED000A16B08642948A16BC8640020A16B086528
:103EE00002AE32682368191D2B46A06BFDF74EFE0B
:103EF00000BF0020009020680068009020684068A3
:103F0000009000BF00BF00BF002084F83C0000BF4D
:103F1000206970B100BF00BF21680C3151E8001F5B
:103F200041F4807021680C3141E80002002AF3D18D
:103F300000BF00BF00BF2168143151E8001F41F0ED
:103F400001002168143141E80002002AF3D100BFCA
:103F500000BF00BF2168143151E8001F41F040004C
:103F60002168143141E80002002AF3D100BF00208B
:103F700004B070BD093A0008B93A0008B939000820
:103F8000014691F83D00212828D18868B0F5805F6E
:103F90000BD1086948B90A6A1088C0F308000B6899
:103FA0005860086A801C086205E00B6A581C0862A9
:103FB00018780B685860C88C401E80B2C88458B905
:103FC0000868C06820F080000B68D8600868C06886
:103FD00040F040000B68D860002070470220FCE7EA
:103FE0002DE9F04104460D4617469846069E34E0FA
:103FF000701C88B32EB1FDF70DFFA0EB0800B04296
:104000002BD900BF00BF21680C3151E8001F21F4FB
:10401000D07021680C3141E80002002AF3D100BFC2
:1040200000BF00BF2168143151E8001F21F00100DA
:104030002168143141E80002002AF3D100BF20209A
:1040400084F83D0084F83E0000BF002084F83C0066
:1040500000BF0320BDE8F081FFE72068006828402A
:10406000A84201D1012000E00020B842C0D00020C9
:10407000F0E7000038B532480068006800F0100032
:1040800010285CD12E480068C06800F0100000289D
:1040900055D02B480068006884B229480068406801
:1040A00084B2601E84B200BF0020009024480068E3
:1040B00000680090224800684068009000BF00BF80
:1040C0001F480068006820F010001D49096808605A
:1040D0001B48806B0068006820F001001849896B5C
:1040E000096808601648806B0068406815490880B8
:1040F00015491648FCF7D0FD0520FCF7E9FC8022A5
:1041000011490F48FEF7DEFF0D480068C06840F017
:1041100010000B490968C8603D200D49C860802027
:104120000749896B096848600548806B006800682A
:1041300040F001000249896B0968086000BF38BD82
:10414000B801002030000020D804002058050020CD
:104150000060024010B50248FEF78AFC10BD000066
:10416000FC01002000BFFEE702480068C0F3022007
:10417000704700000CED00E010B5002804DB0A07D2
:10418000130E054A135406E00A07140E034A00F002
:104190000F031B1FD45410BD00E400E018ED00E035
:1041A000EFF30580704702E008C8121F08C1002A1B
:1041B000FAD170477047002001E001C1121F002AA8
:1041C000FBD1704700B58BB001200990002007900B
:1041D00001200890002001900290039004900E208E
:1041E0000690002005900E200A9001A90248FCF7D5
:1041F0008FFE0BB000BD00004C01002000B58BB05D
:1042000001200990002007900120089000200190D3
:10421000029003900490069005900E200A9001A948
:104220000248FCF775FE0BB000BD00002401002021
:104230002DE9F04107460C4615461E4617B10CB154
:1042400005B10EB9BDE8F0811548007830B93346A4
:104250002A462146384600F049FD1FE01048007804
:10426000012806D133462A462146384600F074FA22
:1042700014E00B480078022806D133462A4621462E
:10428000384600F079F909E005480078042805D19E
:1042900033462A462146384600F04AFA00BFD1E7A5
:1042A000D400002010B5044604B910BD2068807AFF
:1042B000032803D104201C4908700EE02068807A8E
:1042C000022803D100201849087006E02068807A8F
:1042D000012802D10220144908702068C07A0328FE
:1042E00003D1012084F8080202E0002084F80802CB
:1042F0000520FCF70BFC10B100200B4908700A48A0
:10430000007810B9032020730CE0074800780228D9
:1043100002D10020207305E003480078042801D171
:104320000220207300BFC0E7D400002030B52DED7F
:10433000048B85B005469FED680AB0EE408A9FED7C
:10434000660AF0EE408A9FED640AB0EE409A0020C3
:1043500001900290039004900024D5ED771AB0EEFE
:10436000611AD5ED761AF0EE610AD5ED751AB0EE48
:10437000610A01A800F052FC287B03280ED100BF7F
:1043800009E0002104EB840205F1100000EB82003B
:104390000182601CC4B2042CF3DB98E0287B022865
:1043A00049D100242AE001A800EB840090ED000A26
:1043B00004EB840105F1100000EB810080ED030A9D
:1043C00004EB840205F1100101EB820191ED031A67
:1043D000F0EE410A04EB840205F1100101EB8201C9
:1043E00091ED021AB0EE410A04EBC40205F160013E
:1043F00001EBC200FFF72EF9601CC4B2042CD2DB23
:10440000002415E004EBC40105F1600000EBC100DD
:1044100090ED080ABDEEC00A10EE100A01B204EBDE
:10442000840205F1100000EB82000182601CC4B21E
:10443000042CE7DB4BE0287B80BB00242AE001A8AA
:1044400000EB840090ED000A04EB840105F11000FC
:1044500000EB810080ED030A04EB840205F11001FA
:1044600001EB820191ED031AF0EE410A04EB8402A4
:1044700005F1100101EB820191ED021AB0EE410A43
:1044800004EBC40205F1600101EBC200FFF7E2F8A2
:10449000601CC4B2042CD2DB002416E017E004EB4D
:1044A000C40105F1600000EBC10090ED080ABDEE0B
:1044B000C00A10EE100A01B204EB840205F11000EC
:1044C00000EB82000182601CC4B2042CE7DB05B063
:1044D000BDEC048B30BD00000000000070B52DED78
:1044E000028B044614B9BDEC028B70BD002500BFE1
:1044F00021E005EB850104F1100050F82100B0F92E
:10450000080000EE100AB8EEC00ADFED180A60EEEF
:10451000200AB3EE0E1A80EE810AF3EE030A80EE53
:10452000201A05EB850104F1100000EB810080EDFD
:10453000021A681CC5B2042DDBDB60684068A0F677
:10454000AC500B490860084690ED000AB8EEC00A6E
:10455000DFED080A80EE201AB0EE418AB0EE480A7C
:1045600001F020FB84ED7F0A00BFBCE7DB0F494070
:1045700014010020610BB6412DE9F04106460F46BB
:1045800015461C4616B10FB105B10CB9BDE8F08156
:1045900022463946304600F0F5F836B92FB99FED7E
:1045A000200A204880ED000A04E09FED1F0A1D4804
:1045B00080ED000A94F8080201282AD194ED7F0AC0
:1045C0001848D0ED000AB4EEE00AF1EE10FA04DB70
:1045D0004FF0FF30154908600EE094ED7F0A114856
:1045E000D0ED000AF1EE600AB4EEE00AF1EE10FA46
:1045F00002D801200D4908600C4890ED000AB8EE81
:10460000C00A85ED000A074890ED000A85ED000A12
:1046100003E09FED070A85ED000A00BFB6E7000042
:1046200000004842DC00002000000C42D8000020BE
:104630000000000070B5044604B970BD032020736B
:1046400000F0D0FB206000F089FB6060002519E0DD
:10465000284600F077FB05EB850204F1100141F8D4
:10466000220005EBC502503101EBC2001749D1ED24
:10467000000A174991ED000A164A0021FFF74AF88F
:10468000681CC5B2042DE3DB1348D0ED000A1348C3
:1046900090ED000A124A002104F5C070FFF73AF8C5
:1046A0009FED100A84ED7B0A9FED0F0A84ED7C0AD2
:1046B0009FED0E0A84ED7D0A9FED0D0A84ED7E0AC2
:1046C0002046FFF70BFF00BFB7E700000001002006
:1046D000FC000020286F00080801002004010020D1
:1046E000346F000800005C4200005CC20000204201
:1046F000000020C200B97047417B027B914200D18B
:10470000F9E7417B31B1017B21B990ED7F0A80ED62
:104710007A0A09E0417B022906D0017B022903D1F4
:1047200090ED7F0A80ED7A0A017B417300BFE2E7DA
:104730002DE9F04107460D4616461C4617B10DB14E
:1047400006B10CB9BDE8F08122462946384600F092
:1047500019F800BFF6E7000010B109B102B103B9C2
:1047600070479FED070A80ED000A9FED050A81ED75
:10477000000A9FED030A82ED000A00BFF0E7000087
:10478000000000002DE9F0472DED068B05460E4692
:1047900014460CB105B11EB9BDEC068BBDE8F0871F
:1047A0002068B0F902000A2805DC2068B0F9020090
:1047B00010F10A0F03DA2068B0F9027000E0002758
:1047C0002068B0F900000A2805DC2068B0F9000074
:1047D00010F10A0F03DA2068B0F9008001E04FF011
:1047E00000083846FBF7F8FE41EC1A0B9FED1D0B55
:1047F00053EC102BFBF70FFE41EC190B9FED1B0B3D
:1048000053EC102BFBF779FE41EC180BFBF708FF7C
:1048100082464046FBF7E0FE41EC1A0B9FED150B7C
:1048200053EC102BFBF7F7FD41EC190B9FED0F0B31
:1048300053EC102BFBF761FE41EC180BFBF7F0FE7D
:10484000814647B9B8F1000F05D19FED0C0A86EDFE
:10485000000A85ED000AC5F800A0C6F8009000BF68
:104860009AE700000000000000003940000000004E
:1048700000A0844000000000000034400000000060
:1048800010B52DED068B84B004461CB904B0BDEC08
:10489000068B10BD9FED710A8DED030A9FED6F0A27
:1048A0008DED020A9FED6D0A8DED010A234601AAE6
:1048B00002A903A8FFF7BCFC207B00287ED19FED56
:1048C000670AB0EE408A9FED650AF0EE408A94EDEB
:1048D0007F0AB5EEC00AF1EE10FA09D294ED7F0A14
:1048E000DFED5E0A30EE600A5D4880ED000A28E0E8
:1048F00094ED7F0ADFED5B0AB4EEE00AF1EE10FA08
:1049000009D894ED7F0ADFED550A30EE600A54486D
:1049100080ED000A15E094ED7F0ADFED530AB4EE56
:10492000E00AF1EE10FA0CD894ED7F0ADFED4E0AA2
:1049300030EEC00ADFED490A30EE200A484880ED2B
:10494000000A47480068FBF758FE41EC1A0B9FED40
:10495000470B53EC102BFBF7D0FD41EC190BFBF789
:104960005FFE3F490860084690ED000AFBF7C4FC73
:10497000B0EE408A3A4890ED000AFBF781FCF0EE79
:10498000408A9DED030A28EE800ADDED020A08EE5A
:10499000600A84ED750A9DED030A28EE000ADDED3C
:1049A000020A08EEA00A84ED760A9DED010A84ED64
:1049B000790A94F8080201280AD100E039E09DED57
:1049C000010ABDEEC00AB8EEC00A84ED770A0FE016
:1049D00094ED791AF0EE410A94ED7F1AB0EE410A97
:1049E00004F5C070FEF736FEB1EE400A84ED770A9A
:1049F000D4ED7B1AB0EE611AD4ED7C1AF0EE610AA8
:104A0000D4ED751AB0EE610A00F086F984ED750AEE
:104A1000D4ED7D1AB0EE611AD4ED7E1AF0EE610A83
:104A2000D4ED761AB0EE610A00F076F984ED760ADC
:104A300011E0207B02280ED1DDED010AB0EE600A04
:104A400084ED770ADDED030AC4ED750ADDED020A97
:104A5000C4ED760A00BF00BF18E7000000000000A8
:104A600018010020000034430000B443F6285C8F96
:104A7000C2A54CC010B5044604B910BD2046FFF7CE
:104A800011FC00BFF9E7000040F2651001F022FAC6
:104A90005B48FFF7CFFDB1E05A4890ED000A584857
:104AA00080ED190A574890ED010A554880ED1A0A21
:104AB000544890ED020A524880ED1B0A524890ED8E
:104AC000000A4F4880ED1C0A504890ED000A4C48FF
:104AD00080ED1D0A4B4890ED000A494880ED2B0AF5
:104AE000484890ED010A464880ED2C0A454890ED73
:104AF000020A434880ED2D0A434890ED000A4048E1
:104B000080ED2E0A414890ED000A3D4880ED2F0AC5
:104B10003C4890ED000A3A4880ED3D0A394890ED56
:104B2000010A374880ED3E0A364890ED020A3448C3
:104B300080ED3F0A344890ED000A314880ED400A8C
:104B4000324890ED000A2E4880ED410A2D4890ED44
:104B5000000A2B4880ED4F0A2A4890ED010A2848A8
:104B600080ED500A274890ED020A254880ED510A51
:104B7000254890ED000A224880ED520A234890ED26
:104B8000000A1F4880ED530A214890ED000A1C4896
:104B900080ED610A1E4890ED010A194880ED620A15
:104BA0001B4890ED020A164880ED630A194890ED03
:104BB000000A134880ED640A174890ED000A104877
:104BC00080ED650AFFF756FF0D48FFF793FD0C488F
:104BD000FFF784FC0A48FFF753FE0948FFF7A6FBDE
:104BE000074CB4F95C30B4F94820B4F93410B4F986
:104BF0002000FBF709FE022001F06CF94CE70000F1
:104C0000E04E0020E4000020FC0000200001002015
:104C1000F00000200401002008010020F1EE401AFD
:104C200071EEE01A2E4991ED002AB1EE422A2D498B
:104C3000D1ED002A32EE622AF7EE002A32EE622A25
:104C4000DFED292A22EE222A42EE011AC0ED001AD7
:104C500070EE601A224991ED002AB1EE422A2149F4
:104C6000D1ED002A32EE222AF7EE002A32EE622A35
:104C7000DFED1D2A22EE222A42EE011AC0ED011AB2
:104C800070EE201A164991ED002A1649D1ED002A3E
:104C900032EE222AF7EE002A32EE622ADFED122AE5
:104CA00022EE222A42EE011AC0ED021AF1EE401A5B
:104CB00071EEA01A0A4991ED002A0A49D1ED002AA5
:104CC00032EE622AF7EE002A32EE622ADFED062A81
:104CD00022EE222A42EE011AC0ED031A70470000AC
:104CE0000C01002010010020CDCC4C3E10B109B1C8
:104CF00002B103B970479FED070A80ED000A9FEDEE
:104D0000050A81ED000A9FED030A82ED000A00BF4B
:104D1000F0E7000000000000F0EE401AF4EEE01AA8
:104D2000F1EE10FA02D2B0EE600A7047F4EEC11A4A
:104D3000F1EE10FA02DDB0EE410AF6E7B0EE610ADC
:104D4000F3E70000014601F0030000EB4000024AD7
:104D500002EBC00070470000640400200048704768
:104D60001C0400201E4A1268012A07D100221C4B95
:104D70001A604A780B7842EA032202804288C28194
:104D80004A780B7842EA032212B24280CA788B78C2
:104D900042EA032212B202814A790B7942EA0322E3
:104DA00012B242818A790273B0F90220B0F90E3052
:104DB000D21A0261026912F5FA5F03DA4269521CE3
:104DC000426106E00269B2F5FA5F02DD4269521EF5
:104DD0004261B0F90230426903EB423242607047EF
:104DE000280000200048704758050020B4EEE01A63
:104DF000F1EE10FA00D27047B4EEC10AF1EE10FAEB
:104E00000EDD31EE602AF0EE421A03E030EE612A48
:104E1000B0EE420AB4EEC10AF1EE10FAF6DC13E08D
:104E2000B4EEE00AF1EE10FA0ED231EE602AF0EEA6
:104E3000421A03E030EE212AB0EE420AB4EEE00A54
:104E4000F1EE10FAF6D300BF00BFD4E7FCF7F4FF91
:104E5000FEF7CEFCFEF7B2FAFEF752FAFEF70CFAB6
:104E6000FEF732FBFEF714FBFEF768FBFEF726FAAF
:104E7000FEF748FBFEF7F2FAFBF77EFDFBF76EFD4F
:104E800000F088FE00F016F8FEF76EFA00F028F841
:104E900000BFFEE770B50546FFF782F910B16FF06D
:104EA000050404E0002415B1284601F013F820465B
:104EB00070BD000010B5FFF773F910B16FF0050475
:104EC00009E00648006820B9012004490860002470
:104ED00001E04FF0FF34204610BD00009C00002090
:104EE00070B5FFF75DF910B16FF005041FE01148D0
:104EF0000068012819D100BF801F0021002804DBB1
:104F00000A07130E0C4A135406E00A07150E0B4A43
:104F100000F00F031B1FD55400BF00BF022005493E
:104F2000086001F053F8002401E04FF0FF34204600
:104F300070BD00009C00002000E400E018ED00E0DF
:104F40002DE9FF4780468946144600200390FFF76D
:104F500027F900284ED1B8F1000F4BD08026182534
:104F60008246471E44B3206808B1D4F800A0A06967
:104F700000B1A5692DB1382D03D8207900F00100CA
:104F800018B1002004B0BDE8F087606908B160691D
:104F90008608A06840B1E0685C2805D3206918B194
:104FA000606908B1012708E0A06830B9E06820B95D
:104FB000206910B9002700E00027012F0CD12169DA
:104FC000A0684B463246CDE900510290514640461A
:104FD00001F0B0FC03900DE067B903A8B2B24B46F4
:104FE0005146CDE90050404601F072FC012801D045
:104FF000002003900398C5E72DE9F04105460E46D1
:105000001648076816480068001D00F0DBFD681CA4
:1050100038B936B112480168091D124800F028FE5F
:105020001AE07C190E4800684460BC4207D20C4864
:105030000168091D0C48006800F000FE0CE00848FB
:105040000168091D0948006800F0F8FD084800687B
:10505000844201D206480460BDE8F081600000206F
:105060004C000020700A0020540000205000002056
:105070007C00002010B5044600F006FE24480068BD
:10508000401C234908602348006840B92148046057
:105090000846006801280DD100F0FCF90AE01E481E
:1050A000006838B91B480068C06AE16A884201D8C4
:1050B0001848046019480068401C184908600846F0
:1050C000006860641649E06A0968884202D9144998
:1050D000E06A0860E16A01EB8101124A02EB81009B
:1050E000211D00F0C5FD00F0F9FD0B48006868B116
:1050F00008480068C06AE16A884207D24FF08050D1
:1051000009490860BFF34F8FBFF36F8F10BD0000D8
:105110005C0000204C000020680000207800002087
:1051200064000020C005002004ED00E008B500F098
:10513000ABFD12480068E8B9114800F06FFD114856
:1051400000F06CFD0E48104908600E480F490860D9
:1051500000200F4B0F4A102100900A2001F0B0F8F8
:10516000064908600846006820B10BA103480068A2
:1051700000F074FE00F0B2FD08BD000090000020B9
:10518000840A0020980A0020880000208C0000205B
:10519000AC0A0020FC0A0020546D7251000000008F
:1051A00010B516E000F070FD0C48C068C468201D02
:1051B00000F008FD0A480068401E094908600948D7
:1051C0000068401E0749086000F088FD204600F096
:1051D0005FF8044800680028E4D110BD5C0A002094
:1051E0005C0000205800002070B504460D46206C7D
:1051F00070B1216CE0680144E160D4E9021088429A
:1052000001D32168E1602846226CE168FBF7DFF8F2
:1052100070BD2DE9F04104460F4615464FF00008D9
:10522000A66B206C48B9206800282CD1A06801F03A
:1052300097FC80460020A06025E07DB93946226CAD
:105240006068FBF7C4F8216C606808446060D4E9CA
:105250000101884217D32068606014E03946226C4F
:10526000E068FBF7B4F8216CE068411AE16021685E
:10527000E068884203D2216CA068411AE160022DE7
:1052800001D106B1761E701CA0634046BDE8F081D6
:1052900010B5044694F8590030B9206B00F03CFD7D
:1052A000204600F039FD1AE094F85900012803D196
:1052B000204600F031FD12E094F85900022801D197
:1052C000012000E0002050B900BF502080F3118879
:1052D000BFF34F8FBFF36F8F00BF00BFFEE710BD5E
:1052E0000146084A126812680AB9012200E0002249
:1052F0000A600A6822B9034A1268D268106800E09E
:10530000002070478800002030B54FF470531748D4
:1053100000F007042CB1C01D20F00700134C041B43
:105320001B1B0246124C22600024114D6C60D018E9
:10533000083820F007000F4C206000240D4D2D6828
:105340006C600C4D2D682C601146441A4C60094C61
:1053500024680C60084D4C682C60084D4C682C602B
:105360004FF00044064D2C6030BD00005412002068
:10537000A0000020A8000020B0000020AC00002009
:10538000BC00002000BFFFF70BFF064800680128A3
:10539000F9D94FF0805004490860BFF34F8FBFF335
:1053A0006F8FF0E7C005002004ED00E02DE9F0412B
:1053B00006460D4617469846069C0DB9246000E047
:1053C0002760E66325640121204600F0E9FF84F8A8
:1053D0004C80BDE8F0812DE9F05F82460E46904694
:1053E0009B460A9F0C9C4FEA8801A522206BFBF785
:1053F00000F8A8F10100216B01EB800929F00709F1
:1054000009F0070008B9012000E0002050B900BFF2
:10541000502080F31188BFF34F8FBFF36F8F00BF11
:1054200000BFFEE786B1002507E0715D04F134009E
:105430004155705D00B902E06D1C102DF5D300BF21
:1054400000214320015502E0002084F83400382F69
:1054500000D33727E762E76400202065201D00F0B5
:10546000EAFB04F1180000F0E6FB2461C7F1380004
:10547000A06164620020606584F858005A46514675
:10548000484600F071FB20600B9808B10B9804604F
:10549000BDE8F09F10B5002407E004EB84010F4A3B
:1054A00002EB810000F0BAFB641C382CF5D30C48E9
:1054B00000F0B4FB0B4800F0B1FB0B4800F0AEFB72
:1054C0000A4800F0ABFB0A4800F0A8FB0448094971
:1054D000086004480849086010BD0000C0050020AD
:1054E000200A0020340A0020480A00205C0A00201C
:1054F000700A0020500000205400002010B5014622
:10550000164800E0006803688B42FBD302464368FC
:1055100013448B4204D143684C68234443600146E2
:105520000A464B6813440468A34211D10C4C03682B
:105530002468A34208D04B680468646823444B6025
:1055400003681B680B6005E0054B1B680B6001E0FE
:1055500003680B60884200D0016010BDA0000020ED
:10556000A80000202DE9F04104460D4616461F46CE
:105570004FF0000865602461B5420CD8F01BA169AA
:10558000884202D34FF0010811E0211D094800684C
:1055900000F054FB0BE0BE4204D2BD4202D34FF0F8
:1055A000010804E0211D0448006800F047FB404664
:1055B000BDE8F0818C0000208800002070B5054611
:1055C00000F062FBA86B08B9012400E0002400F0A1
:1055D00085FB204670BD70B5054600F055FBA86BF5
:1055E000E96B884201D1012400E0002400F076FB41
:1055F000204670BDF8B505460F461A480068C068D9
:10560000C468201D00F0DEFA94F8280000F00400C1
:10561000E8B1A06941192B463A462046FFF7A2FFA0
:10562000D8B1002003462A4601460090204601F0EA
:10563000F3FB064656B900BF502080F31188BFF334
:105640004F8FBFF36F8F00BF00BFFEE705E094F8F8
:10565000280020F0010084F828002046216A8847AD
:10566000F8BD000088000020F0B587B0A0E00398E6
:10567000002811DA04AE56B900BF502080F311881B
:10568000BFF34F8FBFF36F8F00BF00BFFEE7D6E9B8
:105690000020B168904700BF03980028E6DB059C16
:1056A000606908B9012000E0002010B9201D00F059
:1056B00089FA02A800F0DEF8054603980A2875D298
:1056C000DFE800F009050739416306083A4200BFE8
:1056D00000BF00BF00BF94F8280040F0010084F82C
:1056E00028000498A269811803462A462046FFF73D
:1056F00039FFF8B12046216A884794F8280000F065
:105700000400B8B1002000900498A1694218002359
:105710001946204601F080FB074657B900BF5020CC
:1057200080F31188BFF34F8FBFF36F8F00BF00BFAF
:10573000FEE700BF3BE000BF94F8280020F0010026
:1057400084F8280033E000BF94F8280040F00100FE
:1057500084F828000498A061A06908B1012000E045
:10576000002050B900BF502080F31188BFF34F8F45
:10577000BFF36F8F00BF00BFFEE7A06941192B4642
:105780002A462046FFF7EEFE11E094F8280000F0CC
:10579000020018B9204600F0BFFA05E094F828008E
:1057A00020F0010084F8280001E0FFE700BF00BFFF
:1057B000002203A90448006800F090FF00287FF44D
:1057C00056AF07B0F0BD000090000020F8B50546C8
:1057D0000C4600F057FC684600F04CF8064600986E
:1057E00020BB44B9B54206D801F058FA31462846E4
:1057F000FFF700FF1CE03CB10E480068006808B9E4
:10580000012000E000200446A91B22460A48006847
:1058100000F03AFB01F042FA50B94FF080500749CE
:105820000860BFF34F8FBFF36F8F01E001F036FACE
:10583000F8BD00008C0000209000002004ED00E086
:105840000A490968096809B9012100E0002121B16C
:105850004FF0FF31064A116006E004490968C96843
:10586000C868034A4168116070470000500000207A
:105870007C00002070B5044601F0CAF805460748D0
:105880000068854204D200F00BF80120206001E09E
:105890000020206001480560284670BD9800002067
:1058A0002DE9F84334E025480068C06805682348BE
:1058B0000068C068C468201D00F084F92046216A91
:1058C000884794F8280000F0040008B3A06946193E
:1058D000AE4207D966602461211D1848006800F0B7
:1058E000ADF915E0002003462A4601460090204607
:1058F00001F092FA074657B900BF502080F3118893
:10590000BFF34F8FBFF36F8F00BF00BFFEE700BF35
:105910000A480068006808B9012000E0002000285B
:10592000C1D00648D0F800800548006803490860E7
:105930000348C0F80080BDE8F8830000880000201C
:105940008C0000200E480068401C08B9012000E0CF
:10595000002050B900BF502080F31188BFF34F8F53
:10596000BFF36F8F00BF00BFFEE700BF502080F382
:105970001188BFF34F8FBFF36F8F00BF00BFFEE7EB
:10598000C000002008B500BF6846FFF7A9FC044628
:1059900020460099FFF71AFFFFF766FEF4E770B59F
:1059A000044600F071F994F9455010E0606A08B9B6
:1059B000012000E0002038B904F1240001F022F9B0
:1059C00018B100F0C1FA00E003E0681E45B2002DF6
:1059D000ECDC00BFFF2084F8450000F07FF900F008
:1059E00053F994F9445010E0206908B9012000E00F
:1059F000002048B904F1100001F004F908B100F0EA
:105A0000A3FA681E45B200E001E0002DECDC00BF07
:105A1000FF2084F8440000F061F970BD2DE9F041E9
:105A200004464FF0000800F02DFB4948006808B913
:105A3000FFF76AFC474800682040002870D1D4B1C5
:105A4000083404F00700B0B104F00700C0F108000A
:105A5000044404F0070008B9012000E0002050B918
:105A600000BF502080F31188BFF34F8FBFF36F8FBB
:105A700000BF00BFFEE7002C52D0374800688442C8
:105A80004ED8364E3046056801E02E462D686868CF
:105A9000A04202D228680028F7D12D48006885422C
:105AA0003ED0306800F10808286830606868001B44
:105AB000102819D92F1907F0070008B9012000E0B4
:105AC000002050B900BF502080F31188BFF34F8FE2
:105AD000BFF36F8F00BF00BFFEE76868001B7860F0
