:020000040800F2
:10000000F85400205D020008E12B00088928000850
:10001000492B0008E507000899330008000000009C
:100020000000000000000000000000009D0100082A
:10003000090A000800000000F9010008352D000839
:1000400077020008770200087702000877020008AC
:10005000770200087702000877020008770200089C
:10006000770200087702000877020008770200088C
:1000700041090008770200087702000877020008AB
:100080004D0900087702000877020008770200088F
:10009000E9070008770200087702000877020008E5
:1000A000770200087702000877020008770200084C
:1000B000770200087702000877020008770200083C
:1000C000770200087702000877020008770200082C
:1000D0007702000877020008013300088D3300081A
:1000E000770200087702000877020008770200080C
:1000F00077020008F52D0008770200087702000853
:1001000077020008770200087702000877020008EB
:1001100077020008770200087702000877020008DB
:1001200077020008590900087702000877020008E2
:1001300077020008770200087702000877020008BB
:10014000F507000877020008770200087702000828
:10015000770200087702000877020008770200089B
:10016000770200087702000877020008770200088B
:1001700077020008770200087702000800000000FC
:100180007702000877020008DFF80CD000F018FBB7
:1001900000480047793B0008F85400202C4B1968B0
:1001A0000868B0E8F04F80F30988BFF36F8F4FF015
:1001B000000080F3118870470000000008480068C4
:1001C000006880F308884FF0000080F3148862B65E
:1001D00061B6BFF34F8FBFF36F8F00DF00BF00BF6B
:1001E00008ED00E0DFF80C00016841F470010160E7
:1001F000704700BF88ED00E0EFF30980BFF36F8F19
:10020000134B1A681EF0100F08BF20ED108A20E96A
:10021000F04F106009B44FF0500080F31188BFF325
:100220004F8FBFF36F8F04F0A7FB4FF0000080F3F8
:10023000118809BC19680868B0E8F04F1EF0100F6B
:1002400008BFB0EC108A80F30988BFF36F8F704746
:1002500040000020EFF3058070470000064880470B
:1002600006480047FEE7FEE7FEE7FEE7FEE7FEE79B
:10027000FEE7FEE7FEE7FEE7E52D0008890100083E
:100280009FED1A1AF5EE000A40EE010ABDEEE00AF3
:10029000F5EEC00A10EE100AF1EE10FA38BF401E5B
:1002A00000EE100A1349F7EE001AB8EEC00A30EE5D
:1002B000C00ADFED0F0A20EE200AFCEEC00A10EEA5
:1002C000900AC0F3080000EE900A01EB8000F8EEFF
:1002D000600A90ED011A70EE600A90ED000A71EE6E
:1002E000E01A21EE800A00EE810A704783F9223E6F
:1002F0000000004478540008DFED190AB5EEC00A8A
:1003000060EE200ABDEEE01A11EE100AF1EE10FACE
:1003100038BF401E00EE100A1349F7EE001AB8EE7F
:10032000C00A30EEC00ADFED0F0A60EE200ABCEE14
:10033000E00A10EE100AC0F3080000EE100A01EB0C
:100340008000B8EE400A90ED011A70EEC00A90ED00
:10035000000A71EEE01A21EE800A00EE810A704771
:1003600083F9223E00000044785400082DE9F05F34
:100370000546002092469B46884606468146402414
:100380001BE0284641464746224600F074F9534692
:100390005A46C01A914110D311461846224600F021
:1003A0005BF92D1A67EB01084F4622460120002118
:1003B00000F052F917EB00094E41201EA4F1010490
:1003C000DFDC484631462A464346BDE8F09F40EA16
:1003D00001039B0703D009E008C9121F08C0042AC3
:1003E000FAD203E011F8013B00F8013B521EF9D2AA
:1003F0007047D2B201E000F8012B491EFBD27047D2
:100400000022F6E710B513460A4604461946FFF7E0
:10041000F0FF204610BD2DE9FE4F81EA030404F0F1
:10042000004421F0004100944FF0000B23F0004302
:1004300050EA01045ED052EA03045BD0C3F30A54CD
:10044000C1F30A552C44A4F2F3340194A0FB0254E6
:10045000C1F3130141F48011C3F3130343F4801378
:1004600001FB024400FB034E840A970A44EA8154CC
:1004700047EA8357A4FB076802958D0A05FB0785A9
:100480004FEA932C04FB0C542705029D4FEA0658B3
:1004900047EA1637B5EB08056EEB070C870E920E90
:1004A00047EA811742EA8312A7FB0201B6EB0B0170
:1004B00064EB00042B0D43EA0C335E1844EB1C5034
:1004C000DA465146E7FB0201C5F313044FEA0B334A
:1004D00043EA14534FEA0432019C43EA0603A4F1B1
:1004E0000C040294009CCDE900B400F01AF903B0AA
:1004F000BDE8F08F00200146F9E72DE9F04D81EAD3
:10050000030404F0004B21F0004514464FF0000AAC
:1005100023F0004150EA050220D054EA01021DD028
:10052000C5F30A570246C5F31303C1F31300C1F321
:100530000A5640F4801543F48013A7EB0608101BFD
:10054000D64608F2FD3873EB050002D308F1010826
:1005500001E092185B41B8F1000F03DA0020014678
:10056000BDE8F08D00204FF48011064684460EE071
:10057000171B73EB050705D3121B63EB050306433B
:100580004CEA010C49084FEA300092185B4150EAEE
:100590000107EDD152EA030012D082EA040083EA97
:1005A0000501084305D0101BAB4106D201220023F0
:1005B00006E000224FF0004302E06FF0010253100A
:1005C0001AEB06004CEB085110EB0A0041EB0B0153
:1005D000BDE8F04D00F096B80EB5C10F80EAE070AE
:1005E0000844CA07002140F233438DE80E000A4652
:1005F0000B4600F096F803B000BD00F0004230F06A
:1006000000400AD0C10D01F56071C0F3160042EA46
:100610000151C2084007114370470020014670474E
:1006200001F0004330B421F0004150EA010206D04D
:100630000A0DA2F56072C1F31301002A02DC30BC7E
:1006400000207047440F44EAC104C100E01830BCE8
:1006500000EBC25000F01FB8202A04DB203A00FA59
:1006600002F1002070479140C2F1200320FA03F309
:10067000194390407047202A04DB203A21FA02F007
:100680000021704721FA02F3D040C2F120029140CC
:100690000843194670470029A8BF7047401C49000D
:1006A00008BF20F00100704710B4B0FA80FC00FAD7
:1006B0000CF050EA010404BF10BC704749B1CCF102
:1006C000200421FA04F411FA0CF118BF012121438E
:1006D0000843A3EB0C01CB1D4FEA00614FEA102049
:1006E00042BF002010BC704700EBC35010440029EB
:1006F000A4BF10BC7047401C490008BF20F0010097
:1007000010BC704710B5141E73F1000408DA401CC9
:1007100041F1000192185B411A4301D120F0010020
:1007200010BD2DE9F04D92469B4611B1B1FA81F210
:1007300002E0B0FA80F220329046FFF78DFF0446C7
:100740000F4640EA0A0041EA0B0153465A46084365
:1007500013D0114653EA010019D0C8F140025046A7
:10076000FFF789FF05460E46504659464246FFF7B9
:1007700073FF084305D0012004E020463946BDE858
:10078000F08D0020054346EAE0762C4337430A9873
:100790006305E40AA0EB08000022FD0A44EA47547E
:1007A0000A3002D500200146E9E701051019694128
:1007B000DDE9084500196941BDE8F04DA2E70000F8
:1007C000064C074D06E0E06840F0010394E807009E
:1007D00098471034AC42F6D3FFF7DAFC9C5C000873
:1007E000BC5C0008FEE70000014800F07CBB000094
:1007F00004010020014800F076BB00002C0100201D
:1008000038B50E4C4FF4007525600025A560E560F5
:10081000082525610A4C050A25706070080AA07039
:10082000E170100A20716271180AA071E3716B46C1
:1008300022460249034800F0F7F938BDCC030020F6
:10084000180000200401002010B500682B4AB0F504
:10085000017F1FD02EDC40F20124A0F20123A04230
:1008600018D013DC642839D0962836D100200B5CD0
:100870001354401CC0B20728F9D32049204800F087
:100880005FF90520BDE8104000F0C0B8012B01D091
:10089000022B22D11B4C401EC0B2184A207000EB24
:1008A0004000603A02EBC00003F012F92078401CCF
:1008B000C0B2E7E7A0F5007005380FD0012813D0CB
:1008C000022814D0FB2808D108200B1813F8083C84
:1008D0001354401CC0B20F28F7D310BD0748A838E6
:1008E00003F0F6F80020CDE70448903801E0034813
:1008F0007838BDE8104003F0EBB80000A4040020F5
:10090000360500201000002010B502F065FD0448F7
:1009100000F016FDBDE810400221014800F072B958
:100920002C01002010B502F06FFD044800F008FD16
:10093000BDE810400221014800F064B90401002024
:10094000014800F08BBD0000C4020020014800F007
:1009500085BD000064020020014800F07FBD00005A
:100960002403002001681823CAB2103AB2FBF3F244
:10097000054B6FF30901032A9B5CC36500D9091D70
:1009800081650846704700004054000810B50146D4
:1009900000208B698A6A4FF0C07453B1B3F5005FD1
:1009A00015D072B1012A0CD0022A0AD0032A09D12B
:1009B00004E01AB1012A06D0022A03D1C96AC9018A
:1009C00000D5012010BDC96AA142FAD010BD002A8D
:1009D000F7D0012AF2D0022AF3D0032AF3D010BDB7
:1009E00030B50468256825F48025256004686360B7
:1009F0008368402B036803D099600068C26030BDF3
:100A00009A600068C16030BD7047000010B50446B0
:100A100004F038FB024A04EB04111144086010BDD5
:100A20009050002070B50C46054604F02BFB0146A3
:100A3000034805EB051210440160846070BD00009E
:100A400090500020044900EB00100844007B01286E
:100A500000D0002070470000905000204FF47A74BE
:100A600021460020FFF7DEFF21460120FFF7DAFFD5
:100A700021460220FFF7D6FF21460320FFF7D2FFD1
:100A800021460420FFF7CEFF21460520FFF7CAFFCD
:100A90000A2003F0BDFE174F0026002504F0F2FAED
:100AA00005EB0511CC192168884203D204F0EAFA5B
:100AB000401E206004F0E6FA2168401A6060A168D8
:100AC00088420CD9D4F80D00401CC4F80D00B0F5D4
:100AD000FA7F07D9C4F80D600120207302E0C4F842
:100AE0000D6026736D1CEDB2062DD7D3022003F0E6
:100AF0008FFED2E79050002072B6FEE70F4B10B584
:100B0000B0EE000A83ED000A90ED000A1C7883ED38
:100B1000000A4CB1D878885488189C784470597869
:100B200081701978C17010BD1878885488185C7865
:100B3000447099788170D978F4E70000C4000020EF
:100B400030B50A784B7842EA0322C2F30A020280E7
:100B50004A788B78D20842EA4312C2F30A024280F2
:100B60008A78CB78920942EA83020B7942EA83229F
:100B7000C2F30A0484800A794B79520842EAC3120C
:100B8000C2F30A03C3804A79C2F3011282724D791B
:100B9000AD09C5721A4D012A03D0032A01D0022AD9
:100BA00000D16A608A79CD7942EA052282810A7A87
:100BB0004D7A42EA0522C2818A7ACD7A42EA05223A
:100BC00002820A7B82744A7BC2748A7BCD7B42EAB2
:100BD000052282820A7C497CA4F5806442EA0121D4
:100BE0000288A3F58063A2F5806202804288A1F5A5
:100BF0008061A2F5806242808480C380018130BD23
:100C00002800002090F82020012A07D0022A05D0D1
:100C1000416A41F4802141620120704700684269C5
:100C20000A43426100207047F0B590F820500468F4
:100C3000A468012D05D0022D03D0416A41F4802122
:100C400053E014F0406F01D1E5004BD5C4F30164CB
:100C5000022C03D9416A41F4000146E00125A54078
:100C60001D608D684FF4C0739DB1CE6835434E68EA
:100C700045EAC605066803EB0417F5514FF4C27543
:100C8000076805EB04150E697E51097D012905D021
:100C900009E00E88CD6845EA4655EBE701684E59F4
:100CA00046F480764E511179D2F805504FF4C6764D
:100CB00041EA0525016806EB04168D511178D2F83A
:100CC00001204FF4C47541EA0221026805EB0415C6
:100CD0005151006803EB0411425842F001024250A6
:100CE0000020F0BD416A41F4001141620120F0BDD5
:100CF00010B590F82020012A07D0022A05D0416AB9
:100D000041F480214162012010BD3B48D0F800220F
:100D100042F00102C0F80022D0F8002222F47C52F6
:100D2000C0F80022D0F800224B6A42EA0322C0F841
:100D300000220A7D02F01F0301229A40D0F81C32E3
:100D40009343C0F81C32CB69B3B9D0F80C3293434B
:100D5000C0F80C328C894B6864F31F434C6900EB7C
:100D6000C404C4F840320C890B6864F31F434C6917
:100D700000EBC404C4F84432CB69012B16D1D0F87F
:100D80000C321343C0F80C320C884B6864F31F43D9
:100D90004C6900EBC404C4F840320C89CB6864F39E
:100DA0001F434C6900EBC404C4F844328B69002B28
:100DB000D0F804320ED01343C0F804320B69002B74
:100DC000D0F8143208D01343C0F81432096A01294C
:100DD00004D008E09343EFE79343F5E7D0F81C1203
:100DE0001143C0F81C12D0F8001221F00101C0F824
:100DF0000012002010BD000000640040704730B5B4
:100E000090F82040012C05D0022C03D0416A41F417
:100E100080215DE00468002955D02469A40754D0DE
:100E20004FF4D874056804EB01142D5915F004052E
:100E3000956005682D594ED0ED08556005682C5910
:100E400004F00204D4604FF4DA74056804EB011472
:100E50002D5905F00F05156105682D59C5F30725B6
:100E6000956105682C59240C54614FF4DC720468B8
:100E700002EB0112A4581C700468A458240A5C7088
:100E80000468A458240C9C700468A258120EDA70EE
:100E90004FF4DE72046802EB0112A4581C7104685E
:100EA000A458240A5C710468A458240C9C7104683A
:100EB000A258120EDA71006881B1016941F0200177
:100EC0000161002030BDE468A8E7416A41F40011E7
:100ED0004162012030BD6D0D1560AFE7C16841F082
:100EE0002001C160EDE72DE9F05F054600680024B0
:100EF0004669D0F804908768D0F80CB0D0F810A0FC
:100F0000D0F81880F10748D0F90714D0012181608A
:100F1000B80703D5284600F040FA0CE0780702D560
:100F20004FF4006407E0380702D54FF4805402E024
:100F3000284600F031FAF80516D529684FF480707C
:100F40008860B80503D5284600F029FA0CE078053A
:100F500002D544F4005407E0380502D544F4804437
:100F600002E0284600F01AFAF80316D529684FF473
:100F700080308860B80303D5284600F012FA0CE0F0
:100F8000780302D544F4004407E0380302D544F462
:100F9000803402E0284600F003FA300707D55FEA04
:100FA000CB6004D52968102044F40074C860700731
:100FB0004FF0080707D55FEA0B7004D52868C760B3
:100FC000284600F093F9B00706D52868C068800766
:100FD00002D0284600F08CF9700607D55FEACA6097
:100FE00004D52968102044F480640861B00607D550
:100FF0005FEA0A7004D528680761284600F09CF96A
:10100000F00606D528680069800702D0284600F05F
:1010100094F9B00308D55FEAC96005D529681020A6
:101020004860284600F08AF9F00307D55FEA0970A6
:1010300004D528684760284600F0B4F9300446D546
:101040005FEA497040D5F00504D55FEAC87001D069
:1010500044F00104B00504D55FEA887001D544F07E
:101060000204700504D55FEA487001D544F0040419
:10107000300529D518F0700F26D008F070004028F0
:1010800015D006DC102809D020280AD0302816D127
:101090000AE050280ED0602811D10EE044F0080478
:1010A0000DE044F010040AE044F0200407E044F0AE
:1010B000400404E044F0800401E044F480742868B3
:1010C000816921F070018161296804204860002C49
:1010D00005D0686A204368622846FFF78FFEBDE8A6
:1010E000F09F70B5040003D094F8200010B104E024
:1010F000012070BD204600F081F82068016841F0B1
:101100000101016000F014FC0546052604E000F032
:101110000FFC401B0A2811D820684068C007F6D091
:101120002068016821F00201016000F001FC054621
:101130000BE000F0FDFB401B0A2806D9606A40F472
:101140000030606284F82060D2E720684068800741
:10115000EFD4207E0128206801683DD021F0800175
:101160000160607E01282068016838D021F04001CC
:101170000160A07E01282068016833D021F02001A1
:101180000160E07E0128206801682ED041F0100146
:101190000160207F01282068016829D021F0080122
:1011A0000160607F01282068016824D021F00401DB
:1011B0000160D4E902010843D4E904121143084351
:1011C0006168491E08432168C861002060620120EF
:1011D00084F82000002070BD41F08001C0E741F09C
:1011E0004001C5E741F02001CAE721F01001CFE737
:1011F00041F00801D4E741F00401D9E7F0B587B028
:10120000044614216846FFF7FBF8334B3348DFF8F8
:10121000C4E01968D4F800C0304A03250226092723
:1012200010300024491CF4451DD11960012907D153
:10123000016841F000710160006800F000700590E5
:10124000106840F0080010601068CDE9005600F00A
:101250000800CDE9047069462148CDE9024500F057
:101260006FFA07B0F0BDDFF87CE0F445F9D1D0F8B3
:1012700000C04CF0806CC0F800C0D0F800C001295C
:101280000CF0806CCDF814C0196007D1016841F0F2
:1012900000710160006800F000700590106840F077
:1012A00002001060106802AB00F0020005904FF4DD
:1012B0008250CDE9000683E8B00069460A4800F094
:1012C0003FFA00220521402000F0D0FB402000F032
:1012D000BFFBC6E7006400400C000020303802402D
:1012E000000C02400068004000040240704700000B
:1012F00010B504460E488AB0844209D107AB6A464D
:1013000000212046FFF77BFD07A96846FFF79CFAFE
:101310000848844209D107AB6A4600212046FFF7FE
:101320006EFD07A96846FFF78FFA0AB010BD0000EE
:10133000040100202C010020704770477047000016
:1013400070B5044690F82000012804D0606A40F48B
:101350000020606218E0022084F820002068016804
:1013600021F00101016000F0E3FA05460EE000BF44
:1013700000F0DEFA401B0A2808D9606A40F4003009
:101380006062052084F82000012070BD206840685C
:10139000C007EDD1606270BD7047704770477047FD
:1013A0007047704770472DE9F0410446876D00F0A3
:1013B000BFFA064694F835000025022806D08020A2
:1013C000606584F834500120BDE8F0812068016830
:1013D00021F0160101602068416921F0800141611E
:1013E000206C08B9A06C20B12068016821F00801C8
:1013F00001602068016821F0010101600CE000F04B
:1014000097FA801B052807D920206065032084F8FF
:10141000350084F83450D7E720680068C007EED163
:1014200094F85C103F208840B860012084F83500B3
:1014300084F834500020C7E790F83510022903D013
:101440008021416501207047052180F83510006832
:10145000016821F001010160002070472DE9F84387
:1014600004464FF00009CDF8009063484FF4165140
:10147000A56D0068B0FBF1F72E6894F85C100820A9
:1014800000FA01F131420FD021680A6852070BD5EA
:101490000A6822F004020A6094F85C108840A86090
:1014A000606D40F00100606594F85C104FF0010839
:1014B00008FA01F0304208D021684969090604D5CC
:1014C000A860606D40F00200606594F85C10042034
:1014D0008840304208D021680968890704D5A8608F
:1014E000606D40F00400606594F85C101020884046
:1014F000304218D021680968090714D5A86020680F
:101500000168490304D50068000308D5A16C07E011
:101510000168C90503D4016821F008010160216C4C
:1015200009B12046884794F85C102020884030425A
:1015300031D021680968C9062DD5A86094F8350016
:1015400005282068016806D0490347D500680003D4
:101550001DD4616C1CE021F0160101602068416916
:1015600021F080014161206C08B9A06C20B1206895
:10157000016821F00801016094F85C103F20884068
:10158000A86084F8358084F83490216D1FE0E16B09
:1015900009B120468847606D00282BD0606DC007D8
:1015A00014D0052084F835002068016821F001017D
:1015B00001600098401C0090B84203D82068006881
:1015C000C007F6D184F8358084F83490E16C0029A6
:1015D00010D001B02046BDE8F04308470168C905B6
:1015E000D5D4016821F01001016084F8358084F8B9
:1015F0003490CCE7BDE8F8833C0000202DE9F041B1
:10160000044600F095F906465CB1022084F83500E6
:10161000002584F834502068016821F00101016040
:101620000DE00120BDE8F08100F082F9801B052863
:1016300005D920206065032084F83500F2E7206892
:101640000068C007F0D12268116820480140D4E941
:1016500001031843D4E9033633431843636918433D
:10166000A3691843E3691843236A18430843616A6E
:10167000042903D1D4E90B131943084310602068EF
:101680004069666A20F0070130460E4301270428AE
:101690000CD1A06A0643E06A40B12046FFF776F914
:1016A00020B14020606584F83570BAE72068466153
:1016B0002046FFF757F994F85C203F219140816064
:1016C000656584F835700020ACE700003F8010F0BD
:1016D0002DE9F0410446866D90F83400002501287C
:1016E0000DD0012084F8340094F835700020012FCB
:1016F00007D084F8340002252846BDE8F081022096
:10170000FBE7022784F8357060652046FFF768F92B
:1017100094F85C103F208840B0602068016841F078
:1017200016010160206C20B12068016841F00801B9
:1017300001602068016841F001010160DCE7000000
:101740002DE9F84FDFF8BCA10022012503264FF058
:101750000F090AF1040BAAF1040E00BF0B6805FA89
:1017600002F42340A34270D10F7907F00307012F41
:1017700001D0022F16D187684FEA420806FA08FC0A
:1017800027EA0C07D1F80CC00CFA08FC4CEA070C4D
:10179000C0F808C04768A7430C79C4F3001494400C
:1017A0003C4344600C79E443A4070AD0C4684FEA80
:1017B000420C06FA0CF7BC438F6807FA0CF7274374
:1017C000C7600C7904F00304022C12D1D40800EB9A
:1017D000840CDCF820405707FF0E09FA07F824EACA
:1017E0000804D1F8108008FA07F848EA0408CCF891
:1017F000208004684FEA420C06FA0CF7BC430F79CC
:1018000007F0030707FA0CF7274307604C6814F446
:10181000403F70D03C4C276847F4804727602468DD
:1018200022F0030704F480440094384C07EB040CC6
:10183000DCF8084897074FEA177809FA08F7BC431D
:10184000334FB84202D1002724E054E0314FB84270
:1018500001D101271EE0304FB84201D1022719E023
:101860002E4FB84201D1032714E02D4FB84201D1C9
:1018700004270FE02B4FB84201D105270AE02A4F79
:10188000B84201D1062705E0284FB84201D1072709
:1018900000E0082707FA08F72743CCF80878DAF8B9
:1018A00000405746D1F804C09C435FEACC2C00D5D9
:1018B0001C433C60DBF800405F46D1F804C09C4309
:1018C0005FEA8C2C00D51C433C60DEF80040774674
:1018D000D1F804C09C435FEA8C3C00D51C433C60BB
:1018E000084F083F3C68D1F804C09C435FEACC3CF9
:1018F00000D51C433C60521C102AFFF42FAFBDE8FA
:10190000F88F0000083C014044380240003001409C
:10191000000002400004024000080240000C0240A7
:10192000001002400014024000180240001C024057
:10193000014880687047000030000020024881683C
:101940000278114481607047300000200B4810B5C8
:10195000016841F400710160016841F48061016037
:10196000016841F480710160032000F09FF80020BD
:1019700000F006F800F050F8002010BD003C0240D6
:1019800030B505461F4887B00024016841F48071D6
:101990000160006806A900F48070009001A800F0C2
:1019A00031F90498A8B100F04DF940001649174AE2
:1019B000B0FBF1F11648491E026040F2E732C0E97F
:1019C0000324C0E90114846100F044FB040003D047
:1019D00015E000F037F9E9E70D4800F069FB040075
:1019E0000DD12D2000F034F8102D07D20022294609
:1019F0002D2000F03BF80748056000E0012407B007
:101A0000204630BD4038024040420F0000200040D8
:101A100084030020340000200C4882B0016841F4A7
:101A200080410160006800F4804000900748001F7A
:101A3000016841F0805101600068002200F0805090
:101A400000900F21901E02B000F010B84438024000
:101A5000002809DB00F01F020121914040098000AD
:101A600000F1E020C0F8001170470000F0B40E4B08
:101A70001B680C46C3F30223C3F10705042D00D9EC
:101A80000425191D072901D2002300E0DB1E0126D1
:101A900006FA05F1491E214099409E40761E1640E7
:101AA0003143F0BC01F079BC0CED00E0064900F0D8
:101AB000070208684FF6FF03184040EA0220034A75
:101AC00010430860704700000CED00E00000FA05CC
:101AD0002DE9F0470E46050065D0DFF81481D8F8EF
:101AE0000000F7B200F00700B04207D288F800709B
:101AF000D8F8000000F00700B04254D128683D4CEF
:101B0000810712D5400703D5206840F4E0502060DB
:101B10002878000703D5206840F4604020602068E2
:101B2000A96820F0F000084320602878C0072DD075
:101B3000304968680839012812D0022813D00328D8
:101B400011D00968890700292DDA216821F00301E5
:101B500001432160FFF7ECFE814641F2883A0EE036
:101B600009688903EFE709688901ECE7FFF7E0FE00
:101B7000A0EB0901514502D90320BDE8F087206898
:101B8000696800F00C00B0EB810FEFD1D8F80010BD
:101B9000404601F00701B14207D90770006800F024
:101BA0000700B04201D00120E7E72878400705D5BB
:101BB0002068E96820F4E050084320602878000796
:101BC00006D52068296920F4604040EAC100206001
:101BD00000F058F82168084AC1F30311515CC8406D
:101BE0000649086006480068FFF7CAFE0020C4E7FF
:101BF000003C024008380240485400083C000020E5
:101C0000340000200F2202600C4A136803F0030323
:101C10004360136803F0F0038360136803F4E05338
:101C2000C36012684FF4E05303EAD2020261044831
:101C3000006800F0070008607047000008380240A4
:101C4000003C02400448054900680968044AC1F3A1
:101C50008221515CC84070473C0000200838024097
:101C6000585400080448054900680968044AC1F34B
:101C70004231515CC84070473C00002008380240A7
:101C800058540008154810B5006810F00C021448AC
:101C900013D04110042A0FD0082A0ED10F4C241F54
:101CA0002268236802F03F025B0207D52068C0F378
:101CB0008810A0FB010106E0084610BD2168C1F3B1
:101CC0008811A1FB00010023FEF750FB2168C1F33E
:101CD0000141491C4900B0FBF1F010BD0838024039
:101CE0000024F4002DE9F84F04006ED02078DFF8CE
:101CF0004C93C007A9F104054AD009F1040001681A
:101D0000C1F38101012908D00068C0F381000228D5
:101D10000AD1D9F80000400206D52868800337D5DB
:101D200060680028E1D033E06068B0F5803F10D0F3
:101D3000B0F5A02F286810D020F4803028602868E3
:101D400020F4802028606068A8B1FFF7F1FD064606
:101D50000DE0286840F48030F4E740F480202860EB
:101D6000F7E700BFFFF7E4FD801B642873D82868FD
:101D70008003F7D50CE0FFF7DBFD064605E000BF6A
:101D8000FFF7D6FD801B6428F0D828688003F7D4BD
:101D90002078DFF8AC8280074FF0000A3ED5A748D4
:101DA000001D016811F00C0F08D00068C0F381001D
:101DB00002280BD1D9F80000400207D42868800718
:101DC00016D5E068012800D112E033E1E068B8B12F
:101DD0000120C8F80000FFF7ABFD064605E000BF94
:101DE000FFF7A6FD801B0228C0D828688007F7D51A
:101DF0002868216920F0F80040EAC10028600DE061
:101E0000C8F800A0FFF794FD064604E0FFF790FD38
:101E1000801B02281FD828688007F7D42078000785
:101E200022D5864F87486169703771B10121016001
:101E3000FFF77EFD064604E0FFF77AFD801B0228CF
:101E400009D838688007F7D50EE0C0F800A0FFF782
:101E50006FFD064605E082E0FFF76AFD801B022861
:101E60007DD838688007F7D42078400768D5DFF838
:101E7000CCB100270BF13C0BDBF80000C0000BD409
:101E8000DBF8001041F08051CBF80010DBF80000C7
:101E9000012700F0805000906B4E3068C00510D4D0
:101EA000306840F480703060FFF742FD009005E03C
:101EB000FFF73EFD0099401A022850D83068C0054F
:101EC000F6D55E4EA0686C3601280FD00528306824
:101ED00010D020F001003060306820F00400306045
:101EE000A068B8B1FFF724FD00900FE0306840F023
:101EF0000100F4E740F004003060F7E7FFF718FD59
:101F00000099411A41F28830814266D830688007D2
:101F1000F4D50EE0FFF70CFD009007E0FFF708FD99
:101F20000099411A41F28830814256D830688007C2
:101F3000F4D42FB1DBF8001021F08051CBF8001061
:101F4000A069C8B33D49091D0968C1F3810102298F
:101F50004AD00228504607D0C8F8600000E03CE0B4
:101F6000FFF7E6FC04463BE04746C8F86000FFF791
:101F7000DFFC064605E000BFFFF7DAFC801B022805
:101F80002BD828688001F7D4D4E907010843A16A57
:101F90002E4A490802EB0141626A41EA8211084374
:101FA00094F82C1040EA0161C9F80010012038664D
:101FB000FFF7BEFC044606E03EE000BFFFF7B8FCBA
:101FC000001B022809D828688001F7D534E000BF3B
:101FD000FFF7AEFC001B022802D90320BDE8F88FF2
:101FE00028688001F4D427E00128F7D0D9F8000050
:101FF000E26900F4800191421CD1226A00F03F01A5
:10200000914217D147F6C071626A0140B1EB821F5D
:1020100010D1A26A4FF0FF3300F4403103EB5202BB
:10202000B1EB024F06D194F82C1000F07060B0EBC9
:10203000016F01D00120D1E70020CFE70438024032
:1020400000004742800E4742007000400000FFFF42
:102050007047704710B5040003D094F83D0010B1EC
:1020600007E0012010BD002084F83C00204600F06D
:102070001EF8022084F83D00211D206800F0C0FEFB
:10208000012084F8460084F83E0084F83F0084F87C
:10209000400084F8410084F8420084F8430084F84A
:1020A000440084F8450084F83D00002010BD7047CE
:1020B00090F83D10012901D001207047022180F8DD
:1020C0003D100168CA6842F00102CA600068114907
:1020D000884214D0B0F1804F11D00F4988420ED001
:1020E0000E4988420BD00E49884208D00D498842DB
:1020F00005D00D49884202D00C49884204D181683C
:1021000001F00701062903D0016841F001010160D7
:10211000002070470000014000040040000800401B
:10212000000C004000040140004001400018004045
:10213000704770B50446006801694FF00005C94357
:10214000890715D4C168C943890711D4E91E016103
:1021500001202077206880698007204602D0FFF7A1
:10216000E7FF04E000F098F8204600F096F82577A5
:1021700020680169C943490717D4C168C9434907A1
:1021800013D46FF004010161022020772068806978
:1021900010F4407F204602D0FFF7CAFF04E000F0B1
:1021A0007BF8204600F079F8257720680169C9435B
:1021B000090716D4C168C943090712D46FF0080192
:1021C0000161042020772068C0698007204602D082
:1021D000FFF7AEFF04E000F05FF8204600F05DF886
:1021E000257720680169C943C90617D4C168C94366
:1021F000C90613D46FF01001016108202077206810
:10220000C06910F4407F204602D0FFF791FF04E040
:1022100000F042F8204600F040F825772068016978
:10222000C943C90708D1C168C943C90704D1891E78
:102230000161204600F032F820680169C9430906AF
:1022400009D4C168C943090605D46FF08001016152
:102250002046FFF7FDFE20680169C943490609D4FD
:10226000C168C943490605D46FF0400101612046A9
:1022700000F01EF820680169C94389060BD4C168C3
:10228000C943890607D46FF0200101612046BDE8EB
:102290007040FFF7DEBE70BD7047704700680349AD
:1022A000884201D1FFF74ABB704700000020004080
:1022B0007047704770470000F8B501680446086829
:1022C000CA684B6910F00F0F4FF0000559D003F0AA
:1022D000010602F49077374365D0C10705D0D105D8
:1022E00003D5216C41F001012164410705D5D907CF
:1022F00003D0216C41F002012164810705D5D90783
:1023000003D0216C41F004012164010707D502F0DC
:102310002001314303D0216C41F008012164216C7C
:1023200000293AD0800604D5900602D5204600F058
:102330007BFE20684069216CC0F38010090700D43F
:1023400060B3204600F03BFE20684069400621D57E
:102350002068143050E8001F21F0400140E80012CE
:10236000002AF5D1A06BA8B16C490165A06BFFF7FD
:1023700063F8002811D0A06B016D01B0BDE8F040FA
:10238000084783060FD593060DD52046BDE8F840D3
:1023900000F04ABE2046FFF78DFFF8BD2046FFF74C
:1023A00089FF2564F8BD266B2023012E79D1C6064E
:1023B00077D5D60675D50868486800904869400604
:1023C00040D5A16B086840680004000CEAD0A28DDB
:1023D0008242E7D9E085C869B0F5807F2DD02068BA
:1023E0000C3050E8001F21F4807140E80012002AF0
:1023F000F5D12068143050E8001F21F0010140E8B9
:102400000012002AF5D12068143050E8001F21F096
:10241000400140E80012002AF5D184F83E302563DF
:1024200020680C3050E8001F21F0100140E8001235
:10243000002AF5D1A06BFEF7B6FFA08DE18D401A02
:1024400081B229E0A08DE18D401A81B2E08D002893
:10245000A8D00029A6D020680C3050E8002F22F424
:10246000907240E80026002EF5D12068143050E824
:10247000002F22F0010240E80026002EF5D184F85A
:102480003E30256320680C3050E8002F22F0100207
:1024900040E80023002BF5D12046FFF70AFFF8BDE6
:1024A000FFE705062BD5150629D594F83D00212810
:1024B000F5D1A068B0F5805F01D12069B0B1206A84
:1024C000411C2162216800784860E08C401E0004B5
:1024D000000CE084E3D12068C16821F08001C16074
:1024E0002068C16841F04001C160D8E7206A0088D7
:1024F000C0F308004860206A801C2062E5E74006BF
:10250000CDD55006CBD5CA68204622F04002CA601D
:1025100084F83D3000F0B7F9C1E70000C92E00088B
:1025200070B5040004D094F83D00002510B106E019
:10253000012070BD84F83C50204600F023F8242090
:1025400084F83D002068C16821F40051C160204634
:1025500000F0CAFD2068016921F490410161206802
:10256000416921F02A0141612068C16841F40051AC
:10257000C1602564202084F83D0084F83E000020DE
:1025800070BD00002DE9F04F87B005461421684664
:10259000FDF736FF78487749D5F800C00024DFF80A
:1025A000D8911438022203230726DFF8D0B18C45D6
:1025B0001ED1D9F8005045F01005C9F80050D9F8DF
:1025C000001001F010010591016841F00101016066
:1025D0000068694600F00100059058028DE815007A
:1025E000CDE903365846FFF7ABF807B0BDE8F08FEA
:1025F0006149DFF88C81091F0F154FF0006AC4454F
:1026000043D1D1F800C04CF4003CC1F800C00968C7
:1026100001F400310591016841F001010160016898
:1026200001F001010591016841F0080101600068B5
:10263000CDE9024300F0080005900420CDE9000236
:1026400091469846694604965846FFF779F8402027
:10265000CDE90009CDE90248694604964948FFF7EB
:102660006FF84A4E48483060C6E901A4C6E90347FE
:1026700080157461C6E906404FF44030C6E908048D
:10268000304670E0AE63B563AFE7DFF80481C44560
:102690003AD1D1F800C04CF4802CC1F800C00968D0
:1026A00001F480210591016841F002010160006898
:1026B000694600F0020005904FF440608DE8150077
:1026C000CDE903363348FFF73BF8304E2E486036ED
:1026D00060383060C6E901A4C6E903477461B4619B
:1026E000F461346230467462FEF788FF08B1FEF789
:1026F00003FAAE63002211462720B563FFF7B6F94F
:102700002720FFF7A5F970E723498C45BCD1D9F8FC
:10271000006046F02006C9F80060D9F8001001F00A
:1027200020010591016841F00401016000686946DB
:1027300000F004000590C0208DE815000820CDE9C8
:1027400003301648FEF7FCFF104E1548C0363060C7
:102750008005C6E90104C6E903477461B461F46108
:10276000346230467462FEF749FF00288AD0FEF7D3
:10277000C3F987E7001001404438024000000240DE
:1027800000440040000C02408860024064020020C7
:1027900000480040000402400014014000080240CC
:1027A0002864024090F83E30202B0ED159B152B12E
:1027B00090F83C30012B08D0012380F83C300023F6
:1027C000036300F017BD0120704702207047704777
:1027D000704700002DE9F843044690F83D001F467D
:1027E00016460D4620284CD1C5B1BEB194F83C0028
:1027F000012846D0012084F83C004FF00008C4F8BE
:102800004080212084F83D00FFF792F8A68481469D
:10281000E684A068B0F5805F03D004E00120BDE845
:10282000F883206928B12E465FF0000584F83C80CB
:102830000EE00026FAE78021204600F025FDA0B931
:10284000AEB116F8010B21684860E08C401EE084B0
:10285000E08C4B464FF0000200970028EBD14FF080
:102860004001204600F010FD30B10320D7E735F8D5
:10287000020BC0F30800E6E7202084F83D000020AA
:10288000CDE70220CBE77047FEE7B5EEC00AF1EED8
:1028900010FA12D1D0ED0A0A90ED050AF4EEC00A42
:1028A000F1EE10FA06DCB1EE400AF4EEC00AF1EEE9
:1028B00010FA01D280ED0A0A704710EE101AB1F139
:1028C0007E5FF9D1D0ED080A90ED040AF4EEC00A5B
:1028D000F1EE10FA06DCB1EE400AF4EEC00AF1EEB9
:1028E00010FAE9D280ED080A704700000F4810B5D1
:1028F0000D4901600321416000214FF400228160F5
:10290000C0E903124FF440124261017641768176AC
:10291000C17601774177FEF7E4FB002803D0BDE8DC
:102920001040FEF7E9B810BD00640040040100202B
:102930000F4810B50D4901600321416000214FF49B
:1029400000228160C0E903124FF440124261017617
:1029500041768176C17601774177FEF7C2FB002888
:1029600003D0BDE81040FEF7C7B810BD00680040B6
:102970002C010020114808B5016841F400110160E4
:10298000016801F400110091016841F480010160C7
:102990000068002200F48000009005210C20FFF761
:1029A00065F80C20FFF754F8002205213920FFF7C5
:1029B0005DF8BDE808403920FFF74AB830380240DA
:1029C00010B50B4A00210B4801F04AF90A4C084A9D
:1029D000002120602432094801F042F9044A606075
:1029E00048320021064801F03BF9A06010BD00000C
:1029F000D45300083139000800000020112D0008D0
:102A00005D0A0008154808B5016841F080010160C1
:102A1000016801F080010091016841F0010101604D
:102A2000016801F001010091016841F002010160BB
:102A3000016801F002010091016841F004010160A8
:102A4000016801F004010091016841F00801016092
:102A5000006800F00800009008BD00003038024017
:102A60000C4810B50A4901604FF4E1314160002182
:102A700081600822C160C0E904128161C161FFF771
:102A80004FFD002803D0BDE81040FEF735B810BD5B
:102A900000100140540100200D4810B50B490160A1
:102AA0000C49416000214FF480628160C0E903124B
:102AB0000C22C0E90521C161FFF732FD002803D0D7
:102AC000BDE81040FEF718B810BD000000440040FB
:102AD00098010020A08601000C4810B50A49016049
:102AE0004FF4E1314160002181600C22C160C0E9F6
:102AF00004128161C161FFF713FD002803D0BDE816
:102B00001040FDF7F9BF10BD00480040DC01002077
:102B10000C4810B50A4901604FF4E13141600021D1
:102B200081600C22C160C0E904128161C161FFF7BC
:102B3000F7FC002803D0BDE81040FDF7DDBF10BD55
:102B40000014014020020020FEE700002DE9F041C2
:102B50002148224D00262DED060B34460422017833
:102B60002970407868700920A870EE702946684680
:102B7000FDF7C4FF0822294601A8FDF7BFFF0C227C
:102B8000294602A8FDF7BAFF1022294603A8FDF73F
:102B9000B5FF1422294604A8FDF7B0FF18273A46CE
:102BA000294605A8FDF7AAFF1C21EF70285D641CCB
:102BB0004640E4B28C42F9D307486E54801C491C4D
:102BC00002786A54491C407868540448491C00F053
:102BD00097F806B0BDE8F081C0000020204E00202C
:102BE000FEE7000000B5DFED271A020047D092EDA6
:102BF000101A82ED111A92ED0F1A82ED101AC2ED21
:102C0000060A82ED070A30EEC00A82ED0F0AD2ED05
:102C1000010A60EE800AC2ED090AD2ED0A0A92EDBD
:102C2000022A42EE000A30EE410AC2ED0A0AD2ED53
:102C30000D0AC2ED0E0AD2ED0C0AC2ED0D0A82EDAC
:102C40000C0AD2ED030A20EE800A82ED0B0AB0EEE8
:102C5000610AFFF71AFE92ED090AD2ED0A0A104640
:102C600030EE200AD2ED0B0A30EE200A82ED080A7F
:102C7000B7EE000AFFF709FE92ED080A00BDB0EEBC
:102C8000610A00BD00000000002828D0002A26D0DC
:102C9000017092ED001A80ED011A92ED011A80ED9B
:102CA000021A92ED021A80ED031A80ED040A9FEDDC
:102CB0000C0AC0ED050A80ED0E0A80ED0D0A80EDCC
:102CC0000C0A80ED080A80ED0B0A80ED0A0A80EDFF
:102CD000090A80ED110A80ED100A80ED0F0A704795
:102CE00000000000054A1268D36843F01003D36067
:102CF0000A4601460148FFF755BD00009801002033
:102D00008AB201460A230148FFF764BD2002002071
:102D1000F7EE002AB7EE002AF7EE001AB7EE001A17
:102D2000F7EE000AB7EE000AFFF710FF0A2000F0E6
:102D30005CFFEDE710B54FF0E020006902F094F978
:102D4000012803D0BDE8104001F0C2BE10BD000054
:102D500030B593B030216846FDF752FB14210CA822
:102D6000FDF74EFB1D480025016841F080510160D0
:102D7000006800F0805011901948016841F48041CA
:102D800001600068022400F480401190012003904B
:102D900010200490009406940820CDE90750A82044
:102DA000CDE9090404200B906846FEF79BFF08B1AB
:102DB00072B6FEE70CA90F2081E831004FF4A05055
:102DC0000F904FF48050109005210CA8FEF780FE64
:102DD000002801D072B6FEE713B030BD4038024083
:102DE000007000400248016841F4700101607047C2
:102DF00088ED00E00148FFF79CB900008403002043
:102E0000F0B50268254C264D264E274F274B4FF034
:102E1000804CA04209D0604507D0A84205D0B042FE
:102E200003D0B84201D0984204D122F0700E4A6813
:102E300042EA0E02A0421BD0604519D0A84217D02A
:102E4000B04215D0B84213D0984211D0184DA842C4
:102E50000ED0184DA8420BD0174DA84208D0174DE0
:102E6000A84205D0164DA84202D0164DA84203D163
:102E700022F44075CA682A434D6922F080022A4331
:102E800002608A68C2620A688262A04201D09842E7
:102E900001D10969016301214161F0BD00000140D8
:102EA0000004004000080040000C00400004014005
:102EB000004001400044014000480140001800402B
:102EC000001C00400020004010B5806B0021C1852F
:102ED000C184FFF7EFF910BD70B5846B20684069BD
:102EE00094F83D10C0F3C0100025212904D118B179
:102EF000E584204600F08AF82068406994F83E1086
:102F0000C0F38010222904D118B1E585204600F0D5
:102F100056F8206C40F0100020642046FFF7CAF9F4
:102F200070BD10B50146806B09680968C9052FD4CA
:102F30000021C18501680C3151E8002F22F4807214
:102F400041E80023002BF5D10168143151E8002F2E
:102F500022F0010241E80023002BF5D10168143171
:102F600051E8002F22F0400241E80023002BF5D168
:102F7000202180F83E10016B012909D101680C3134
:102F800051E8002F22F0100241E80023002BF5D178
:102F9000016B012902D0FFF71AFC10BD818DFFF7EC
:102FA00088F910BD10B5806B016B012902D0FFF7C5
:102FB0000FFC10BD818D4908FFF77BF910BD01683A
:102FC0000C3151E8002F22F4907241E80023002BCD
:102FD000F5D10168143151E8002F22F0010241E8D7
:102FE0000023002BF5D1016B012909D101680C31B7
:102FF00051E8002F22F0100241E80023002BF5D108
:10300000202180F83E1000210163704701680C31D7
:1030100051E8002F22F0C00241E80023002BF5D137
:10302000202180F83D10704708B590F83E10222905
:1030300001D0022008BD82684FF480539A4201D12A
:10304000016921B1816A9A421BD04AB10AE0026843
:10305000816A5268C2F308020A80816A891C08E00A
:10306000026972B10268526802F07F020A70816AD6
:10307000491C8162C18D491E0904090CC18503D018
:1030800019E002685268F1E70168CA6822F020027C
:10309000CA600168CA6822F48072CA6001684A691D
:1030A00022F001024A61202180F83E10016B0129C3
:1030B00003D0FFF78CFB002008BD002101630168ED
:1030C0000C3151E8002F22F0100241E80023002BC0
:1030D000F5D101680A68D20602D50A6849680091EC
:1030E000818DFFF7E6F8E6E770B5044600680169F0
:1030F000E26821F44051114301612169A068E2694D
:1031000008436169114308432168CA6849F20C63A6
:103110009A430243CA6020684169A26921F4407160
:103120001143416131492068884202D030498842C8
:1031300002D1FEF797FD01E0FEF784FDE26900236E
:10314000192164253226B2F5004F626828D0A0FB11
:103150000101930F9200FDF709F90146B0FBF5F06C
:103160006FF01802504301EB800006EB0010B0FB3B
:10317000F5F000F0F002B1FBF5F002EB0012B1FB4C
:10318000F5F06FF01803584301EB800006EB0010D8
:10319000B0FBF5F000F00F0021681044886070BDAE
:1031A000A0FB010192185B41FDF7E0F80146B0FB7E
:1031B000F5F00201B1FBF5F06FF01803584301EB95
:1031C000800006EBC000B0FBF5F000F0F80002EB69
:1031D0004002B1FBF5F0584301EB800006EBC00064
:1031E000B0FBF5F000F00700D6E70000001001404A
:1031F0000014014038B581628285002513460446DB
:103200000564222084F83E00A26B1C48D063A26BA8
:103210001B481064A26B1B48D064A06B0A4605656E
:103220002168A06B091DFEF753FA20680168406809
:10323000009084F83C50206948B120680C3050E878
:10324000001F41F4807140E80012002AF5D1206887
:10325000143050E8001F41F0010140E80012002A3C
:10326000F5D12068143050E8001F41F0400140E8DB
:103270000012002AF5D1002038BD0000232F0008DD
:10328000A52F0008D92E00082DE9F04198461746D1
:103290000E460446069D27E0681C25D02DB1FEF79A
:1032A00047FBA0EB0800A8421ED920680C3050E86C
:1032B000001F21F4D07140E80012002AF5D12068E7
:1032C000143050E8001F21F0010140E80012002AEC
:1032D000F5D1202084F83D0084F83E00002084F8D9
:1032E0003C000320BDE8F0812068006836EA000059
:1032F00004D00020B842CFD00020F3E70120F9E746
:1033000038B51E4C20680168C90635D5C168C906A4
:1033100032D501684168016841680091016821F077
:1033200010010160A06B0068016821F001010160DB
:10333000A06B0068406812490880124901F18000C2
:10334000FDF7FEFB0520FDF761FB80220D492046BD
:10335000FFF728FA2068C16841F01001C1600A49EE
:103360003D20C860A16B802009684860A06B0068A0
:10337000016841F00101016038BD000098010020A2
:1033800028000020B6040020006002400148FEF73B
:1033900093BF0000DC010020FEE70907090E0028AA
:1033A00004DB00F1E02080F80014704700F00F000B
:1033B00000F1E02080F8141D704702E008C8121FD9
:1033C00008C1002AFAD170477047002001E001C10E
:1033D000121F002AFBD1704700B58BB001210020DD
:1033E000CDE90601089100900E21CDE9040101907C
:1033F00002900390099169460248FDF779FC0BB0F1
:1034000000BD00002C01002000B58BB00020012180
:10341000CDE906010891009001900290039005907B
:1034200004900E20099069460248FDF761FC0BB03C
:1034300000BD0000040100202DE9F04100282DED21
:10344000028B1DD000291BD0002A19D0002B17D0C9
:103450001B4F9FED1C8A3C7864B1012C0AD0022CD2
:1034600012D0042C0CD1BDEC028B1A46BDE8F04101
:1034700000F060B980ED008A81ED008A82ED008A5B
:10348000BDEC028BBDE8F081154680460C461E4619
:103490001A4600F04FF958EA04000AD09FED0A0AD4
:1034A00087ED010A96F80802012805D085ED008A0B
:1034B000E6E79FED060AF3E785ED000AE0E7000086
:1034C000C80000200000000000000C42000048423C
:1034D0002DE9F04104001ED0206800260227807AE2
:1034E000104D032804D0022805D0012805D005E09E
:1034F0000420287002E02E7000E02F700520FDF7F8
:10350000A1FA08B12E7008E0287830B1022807D05F
:10351000042800D12773BDE8F08103202073FAE767
:103520002673F8E7C80000207FB500260546009600
:103530000196029605F5EA710396344691EC030A6A
:10354000684600F071FA287B032831D06E460228C5
:1035500038D000282BD100BF06EB8400D0ED000A44
:1035600004EB840005EB8000C0ED070A90ED060A2D
:1035700004EBC40005EBC0006030FFF733FB641CB4
:10358000E4B2042CE8D3002000EBC00105EBC1013C
:1035900000EB800291ED200A05EB8202401CBDEE9B
:1035A000C00AC0B2042810EE101A1184ECD37FBDFB
:1035B00004EB840005EB8000641CE4B20684042C58
:1035C000F6D37FBD06EB8400D0ED000A04EB840047
:1035D00005EB8000C0ED070A90ED060A04EBC4007D
:1035E00005EBC0006030FFF7FDFA641CE4B2042C68
:1035F000E8D3002000EBC00105EBC10100EB800225
:1036000091ED200A05EB8202401CBDEEC00AC0B25B
:10361000042810EE101A1184ECD37FBD10B50400FD
:103620002FD00021DFED170AB3EE0E0AF3EE031AD6
:1036300001EB810004EB8000491C0269C9B2042936
:10364000B2F9082001EE102AB8EEC11A21EE202AA4
:1036500082EE001A81EE212A80ED062AE8D3606806
:103660009FED0A1A08494068A0F6AC5000EE100A17
:103670004861F8EEC00A80EE810A00F08BFF84ED0D
:103680007F0A10BDDB0F4940D0000020610BB6411E
:1036900070B5040040D00320207300F045FA20608C
:1036A00000F012FA1D4E00256060284600F002FA74
:1036B00005EB850104EB8101194A086105EBC500A2
:1036C00004EBC00096EC020A00216030FFF7DCFA40
:1036D0006D1CEDB2042DE8D3114AD6ED030A96ED28
:1036E000020A0C32002104F5C070FFF7CDFA9FEDFD
:1036F0000D0A204684ED7B0A9FED0B0A84ED7C0ABF
:103700009FED0A0A84ED7D0A9FED090A84ED7E0A89
:10371000BDE87040FFF782BF70BD0000D000002000
:103720006054000800005C4200005CC200002042BF
:10373000000020C22DE9F0410E462DED028B074618
:10374000002A3ED0002F3CD0002E3AD01068B0F9AD
:10375000024004F10A01152900D20024B0F90050FA
:1037600005F10A00152800D200252046FCF734FF99
:103770009FED161B53EC112BFCF74DFE9FED158BA7
:1037800053EC182BFCF7B9FEFCF74AFF804628469D
:10379000FCF722FF9FED111B53EC112BFCF73BFEB6
:1037A00053EC182BFCF7A9FEFCF73AFF2C4305D18C
:1037B0009FED0C0A86ED000A87ED000AC7F800802D
:1037C0003060BDEC028BBDE8F0810000000000001D
:1037D000000039400000000000A08440000000000C
:1037E000000034400000000030B504002DED028BD5
:1037F00083B01DD09FED470A03468DED000A8DED85
:10380000010A8DED020A02AA01A96846FFF714FE1B
:10381000207B88B102280BD19DED020A84ED770A46
:103820009DED000A84ED750A9DED010A84ED760A8E
:1038300003B0BDEC028B30BD94ED7F0A364DB5EE82
:10384000C00AF1EE10FA04D310EE100A3349884290
:1038500002DC85ED060A09E010EE100A30498842C4
:1038600004DCDFED300A30EEC00AF2E7A869FCF7AD
:10387000C4FE9FED2D1B53EC112BFCF73EFEFCF715
:10388000CFFE00EE100A85ED060AFCF735FDF0EEDE
:10389000400A95ED060AB0EE608AFCF7F1FCDDED1A
:1038A000001A9DED011A60EE210A48EE410AC4EDAE
:1038B000750A68EE210A40EE010AC4ED760ADDEDD4
:1038C000020AC4ED790A94F8080201281DD094ED8B
:1038D0007F0A04F5C070FFF785F9B1EE400A00BF1A
:1038E00084ED770A94ED7B1AD4ED7C0A94ED750A89
:1038F00000F0D0F884ED750A94ED7D1AD4ED7E0ABF
:1039000094ED760A00F0C6F890E7BDEEE00AB8EE56
:10391000C00AE5E700000000D000002000003443AA
:103920000000B4430000B443F6285C8FC2A54CC02D
:1039300040F2651000F06CFF3948FFF7A9FE394EE0
:10394000374CA6F11C0505F1280700BF96ED000ACB
:1039500004F59E7084ED190AD6ED010AC4ED1A0A29
:1039600096ED021A84ED1B1AD5ED001AC4ED1C1A4F
:1039700095ED012A84ED1D2A84ED2B0AC4ED2C0A55
:1039800084ED2D1AC4ED2E1A84ED2F2A84ED3D0A04
:10399000C4ED3E0A84ED3F1AC4ED401A84ED412A7D
:1039A00080EC050A97ED000A1D4884ED610A97ED49
:1039B000010A84ED620A97ED020A84ED630A95ED2F
:1039C000020A84ED640A95ED030A84ED650AFFF7A7
:1039D0007FFD1348417B027B91420AD011B11AB19D
:1039E000022905D0022A03D190ED7F0A80ED7A0AE0
:1039F00042730B48FFF712FE0948FFF7F5FE08482F
:103A0000FFF792FDB4F95C30B4F94820B4F93410F2
:103A1000B4F92000FCF7F4FE022000F0F9FE95E76F
:103A2000844E0020EC0000201849F1EE401A71EE9F
:103A3000E02A91ED042AF7EE001A32EE613A9FED8A
:103A4000142A23EE023A43EE012A30EE603AC0ED2A
:103A5000002AD1ED042A72EEE13AF1EE622A72EE0A
:103A6000E11A63EE823A61EE821A03EE813A80ED4A
:103A7000013A30EE203A30EEC00A01EE813A01EE12
:103A8000810A80ED023A80ED030A7047D0000020E1
:103A9000CDCC4C3EB4EEE00AF1EE10FA02D2B0EE1C
:103AA000600A7047B4EEC10AF1EE10FAF9DDB0EE2B
:103AB000410A704700F00300024900EB400001EBAF
:103AC000C00070474404002000487047FC030020F9
:103AD000144A10B55368012B04D1002353600A889F
:103AE00052BA0280B0F90230C3810A8852BA12B2C7
:103AF00042804C88D31A64BA04818C8813F5FA5F2B
:103B000064BA4481897901730361416901DA491C0E
:103B100003E0B3F5FA5F01DD491E416102EB41317B
:103B2000416010BD1000002000487047360500209D
:103B3000B4EEE01AF1EE10FA0FD371EE601AB4EEA3
:103B4000C10AF1EE10FA03DC08E000BF30EE610AB2
:103B5000B4EEC10AF1EE10FAF8DC7047B4EEE00AF8
:103B6000F1EE10FA02D3704730EE210AB4EEE00A0B
:103B7000F1EE10FAF8D37047FDF7E8FEFFF7E8F82A
:103B8000FEF740FFFEF7F6FEFEF7B0FEFEF784FFFD
:103B9000FEF766FFFEF7BCFFFEF7CAFEFEF79CFFCE
:103BA000002205212620FDF761FF2620FDF750FFAA
:103BB000002205211420FDF759FF1420FDF748FFCE
:103BC000002205211020FDF751FF1020FDF740FFD6
:103BD000FCF7A8FEFCF798FE00F0D6FC00F012F807
:103BE000FEF7EEFE00F020F8FEE710B5EFF30581DA
:103BF00011B16FF0050403E0002408B100F008FEE5
:103C0000204610BDEFF3058010B16FF0050070473E
:103C10000448016811B14FF0FF3070470121016085
:103C2000002070479000002010B5EFF3058010B120
:103C30006FF0050010BD08480168012902D04FF05F
:103C4000FF3010BD054A002182F8141D02210160D9
:103C500000F046FE002010BD900000200BE000E0C8
:103C60002DE9FF414FEA01034FF00005EFF3058115
:103C7000039549BB40B38027182100244AB3166836
:103C800006B1344696691EB13146761E382E02D2F0
:103C90001679F60703D0002004B0BDE8F08156691C
:103CA00006B1B708D2F808C0BCF1000F0DD0D56836
:103CB0005C2D18D312693AB136B18DE806103A4638
:103CC000214601F0A6F903900DE0D6685EB91269AD
:103CD0004AB903AACDE90012BAB2214601F06CF943
:103CE000012800D003950398D6E700002DE9F041A4
:103CF000134C0F460546E6682068001D00F054FC92
:103D0000681C07D137B12168BDE8F0410D48091D95
:103D100000F09ABC20683544B5424560216805D260
:103D2000A06BBDE8F041091D00F076BC606B091D79
:103D300000F072FCA06A854200D2A562BDE8F08165
:103D4000400000203C0A00202DE9F041054600F02B
:103D500087FC2D4CA068401CA06020682B4F10B140
:103D6000606930B32BE02560A068012827D10026C8
:103D700006EB860007EB800000F040FC761C382E36
:103D8000F6D3234800F03AFC2148143000F036FC0A
:103D90001F48283000F032FC1D483C3000F02EFC5B
:103DA0001B48503000F02AFC194860631430A063AF
:103DB00005E02068E96AC06A884200D82560606A28
:103DC000401C60626864E86A2169884200D9206109
:103DD00000EB800007EB8000291D00F035FC00F0AF
:103DE0005FFC606900280CD02068E96AC06A8842DC
:103DF00007D208494FF080500860BFF34F8FBFF3E0
:103E00006F8FBDE8F0810000400000208C0500208D
:103E1000EC09002004ED00E038B500F021FC104C66
:103E20002068C8B90F4800F0E9FB0E48143000F0D4
:103E3000E5FB0C48E060143020610A4B0020F03BA9
:103E4000009003F1500210210A2000F057FE20607C
:103E500010B105A100F0A6FCBDE8384000F020BC80
:103E60007C000020400B0020546D725100000000C7
:103E700030B4026C0B46002A0BD0C1681144C160FB
:103E80008468A14201D30168C16030BC1846FCF7C8
:103E90009EBA30BC70472DE9F041856B1746044649
:103EA0000026026C82B1C7B1E068FCF790FAE168C5
:103EB000206C091AE1602268914202D2A168081AB6
:103EC000E060022F16D017E02068A8B9A06801F0C2
:103ED00043F906460020A0600EE06068FCF777FA20
:103EE000216C606808446060A168884204D320683F
:103EF000606001E005B16D1E6D1CA5633046BDE834
:103F0000F08110B5044690F8590058B101280CD042
:103F100002280FD0502080F31188BFF34F8FBFF3DA
:103F20006F8FFEE7206B00F0CFFB2046BDE810400E
:103F300000F0CABB10BD000010484FF4705142079A
:103F400006D0C01D0D4920F00700411AC1F570517F
:103F50000B4A00230144C2E900030839183A21F052
:103F6000070111604B600B600B1AC0E900139360EE
:103F70004FF0004053605061704700002012002055
:103F8000AC000020144E154CA6F29C474FF0805810
:103F9000DFF84C9012E000BF00F062FBF068C568EB
:103FA000281D00F001FBA068401EA0606068401E54
:103FB000606000F075FB2846FFF7A3FF60680028EB
:103FC000EAD138680128F9D9C9F80080BFF34F8FCA
:103FD000BFF36F8FF2E70000280A002040000020A6
:103FE00004ED00E070B51D46049C51B1C4F80020FA
:103FF000C4E90F010121204600F0B4FD84F84C50C3
:1040000070BD2460F4E700002DE9F05F8846DDE92B
:104010000B941546834691009A460A9EA522206B72
:10402000FCF7E7F96FF00301206B01EB8501084411
:1040300020F00707780707D0502080F31188BFF3DE
:104040004F8FBFF36F8FFEE70025B8F1000F0FD041
:104050005FF00000221818F8001082F8341018F8E9
:10406000001011B1401C1028F4D384F8435001E033
:1040700084F83450382E00D33726E662C4E913653D
:10408000201D00F0C6FA04F1180000F0C2FA246105
:10409000C6F138006462A061656584F858505246E4
:1040A0005946384600F05AFA2060B9F1000F01D0A5
:1040B000C9F80040BDE8F09F30B5114900E0114655
:1040C0000A688242FBD34B685C18844203D1406883
:1040D00018444860084643681C18944209D1084CAB
:1040E000183C2468A24209D052681A4442600A6807
:1040F00012680260814200D0086030BD0460F9E7B8
:10410000AC00002070B5002441600B4D006191426D
:1041100006D8D11A8269914206D2011D286907E0AA
:104120009A4203D2994201D3012403E0011DE868B9
:1041300000F072FA204670BD7C00002010B50446E5
:1041400000F08EFAA06B28B15FF0000400F0A8FA2E
:10415000204610BD0124F9E730B589B03C4D6EE032
:104160000498002806DADDE90601059A90470498CC
:10417000002864DB069C606910B1201D00F014FA71
:1041800003A800F0D7F8024604980A2857D2DFE8BF
:1041900000F00505052D334A05052D3394F8280058
:1041A00040F0010084F828000599A069059B0144AE
:1041B0002046FFF7A7FF68B3216A2046884794F896
:1041C000280040073BD5002000900598A1690023F6
:1041D00042181946204601F0C9F8D8B9502080F39A
:1041E0001188BFF34F8FBFF36F8FFEE714F8280FCE
:1041F00020F00100207022E094F8280040F0010037
:1042000084F828000598A06128B18118134620463B
:10421000FFF778FF13E0502080F31188BFF34F8F32
:10422000BFF36F8FFEE794F82800810703D4204680
:1042300000F04AFA03E020F0010084F82800002290
:1042400004A9286800F0E2FD002889D109B030BD3A
:104250007C0000202DE9FC410F46054600F084FB60
:1042600001A800F067F80446019818B100F0ECFFCF
:10427000BDE8FC81254EAFB130690068D0B300279E
:10428000291B3A46306800F0A1FA00F0DDFF002853
:10429000EED11F494FF080500860BFF34F8FBFF33E
:1042A0006F8FE5E7A542EBD800F0CEFFF068274618
:1042B000C068C468201D00F077F994F82800410711
:1042C00019D5A0692B4641193A462046FFF71AFF37
:1042D000A8B100200346014600902A46204601F07E
:1042E00045F860B9502080F31188BFF34F8FBFF3BA
:1042F0006F8FFEE707E020F0010084F82800216AB4
:1043000020468847B4E70127BAE700007C00002078
:1043100004ED00E00648416B096829B1416BC968AA
:10432000C9684968816270474FF0FF31FAE70000C1
:104330004000002070B5054600F0A4FE064E04467D
:10434000B068844203D200F009F8012000E00020A8
:1043500028602046B46070BD7C000020F8B5194D7F
:1043600020E0C068C4680668201D00F01DF9216ABD
:104370002046884794F82800400713D5A0693044A8
:10438000B04206D924616060211DE86800F044F95C
:1043900008E000200346014600903246204600F027
:1043A000E5FF38B1E86801680029DAD12969C5E973
:1043B0000310F8BD502080F31188BFF34F8FBFF377
:1043C0006F8FFEE77C00002008484068401C4FF0DB
:1043D000500080F3118804D0BFF34F8FBFF36F8F6D
:1043E000FEE7BFF34F8FBFF36F8FFEE7B4000020EF
:1043F000074CE068016841B1C0680021D0F80000B6
:10440000FFF728FFFFF7A8FEF3E701210020F7E7F9
:104410007C0000202DE9F041044600F021F994F9D8
:10442000455004F1240609E0606A48B1304600F0C6
:10443000D3FE08B100F01AFA6D1E6DB2002DF3DC48
:104440004FF0FF3684F8456000F02AF900F008F9D3
:1044500094F9445004F1100709E0206948B1384646
:1044600000F0BAFE08B100F001FA6D1E6DB2002D29
:10447000F3DC84F84460BDE8F04100F011B90000BD
:104480002DE9F0410546002700F06EFA324E306803
:1044900008B9FFF751FD706905424ED1C5B3083523
:1044A00068070ED005F00700C0F108000544680752
:1044B00007D0502080F31188BFF34F8FBFF36F8F69
:1044C000FEE72DB37068854237D82348183001467F
:1044D0000C6801E020460C466168A94202D22168BE
:1044E0000029F7D131688C4227D007682168016024
:1044F00060680837411B10290FD96019420708D09E
:10450000502080F31188BFF34F8FBFF36F8FFEE70A
:1045100013E041606560FFF7CFFD61687068401A85
:104520007060B268904200D2B060706901430020B0
:10453000C4E90001F068401CF06000F085FE7807D7
:1045400007D0502080F31188BFF34F8FBFF36F8FD8
:10455000FEE73846BDE8F0819400002010B5031F47
:104560004FF080741C601B1F21F001011960191F9E
:10457000044B0B6014390A60091F6FF002024438C3
:104580000A6010BDC943000880210148FEF7AABB9C
:10459000B60400209FED021ADFED020AFFF7C8BA49
:1045A00000003443000034C3D0E9013201699A604D
:1045B000D0E901235A604A68824201D182684A6088
:1045C000002202610868401E086008687047000009
:1045D000034B036003F15C000860802010607047AB
:1045E000680B0020044B036003F15C0008604FF48B
:1045F0008070106070470000C40D002000F10801B9
:104600004FF0FF32C0E90112C16001610021016079
:10461000704700210161704730B50B685A1C02D009
:1046200000F1080202E0026904E0224654682568AD
:104630009D42FAD953684B6099608A605160086165
:104640000168491C016030BD42684A6093688B6014
:1046500093685960916008610168491C0160704766
:10466000502080F31188BFF34F8FBFF36F8F0A493B
:104670004868401C486001280CD10848006810F0C8
:10468000FF0F07D0502080F31188BFF34F8FBFF387
:104690006F8FFEE770470000B400002004ED00E0DB
:1046A0000849486828B1401E486001D180F311884C
:1046B0007047502080F31188BFF34F8FBFF36F8F87
:1046C000FEE70000B400002070B500282AD0164D87
:1046D000A0F1080460686969084207D1502080F39E
:1046E0001188BFF34F8FBFF36F8FFEE722683AB197
:1046F000502080F31188BFF34F8FBFF36F8FFEE719
:104700008843606000F030F9606869680844686058
:104710002046FFF7D1FC2869401C2861BDE87040A5
:1047200000F092BD70BD0000940000204FF0E0202A
:1047300000210161816105494FF47A720968B1FB7A
:10474000F2F1491E41610721016170473C000020E0
:1047500010B5FBF77FFD114910280ED300F1E020C2
:1047600090F8F0030A78904207D2502080F3118825
:10477000BFF34F8FBFF36F8FFEE70948006889686A
:1047800000F4E060884207D9502080F31188BFF31D
:104790004F8FBFF36F8FFEE710BD0000B400002005
:1047A0000CED00E010B5084B002200BF53F832407A
:1047B0001CB1521C082AF9D310BD43F8321003EB88
:1047C000C201486010BD00004C05002070B51546C0
:1047D0000E460446FFF744FF94F944100020491C9C
:1047E00001D184F8440094F94510491C01D184F8A2
:1047F0004500FFF755FFA06B28B92A46314604F162
:10480000240000F051F82046BDE87040FFF702BEDA
:1048100010B5020014D00F48006B38B1502080F35F
:104820001188BFF34F8FBFF36F8FFEE700F09CF846
:1048300000211046FFF75AFA00F006FD002807D1C4
:1048400005494FF080500860BFF34F8FBFF36F8F63
:1048500010BD00004000002004ED00E002490A6A9B
:104860000260C96841607047400000200149012092
:10487000C86170474000002010B50C4650B109498E
:1048800009681831FFF7C8FE2046BDE81040012135
:10489000FFF72CBA502080F31188BFF34F8FBFF37E
:1048A0006F8FFEE74000002070B514460D4668B1DA
:1048B0000A4909681831FFF7C7FE0CB14FF0FF3500
:1048C00021462846BDE87040FFF710BA502080F31B
:1048D0001188BFF34F8FBFF36F8FFEE740000020BA
:1048E00030B587B00024039405AA04A903A8049452
:1048F000FFF76EFEDDE903010094CDE9011000230E
:1049000015A11748059A00F084FB164D0028E862AF
:104910001FD000F0FBFC012809D0401C19D1502009
:1049200080F31188BFF34F8FBFF36F8FFEE75020E6
:1049300080F31188BFF34F8FBFF36F8F4FF0FF30BD
:10494000A86201206861EC6007B0BDE8304000F06B
:1049500045B807B030BD000049444C450000000098
:10496000853F0008400000200248016B491C01639C
:104970007047000040000020164810B5016B11B1CF
:104980000121C16110BD0021C1610169124A01E02C
:10499000B9B1491E01EB810352F82330002BF7D047
:1049A00001EB810302EB830202F1080453685B68A8
:1049B0005360A34201D15B685360DA680260016111
:1049C00010BD502080F31188BFF34F8FBFF36F8F5E
:1049D000FEE70000400000208C0500201CB5374891
:1049E0000168374A914207D1502080F31188BFF304
:1049F0004F8FBFF36F8FFEE700683149491E884231
:104A000007D1502080F31188BFF34F8FBFF36F8F12
:104A1000FEE72C4908780190FF20087008788DF88F
:104A200000009DF800009DF8002000F0F00090428A
:104A300007D0502080F31188BFF34F8FBFF36F8FE3
:104A4000FEE79DF80000204C00F050002070072089
:104A5000A06005E09DF8002052008DF80020401E67
:104A60009DF800201206F5D4A060032807D050203E
:104A700080F31188BFF34F8FBFF36F8FFEE74FF4C2
:104A80004070A060019808700C482030016841F423
:104A900070010160016841F070410160FFF746FE5E
:104AA00000206060FBF79EFB0848016841F0404130
:104AB0000160FBF783FB00201CBD000000ED00E05F
:104AC00071C20F4100E400E0B400002034EF00E0C8
:104AD00010B5502080F31188BFF34F8FBFF36F8F55
:104AE00000F0D6FA18B104494FF080500860002059
:104AF00080F3118810BD000004ED00E038B5049D7E
:104B000018B153B1CAB181B120E0502080F31188AF
:104B1000BFF34F8FBFF36F8FFEE7502080F31188F4
:104B2000BFF34F8FBFF36F8FFEE7502080F31188E4
:104B3000BFF34F8FBFF36F8FFEE739B1502080F383
:104B40001188BFF34F8FBFF36F8FFEE750241C46D1
:104B5000012384F846302B460094FFF743FA2046A1
:104B600038BD000070B50D46040025D0FFF778FD74
:104B7000D4E90F20216802FB0011A1600021A1638C
:104B8000216861600A46D4E90F01401E00FB012143
:104B9000E16021464FF0FF3001F8440F487004F106
:104BA00010008DB1FFF72AFD04F12400FFF726FD68
:104BB000FFF776FD012070BD502080F31188BFF310
:104BC0004F8FBFF36F8FFEE721690029F0D000F00F
:104BD00003FB0028ECD004494FF080500860BFF37D
:104BE0004F8FBFF36F8FE3E704ED00E02DE9FF4740
:104BF00082B01D468A464FF00008040003D0BAF187
:104C0000000F08D011E0502080F31188BFF34F8FC0
:104C1000BFF36F8FFEE7206C38B1502080F311880E
:104C2000BFF34F8FBFF36F8FFEE7022D0AD1E06B0A
:104C3000012807D0502080F31188BFF34F8FBFF3B6
:104C40006F8FFEE700F010FA3F4F4FF000094FF072
:104C5000805648B9049838B1502080F31188BFF3CA
:104C60004F8FBFF36F8FFEE7FFF7FAFCA06BE16B8E
:104C7000884207D3022D05D00498D0B1B8F1000FB7
:104C80001AD01EE02A4651462046FFF704F9616A11
:104C900019B104F1240000F09FFA20B13E60BFF387
:104CA0004F8FBFF36F8FFFF7FBFC012006B0BDE80D
:104CB000F087FFF7F5FC22E06846FFF7CFFD4FF0E5
:104CC0000108FFF7EDFCFFF74FFEFFF7C9FC94F971
:104CD0004400401C01D184F8449094F94500401CE4
:104CE00001D184F84590FFF7DBFC04A9684600F089
:104CF00029F930B12046FFF78DFB00F0A5FA00201E
:104D0000D4E7FFF7ADFCA06BE16B884213D1FFF74E
:104D1000C7FC04F110000499FFF7AEFD2046FFF731
:104D200079FB00F091FA00289ED13E60BFF34F8FCF
:104D3000BFF36F8F98E7FFF7B3FC2046FFF76AFBDE
:104D400000F082FA90E7000004ED00E02DE9F04762
:104D50001F4690468946040003D0B9F1000F08D0E1
:104D600011E0502080F31188BFF34F8FBFF36F8F96
:104D7000FEE7206C38B1502080F31188BFF34F8FCD
:104D8000BFF36F8FFEE7022F0AD1E06B012807D037
:104D9000502080F31188BFF34F8FBFF36F8FFEE772
:104DA000FFF7D6FC5020EFF3118680F31188BFF394
:104DB0004F8FBFF36F8FA06BE16B884206D3022F3A
:104DC00004D0002086F31188BDE8F08794F945509F
:104DD000A06B3A4649462046FFF75DF8681C04D0B0
:104DE0006D1C84F845500120ECE7606A0028FAD079
:104DF00004F1240000F0F0F90028F4D0B8F1000F1D
:104E0000F1D00121C8F80010EDE700002DE9F747C7
:104E1000002683B08A46040003D0BAF1000F08D000
:104E200011E0502080F31188BFF34F8FBFF36F8FD5
:104E3000FEE7206C38B1502080F31188BFF34F8F0C
:104E4000BFF36F8FFEE700F00FF9DFF8F4804FF04B
:104E500000094FF0805748B9059838B1502080F3C9
:104E60001188BFF34F8FBFF36F8FFEE7FFF7F8FB9B
:104E7000A56BC5B151462046FEF7FAFF6D1EA5632E
:104E8000206950B104F1100000F0A6F928B1C8F86B
:104E90000070BFF34F8FBFF36F8FFFF701FC01204E
:104EA00006B0BDE8F087059808B11EB106E0FFF72F
:104EB000F7FB27E06846FFF7D1FC0126FFF7F0FB80
:104EC000FFF752FDFFF7CCFB94F94400401C01D1E1
:104ED00084F8449094F94500401C01D184F8459031
:104EE000FFF7DEFB05A9684600F02CF800282046F5
:104EF0000AD0FFF78FFA00F0A7F92046FFF71EF956
:104F00000028B3D00020CBE7FFF718F990B104F1E7
:104F100024000599FFF7B0FC2046FFF77BFA00F06C
:104F200093F90028A2D1C8F80070BFF34F8FBFF3E8
:104F30006F8F9BE72046FFF76DFA00F085F995E744
:104F400004ED00E02DE9F0410C46050011D0C4B19C
:104F5000FFF786FB174BDA686E682068911B471CC9
:104F600017D02F681B6A9F4219D0964217D8012488
:104F700010E0502080F31188BFF34F8FBFF36F8F85
:104F8000FEE7502080F31188BFF34F8FBFF36F8F80
:104F9000FEE70024FFF784FB2046BDE8F08188424D
:104FA00005D9401A20602846FFF758FCF1E7002099
:104FB0002060DCE7400000202DE9FF5F8346DDE94B
:104FC0000E87994616468A469000FFF759FA050063
:104FD0001CD05C20FFF754FA040014D00020256395
:104FE00084F85900CDE90240CDE900874B463246AE
:104FF00051465846FFF708F82046FEF7A5FE012067
:1050000004B0BDE8F09F2846FFF75EFB4FF0FF308D
:10501000F6E7F0B585B0DDE90B640A9DA6B1DCB119
:105020005C2700972663022684F85960002604AFA7
:10503000CDE90246CDE90057FEF7E6FF2046FEF730
:1050400083FE049805B0F0BD502080F31188BFF3B3
:105050004F8FBFF36F8FFEE7502080F31188BFF3AF
:105060004F8FBFF36F8FFEE70548416919B1006BA1
:1050700018B10020704701207047022070470000DF
:10508000400000200148C068704700004000002038
:105090002DE9F0412E4C0027206B28B1A069401C5F
:1050A000A0613846BDE8F081E668761CE66013D161
:1050B000606B006838B1502080F31188BFF34F8FC8
:1050C000BFF36F8FFEE7606BA16B6163A063206A23
:1050D000401C2062FFF71EF9A06ADFF87880864244
:1050E00009D3606B0068A0B1606BC068C568686870
:1050F000864211D2A0622068C06A00EB800158F895
:105100002100012800D90127E0690028C9D0012722
:10511000C7E74FF0FF30EDE7281DFFF745FAA86A13
:1051200018B105F11800FFF73FFAE86A21698842D3
:1051300000D9206100EB800108EB8100291DFFF7F9
:1051400083FAE86A2168C96A8842CAD30127C8E796
:10515000400000208C05002070B504004FF00001D5
:1051600033D01B4D2868844207D0502080F311882B
:10517000BFF34F8FBFF36F8FFEE7206D38B1401E36
:105180002065E36CE26A9A421FD040B11DE05020D6
:1051900080F31188BFF34F8FBFF36F8FFEE7201DA1
:1051A000FFF702FAE06CE062C0F13800A061E06A4B
:1051B0002969884200D92861064900EB800001EB8B
:1051C0008000211DFFF740FA0121084670BD000054
:1051D000400000208C05002070B5C068C46854B140
:1051E00004F118000646FFF7DFF9144D286B50B1A3
:1051F0003146134815E0502080F31188BFF34F8FDC
:10520000BFF36F8FFEE7201DFFF7CEF9E06A296933
:10521000884200D928610B4900EB800001EB800037
:10522000211DFFF711FAE06A2968C96A884202D98C
:105230000120E86170BD002070BD0000400000202A
:10524000140A00208C0500202DE9F0472C4D002485
:105250002746286B38B1FFF703FA286B401E2863F6
:10526000286B40B146E0502080F31188BFF34F8F88
:10527000BFF36F8FFEE7A968224E0120D1B3A6F5D8
:10528000916980463068E0B1F068C46804F11800A4
:10529000FFF78AF9201DFFF787F9E06A296988423C
:1052A00000D9286100EB800109EB8100211DFFF787
:1052B000CBF9E06A2968C96A8842E3D3C5F81C8043
:1052C000E0E70CB1FFF726F8AC694CB14FEA0806ED
:1052D000FFF7DEFE00B1EE61641EF9D10020A86187
:1052E000E86938B10849012738070860BFF34F8FD4
:1052F000BFF36F8FFFF7D4F93846BDE8F0870000A1
:1053000040000020140A002004ED00E010B586B033
:10531000FEF782FD114C2068B8B100200390049084
:1053200005AA04A903A8FFF75DF9DDE9032102201E
:105330008DE8070000230AA10B48059AFFF769FED4
:10534000606010B106B0012010BD502080F31188BC
:10535000BFF34F8FBFF36F8FFEE700007C0000208C
:10536000546D722053766300F14300082DE9FF412C
:105370001E46134602000A9D4FF0000016D0144C42
:105380002768002F0FD0CDE900130292062917DA03
:10539000FFF76AFE02284FF000030FD00022694693
:1053A0002068FFF723FC04B0BDE8F081502080F3B3
:1053B0001188BFF34F8FBFF36F8FFEE72A46EEE7EA
:1053C0000023324669463846FFF7C0FCEBE7000091
:1053D0007C000020945C0008000000000000000039
:1053E00000000000000000000002000018000000A3
:1053F00000000000000000007C5C000800000000CD
:10540000000000000000000000000000000200009A
:10541000180000000000000000000000885C000888
:10542000000000000000000000000000000000007C
:105430000002000008000000000000000000000062
:105440000006101600061016000000000000000004
:10545000010203040607080900000000010203041A
:105460000000704100000000000000000000003F4C
:10547000000000000000000000000000920E493C07
:10548000B10AC93C2BC3163D2EFB483D752B7B3D15
:1054900004A9963D80B6AF3D36BDC83D2FBCE13D69
:1054A00073B2FA3D87CF093E8340163EB5AB223E2C
:1054B000A2102F3ECF6E3B3EC2C5473E0115543E63
:1054C000135C603E7F9A6C3ECCCF783EC07D823EBE
:1054D000938E883E229A8E3E32A0943E86A09A3EBB
:1054E000E59AA03E128FA63ED47CAC3EEF63B23E5E
:1054F0002A44B83E491DBE3E15EFC33E53B9C93ECE
:10550000CA7BCF3E4136D53E80E8DA3E4F92E03E40
:105510007533E63EBBCBEB3EEA5AF13ECBE0F63EBE
:10552000275DFC3EE4E7003F3D9C033F824B063F86
:105530009BF5083F6B9A0B3FDA390E3FCDD3103FF6
:105540002A68133FD9F6153FC07F183FC6021B3F9C
:10555000D17F1D3FCBF61F3F9967223F25D2243FC5
:105560005636273F1594293F4AEB2B3FDE3B2E3F13
:10557000BB85303FC9C8323FF304353F233A373F3C
:105580004268393F3B8F3B3FF9AE3D3F67C73F3FE6
:1055900070D8413F01E2433F03E4453F65DE473FAA
:1055A00012D1493FF8BB4B3F029F4D3F207A4F3FFE
:1055B0003D4D513F4918533F31DB543FE595563F30
:1055C0005348583F6AF2593F1A945B3F532D5D3F51
:1055D00005BE5E3F2146603F97C5613F5A3C633F31
:1055E00059AA643F880F663FD86B673F3CBF683F4E
:1055F000A7096A3F0C4B6B3F5E836C3F93B26D3FD4
:105600009ED86E3F73F56F3F0809713F5213723F8A
:105610004714733FDD0B743F0BFA743FC6DE753FD2
:1056200007BA763FC58B773FF853783F9812793F9A
:105630009DC7793F02737A3FBE147B3FCDAC7B3F61
:10564000283B7C3FC9BF7C3FAC3A7D3FCCAB7D3F24
:1056500023137E3FB0707E3F6DC47E3F580E7F3F68
:105660006D4E7F3FAB847F3F0FB17F3F97D37F3F2E
:1056700043EC7F3F11FB7F3F0000803F11FB7F3FEA
:1056800043EC7F3F97D37F3F0FB17F3FAB847F3F9A
:105690006D4E7F3F580E7F3F6DC47E3FB0707E3FA2
:1056A00023137E3FCCAB7D3FAC3A7D3FC9BF7C3FEF
:1056B000283B7C3FCDAC7B3FBE147B3F02737A3FDF
:1056C0009DC7793F9812793FF853783FC58B773F54
:1056D00007BA763FC6DE753F0BFA743FDD0B743FA9
:1056E0004714733F5213723F0809713F73F56F3FC0
:1056F0009ED86E3F93B26D3F5E836C3F0C4B6B3F09
:10570000A7096A3F3CBF683FD86B673F880F663F79
:1057100059AA643F5A3C633F97C5613F2146603FA9
:1057200005BE5E3F532D5D3F1A945B3F6AF2593FC1
:105730005348583FE595563F31DB543F4918533F96
:105740003D4D513F207A4F3F029F4D3FF8BB4B3FAD
:1057500012D1493F65DE473F03E4453F01E2433F45
:1057600070D8413F67C73F3FF9AE3D3F3B8F3B3F5E
:105770004268393F233A373FF304353FC9C8323FC7
:10578000BB85303FDE3B2E3F4AEB2B3F1594293F34
:105790005636273F25D2243F9967223FCBF61F3F3D
:1057A000D17F1D3FC6021B3FC07F183FD9F6153F72
:1057B0002A68133FCDD3103FDA390E3F6B9A0B3F67
:1057C0009BF5083F824B063F3D9C033FE4E7003FCB
:1057D000275DFC3ECBE0F63EEA5AF13EBBCBEB3E0A
:1057E0007533E63E4F92E03E80E8DA3E4136D53EE4
:1057F000CA7BCF3E53B9C93E15EFC33E491DBE3EDD
:105800002A44B83EEF63B23ED47CAC3E128FA63E33
:10581000E59AA03E86A09A3E32A0943E229A8E3E01
:10582000938E883EC07D823ECCCF783E7F9A6C3E80
:10583000135C603E0115543EC2C5473ECF6E3B3EF1
:10584000A2102F3EB5AB223E8340163E87CF093EC5
:1058500073B2FA3D2FBCE13D36BDC83D80B6AF3DC9
:1058600004A9963D752B7B3D2EFB483D2BC3163D71
:10587000B10AC93C920E493C00000000920E49BC9E
:10588000B10AC9BC2BC316BD2EFB48BD752B7BBD11
:1058900004A996BD80B6AFBD36BDC8BD2FBCE1BD65
:1058A00073B2FABD87CF09BE834016BEB5AB22BE28
:1058B000A2102FBECF6E3BBEC2C547BE011554BE5F
:1058C000135C60BE7F9A6CBECCCF78BEC07D82BEBA
:1058D000938E88BE229A8EBE32A094BE86A09ABEB7
:1058E000E59AA0BE128FA6BED47CACBEEF63B2BE5A
:1058F0002A44B8BE491DBEBE15EFC3BE53B9C9BECA
:10590000CA7BCFBE4136D5BE80E8DABE4F92E0BE3C
:105910007533E6BEBBCBEBBEEA5AF1BECBE0F6BEBA
:10592000275DFCBEE4E700BF3D9C03BF824B06BF82
:105930009BF508BF6B9A0BBFDA390EBFCDD310BFF2
:105940002A6813BFD9F615BFC07F18BFC6021BBF98
:10595000D17F1DBFCBF61FBF996722BF25D224BFC1
:10596000563627BF159429BF4AEB2BBFDE3B2EBF0F
:10597000BB8530BFC9C832BFF30435BF233A37BF38
:10598000426839BF3B8F3BBFF9AE3DBF67C73FBFE2
:1059900070D841BF01E243BF03E445BF65DE47BFA6
:1059A00012D149BFF8BB4BBF029F4DBF207A4FBFFA
:1059B0003D4D51BF491853BF31DB54BFE59556BF2C
:1059C000534858BF6AF259BF1A945BBF532D5DBF4D
:1059D00005BE5EBF214660BF97C561BF5A3C63BF2D
:1059E00059AA64BF880F66BFD86B67BF3CBF68BF4A
:1059F000A7096ABF0C4B6BBF5E836CBF93B26DBFD0
:105A00009ED86EBF73F56FBF080971BF521372BF86
:105A1000471473BFDD0B74BF0BFA74BFC6DE75BFCE
:105A200007BA76BFC58B77BFF85378BF981279BF96
:105A30009DC779BF02737ABFBE147BBFCDAC7BBF5D
:105A4000283B7CBFC9BF7CBFAC3A7DBFCCAB7DBF20
:105A500023137EBFB0707EBF6DC47EBF580E7FBF64
:105A60006D4E7FBFAB847FBF0FB17FBF97D37FBF2A
:105A700043EC7FBF11FB7FBF000080BF11FB7FBFE6
:105A800043EC7FBF97D37FBF0FB17FBFAB847FBF96
:105A90006D4E7FBF580E7FBF6DC47EBFB0707EBF9E
:105AA00023137EBFCCAB7DBFAC3A7DBFC9BF7CBFEB
:105AB000283B7CBFCDAC7BBFBE147BBF02737ABFDB
:105AC0009DC779BF981279BFF85378BFC58B77BF50
:105AD00007BA76BFC6DE75BF0BFA74BFDD0B74BFA5
