:020000040800F2
:10000000805D00202903000861650008B9540008DC
:100010005D650008650B0008C17B0008000000005A
:10002000000000000000000000000000690200085D
:100030008B0E000800000000C5020008C56E000815
:100040004303000843030008430300084303000878
:100050004303000843030008D50F000843030008CA
:1000600043030008DF0F0008E90F000843030008FE
:10007000310D000843030008430300084303000850
:100080004303000843030008430300084303000838
:10009000690B00084303000843030008F30F00083E
:1000A00043030008C16F000843030008430300082E
:1000B000D96F000843030008430300084303000806
:1000C00043030008430300084303000843030008F8
:1000D000430300084D790008430300085D790008D8
:1000E00043030008430300084303000843030008D8
:1000F00043030008430300084303000843030008C8
:1001000043030008430300084303000843030008B7
:1001100043030008430300084303000843030008A7
:10012000410D0008510D0008610D0008710D000817
:100130004303000843030008430300084303000887
:10014000790B000843030008430300084303000839
:10015000430300084303000843030008497A0008EA
:100160004303000843030008430300084303000857
:100170004303000843030008430300080000000095
:10018000430300084303000800F002F800F05CF8A5
:100190000AA090E8000C82448344AAF10107DA45E2
:1001A00001D100F051F8AFF2090EBAE80F0013F0D8
:1001B000010F18BFFB1A43F00103184774A9000090
:1001C00094A900000A444FF0000C10F8013B13F012
:1001D000070408BF10F8014B1D1108BF10F8015BA0
:1001E000641E05D010F8016B641E01F8016BF9D193
:1001F00013F0080F1EBF10F8014BAD1C0C1B09D1EA
:100200006D1E58BF01F801CBFAD505E014F8016B5B
:1002100001F8016B6D1EF9D59142D6D370470000ED
:100220000023002400250026103A28BF78C1FBD8FF
:10023000520728BF30C148BF0B6070471FB50AF096
:10024000ECFB1FBD10B510BD00F074F91146FFF7AF
:10025000F5FF08F0A1FF00F092F903B4FFF7F2FFF9
:1002600003BC00F095F900002C4B19680868B0E851
:10027000F04F80F30988BFF36F8F4FF0000080F3D9
:10028000118870470000000008480068006880F38B
:1002900008884FF0000080F3148862B661B6BFF39F
:1002A0004F8FBFF36F8F00DF00BF00BF08ED00E08E
:1002B000DFF80C00016841F470010160704700BF75
:1002C00088ED00E0EFF30980BFF36F8F134B1A68DE
:1002D0001EF0100F08BF20ED108A20E9F04F1060CB
:1002E00009B44FF0500080F31188BFF34F8FBFF374
:1002F0006F8F09F01DFD4FF0000080F3118809BCDD
:1003000019680868B0E8F04F1EF0100F08BFB0EC95
:10031000108A80F30988BFF36F8F70472800002090
:10032000EFF30580704700000948804709480047FF
:10033000FEE7FEE7FEE7FEE7FEE7FEE7FEE7FEE795
:10034000FEE7FEE704480549054A064B70470000F2
:10035000AD6F00088901000880570020805D0020F3
:10036000805900208059002053EA020C00F0698077
:100370002DE9F04B4FF00006002B1FBFB3FA83F5B9
:1003800003FA05F424FA05F65E4012BF1643B2FAEA
:1003900082F502FA05F4C5F120051EBF22FA05FC1C
:1003A00044EA0C04203556EA044C4FEA144418BFC2
:1003B000641C4FF000084FF00009904271EB030CF1
:1003C00039D3002919BFB1FA81F701FA07F6B0FA5B
:1003D00080F700FA07F6C7F120071EBF20FA07FCD6
:1003E00046EA0C062037B6FBF4FCA7EB0507103FE6
:1003F00007F01F0BCBF120060CFA0BFB2CFA06F6CC
:1004000044BFB3460026202FA4BF5E464FF0000B2A
:100410005BEA060C08BF4FF0010B19EB0B09ABFBB5
:10042000027C48EB0608C01B06FB02CC0BFB03CC8E
:1004300071EB0C01C1E70B46024641464846BDE858
:10044000F08B13B54FF000004FF00001AFF30080C8
:10045000BDE81C40704710B5203AC0F00B80B1E8F1
:100460001850203AA0E81850B1E81850A0E81850E9
:10047000BFF4F5AF5FEA027C24BFB1E81850A0E8F2
:10048000185044BF18C918C0BDE810405FEA827C0C
:1004900024BF51F8043B40F8043B08BF7047D20723
:1004A00028BF31F8023B48BF11F8012B28BF20F8C4
:1004B000023B48BF00F8012B70474FF0000200B527
:1004C000134694469646203922BFA0E80C50A0E877
:1004D0000C50B1F12001BFF4F7AF090728BFA0E825
:1004E0000C5048BF0CC05DF804EB890028BF40F8F1
:1004F000042B08BF704748BF20F8022B11F0804F33
:1005000018BF00F8012B704770477047704710B54F
:1005100000F008F8006810BD10B5044600F002F8BD
:10052000046010BD00487047205700200048704705
:10053000205700207546FFF7F9FFAE4605006946D3
:10054000534620F00700854618B020B5FFF7FAFEA5
:10055000BDE820404FF000064FF000074FF00008C4
:100560004FF0000B21F00701AC46ACE8C009ACE845
:10057000C009ACE8C009ACE8C0098D46704710B5A9
:100580000446AFF300802046BDE81040FFF765BE8B
:1005900001491820ABBEFEE72600020070470000AC
:1005A00000B52DED048B85B06E48006890ED023AE1
:1005B000F0EE432A6B48006890ED033AB0EE432A10
:1005C0006848006890ED043AF0EE431A6648006807
:1005D00090ED023AB0EE431A6348006890ED033A9A
:1005E000F0EE430A6048006890ED043AB0EE430A2A
:1005F00005F012FE5D4890ED000A8DED010A5C48A1
:1006000090ED000A8DED020A5A4890ED000A8DED3A
:10061000030A594890ED000A8DED040A5248036818
:100620001C33026814320168183101A807F048FF32
:100630004D48006890ED040A10EE101A08460AF0C2
:100640004BF941EC190B9FED4D0B53EC102B0AF0BD
:100650000FF841EC180B09F021FE4A4908644248A2
:10066000006890ED030A10EE101A08460AF034F9FB
:1006700041EC190B9FED410B53EC102B09F0F8FFE7
:1006800041EC180B09F00AFE3E49C8633648006881
:1006900090ED020A10EE101A08460AF01DF941EC1E
:1006A000190B9FED360B53EC102B09F0E1FF41ECD9
:1006B000180B09F0F3FD334988632B48006890ED6F
:1006C000060A3148D0ED000A30EE600ADFED2F0A4D
:1006D000B4EEE00AF1EE10FA05DD2D480068401E88
:1006E0002B49086014E02048006890ED060A26486F
:1006F000D0ED000A30EE600ADFED260AB4EEE00A23
:10070000F1EE10FA04D222480068401C204908602B
:100710001548006890ED060A1D48D0ED000AF8EE75
:10072000E00A9FED1D1A00EE810A164880ED0B0AC3
:100730000D48006890ED060A134880ED000A0A484B
:10074000006890ED050A0F4880ED0C0A0648006825
:1007500090ED070A0B4880ED0D0A05B0BDEC048B47
:1007600000BD0000E0000020DC00002004010020AB
:10077000080100200C01002010010020F6285C8FE9
:10078000C2A54C4018490020F40000200000A543F9
:10079000E80000200000A5C30000B44310B52DED13
:1007A000048B0446B0EE408AF0EE608A14B9BDECCA
:1007B000048B10BD94ED110A84ED120A94ED100A19
:1007C00084ED110A84ED018AC4ED008A94ED000ADB
:1007D000D4ED010A30EE600A84ED100A94ED000AAF
:1007E000D4ED010A30EE600A84ED020A94ED030AAA
:1007F000D4ED020A20EE200A84ED0A0A94ED020AE2
:1008000010EE101A08460AF067F821F000419FED3B
:10081000360B53EC102B0AF029F809D294ED0B0A91
:10082000D4ED040A94ED021A00EE810A84ED0B0A5D
:1008300094ED100AD4ED110A30EE600A84ED0D0A31
:1008400094ED050AD4ED0D0A20EE200A84ED0C0A81
:1008500094ED0B0AD4ED070AB4EEE00AF1EE10FABB
:1008600004DD94ED070A84ED0B0A10E094ED0B0A09
:10087000D4ED070AF1EE600AB4EEE00AF1EE10FAE8
:1008800005D294ED070AB1EE400A84ED0B0A94ED0F
:100890000A0AD4ED0B0A30EE200AD4ED0C0A30EE31
:1008A000200A84ED090A94ED090AD4ED060AB4EE93
:1008B000E00AF1EE10FA04DD94ED060A84ED090A6F
:1008C00010E094ED090AD4ED060AF1EE600AB4EEE8
:1008D000E00AF1EE10FA05D294ED060AB1EE400AF4
:1008E00084ED090A00BF62E7000000A09999A93FC2
:1008F00000B9704791ED001A80ED031A91ED011ACD
:1009000080ED041A91ED021A80ED051A9FED121A7E
:1009100080ED001A9FED101A80ED011AC0ED070A54
:1009200080ED060A9FED0C1A80ED0F1A80ED0E1A6D
:1009300080ED0D1A9FED081A80ED091A80ED0C1A52
:1009400080ED0B1A80ED0A1A80ED121A80ED111A53
:1009500080ED101A00BFCCE70000000070B504461F
:100960000D46002210210A4802F0CAFB44F0800024
:1009700000F0E8F8552000F0E5F8552000F0E2F826
:10098000287001221021024802F0BAFB70BD00005D
:100990000000024070B506460C46154600221021A4
:1009A0000C4802F0ADFB46F0800000F0CBF855207B
:1009B00000F0C8F806E0552000F0C4F82070641C70
:1009C000681EC5B2002DF6D101221021014802F0A7
:1009D00097FB70BD0000024070B505460C46002232
:1009E0001021074802F08CFB284600F0ABF82046A7
:1009F00000F0A8F801221021014802F081FB70BD2F
:100A00000000024070B5034600BF00BF0020002276
:100A100000BF4FF0E0267569A82603FB06F44FF0EF
:100A2000E026B16910E04FF0E026B06988420BD0B3
:100A3000884202D20E1A324402E02E1A0E44324488
:100A40000146A24200D300E0EDE700BF70BD000008
:100A500070B504460D4600220121084802F050FB03
:100A600044F0800000F06EF8552000F06BF828701C
:100A700001221146014802F043FB70BD0004024010
:100A800070B506460C461546002201210B4802F0BF
:100A900037FB46F0800000F055F806E0552000F0E6
:100AA00051F82070641C681EC5B2002DF6D10122D9
:100AB0001146024802F024FB70BD00000004024011
:100AC00070B505460C4600220121074802F018FBCC
:100AD000284600F037F8204600F034F8012211468D
:100AE000014802F00DFB70BD0004024010B507F094
:100AF000F1FA30B11248007840F0800010490870D7
:100B000006E007F08BFA0E49097808430C49087093
:100B1000012008F0B9FB07F043FC30B10848007829
:100B200040F040000649087006E007F0DDFB04498C
:100B300009780843024908700148007810BD000098
:100B4000B400002001B582B04FF47A70012301AAED
:100B500002A90090024803F021FC9DF804000EBD9C
:100B60004008002000BFFEE710B5024801F084FCF9
:100B700010BD00009C07002010B5024801F07CFC6D
:100B800010BD0000C407002010B50446204600F048
:100B900029F810BD38B5044664200F4908600020CC
:100BA0008860C8600820086120780C490870607867
:100BB0004870A0788870E078C870207908716079F2
:100BC0004871A0798871E079C8716B460A4602497C
:100BD000034801F056FA38BD004A002028010020E1
:100BE000C407002038B5044696200F49086000204D
:100BF0008860C8600820086120780C490870607817
:100C00004870A0788870E078C870207908716079A1
:100C10004871A0798871E079C8716B460A4602492B
:100C2000034801F02EFA38BD004A002028010020B8
:100C3000C4070020F8B507460C4615461E4640F28C
:100C4000FF100D49086000208860C8600820086116
:100C5000380A0A4908704F70200A8870CC70280A38
:100C600008714D71300A8871CE716B460A4602498F
:100C7000034801F006FAF8BD004A002028010020D0
:100C80009C07002070B504460D462068A0F20120A4
:100C9000062826D2DFE800F01B201625030E284682
:100CA000FFF778FF2946104807F06EFE002000F09D
:100CB000EDF817E029460D4807F066FE012000F028
:100CC000E5F80FE029460A4801F000F90AE0294654
:100CD000084801F075F805E02946074801F070F86A
:100CE00000E000BF00BF70BD304A0020504A002025
:100CF000704B0020904B0020B04B002010B50448F2
:100D000001F05FFE0221024801F0A6F910BD0000CB
:100D1000C407002010B507F08FFB044801F051FE16
:100D20000221024801F098F910BD00009C07002044
:100D300010B5024801F0E6FE10BD0000140B0020C3
:100D400010B5024801F0DEFE10BD0000980800203A
:100D500010B5024801F0D6FE10BD0000740B002053
:100D600010B5024801F0CEFE10BD0000B40A00200C
:100D700010B5024801F0C6FE10BD0000F8080020C2
:100D80000146087810381823B0FBF3F20848805C5D
:100D9000C865032A05D908686FF30900001D886536
:100DA00003E008686FF309008865886D70470000EC
:100DB000BCAA0008014600208A6A8B69CBB932B10F
:100DC000012A0DD0022A03D0032A10D10EE000BF61
:100DD000CB6A03F08073B3F1807F00D1012007E07C
:100DE000CB6AB3F1C07F00D1012001E000E000BF79
:100DF00034E08B69B3F5005F1AD132B1012A07D014
:100E0000022A03D0032A11D10AE000BF01200EE01C
:100E1000CB6A03F08073B3F1807F00D1012006E03C
:100E2000CB6AB3F1C07F00D1012000E000BF15E024
:100E300032B1012A05D0022A04D0032A0CD103E0E2
:100E400000BF00BF012008E0CB6A03F08073B3F15C
:100E5000807F00D1012000E000BF00BF704730B5A7
:100E60000468246824F4802405682C6004686360A6
:100E70008468402C04D10468A2600468E16003E047
:100E80000468A1600468E26030BD704710B5044694
:100E900009F0D8F804EB0411014A1144086010BDB0
:100EA000DC56002070B504460D4609F0CBF804EB83
:100EB0000411044A1144086004EB0410114608446C
:100EC000856070BDDC5600204FF47A710020FFF77A
:100ED000E9FF4FF47A710120FFF7E4FF4FF47A71D4
:100EE0000220FFF7DFFF40F2DC510320FFF7DAFFBB
:100EF0000A2008F08FFE00BF002455E009F0A2F898
:100F000004EB04112B4A11440968884207D209F006
:100F100099F8401E04EB0411264A1144086009F0B8
:100F200091F804EB0411234A11440968401A04EBB8
:100F300004111144486004EB041011460844406851
:100F400004EB041111448968884220D904EB041091
:100F500011460844D0F80D00401C04EB0411114464
:100F6000C1F80D0004EB041011460844D0F80D0040
:100F7000B0F5FA7F16D9002004EB04111144C1F832
:100F80000D00012004EB0411114408730AE0002055
:100F900004EB0411074A1144C1F80D0004EB0411DD
:100FA00011440873601CC4B2032CA7DB022008F0B4
:100FB00031FEA1E7DC560020014601EB0110044A96
:100FC0001044007B012800D170470020FCE700009E
:100FD000DC56002010B5012001F08AFF10BD10B5CD
:100FE000082001F085FF10BD10B5102001F080FF32
:100FF00010BD10B5202001F07BFF10BD72B600BF00
:10100000FEE70000F0EE401AF4EEE01AF1EE10FAFE
:1010100002D8B7EE000A7047F4EEE10AF1EE10FADA
:101020000BD2F4EEC11AF1EE10FA06D831EE612AB5
:1010300071EE602A82EE220AEDE7F4EEC11AF1EEBB
:1010400010FA02DD9FED020AE5E79FED010AE2E7F3
:1010500000000000F0EE401AF4EEE01AF1EE10FA93
:1010600002D89FED0F0A7047F4EEE10AF1EE10FA94
:101070000BD2F4EEC11AF1EE10FA06D231EEE02AEC
:1010800071EE602A82EE220AEDE7F4EEC11AF1EE6B
:1010900010FA02DBB7EE000AE5E7B7EE000AE2E776
:1010A00000000000B0EE402AB4EEE02AF1EE10FAA3
:1010B00002D89FED180A7047F4EEC20AF1EE10FA5A
:1010C0000BD2B4EEC12AF1EE10FA06D872EE602A05
:1010D00031EE603A82EE830AEDE7B4EEC21AF1EE29
:1010E00010FA0BD2B4EEE12AF1EE10FA06D871EE46
:1010F000C22A31EEC13A82EE830ADCE7B4EEE12A7D
:10110000F1EE10FA02DD9FED030AD4E79FED010A2C
:10111000D1E70000000000002DE9F041DDE90654B0
:1011200008B9BDE8F08191ED001A80ED011A91ED4A
:10113000011A80ED021A91ED021A80ED031A92E86D
:10114000C010D2F80C80C0E906C8C0E9046793E873
:10115000C010D3F80C80C0E90AC8C0E90867057060
:1011600091ED001A80ED011A91ED011A80ED021A3D
:1011700091ED021A80ED031A9FED0C1A80ED1C1AF6
:101180009FED0A1A80ED1D1A94ED001A80ED301AB9
:1011900094ED011A80ED311A94ED021A80ED321AA5
:1011A000C0ED290A80ED280A00BFBAE70000000060
:1011B00070B52DED068B0446B0EE408AF0EE608AE5
:1011C000B0EE419A00250026C4ED1D8A84ED1C8AEC
:1011D000D4ED1C0A94ED1D1A70EEC10AB0EE600A3F
:1011E00008F004FC84ED2A0A94ED2A0A84ED1A0A18
:1011F00094ED2A0AD4ED2B0A30EE600ADFEDFE0AE8
:1012000020EE200A84ED1B0A94ED1A0A10EE101A43
:10121000084609F061FB21F000419FEDF80B53EC0B
:10122000102B09F023FB7DD89FEDF60AF64880EDE0
:10123000000A9FEDF40AF54880ED000A9FEDF10ADF
:10124000F34880ED000AD4ED051AF1EE611AB0EE14
:10125000611AD4ED071AF1EE611AF0EE610AD4EDCD
:101260001A1AB0EE610AFFF7CDFE84ED0C0A94ED78
:10127000042AF0EE421A94ED062AB1EE422AB0EEAC
:10128000421A94ED072AB1EE422AF0EE420A94ED9A
:101290001A2AB0EE420AFFF705FF84ED0D0A94ED1D
:1012A000052AF0EE421A94ED052AB1EE422AB0EE7C
:1012B000421A94ED072AB1EE422AF0EE420A94ED6A
:1012C0001A2AB0EE420AFFF7EDFE84ED0E0A94ED05
:1012D000062AF0EE421A94ED042AB0EE421A94ED7A
:1012E000062AB1EE422AF0EE420A94ED1A2AB0EE36
:1012F000420AFFF7D7FE84ED0F0A94ED072AF0EEBD
:10130000421A94ED052AB0EE421A94ED052AB1EE88
:10131000422AF0EE420A94ED1A2AB0EE420AFFF792
:10132000C1FE00E03BE184ED100A94ED072AF0EEE7
:10133000421A94ED072AB0EE421A94ED042AF0EE18
:10134000420A94ED1A2AB0EE420AFFF7ABFE84ED92
:10135000110AD4ED071AB0EE611AD4ED051AF0EEB9
:10136000610AD4ED1A1AB0EE610AFFF773FE84ED3C
:10137000120AD4ED091AF1EE611AB0EE611AD4ED39
:101380000B1AF1EE611AF0EE610AD4ED1B1AB0EE01
:10139000610AFFF737FE84ED130A94ED082AF0EE98
:1013A000421A94ED0A2AB1EE422AB0EE421A94EDA6
:1013B0000B2AB1EE422AF0EE420A94ED1B2AB0EE5F
:1013C000420AFFF76FFE84ED140A94ED092AF0EE4D
:1013D000421A94ED092AB1EE422AB0EE421A94ED77
:1013E0000B2AB1EE422AF0EE420A94ED1B2AB0EE2F
:1013F000420AFFF757FE84ED150A94ED0A2AF0EE33
:10140000421A94ED082AB0EE421A94ED0A2AB1EE7F
:10141000422AF0EE420A94ED1B2AB0EE420AFFF790
:1014200041FE84ED160A94ED0B2AF0EE421A94ED7B
:10143000092AB0EE421A94ED092AB1EE422AF0EEE2
:10144000420A94ED1B2AB0EE420AFFF72BFE84ED10
:10145000170A94ED0B2AF0EE421A94ED0A2AB0EE28
:10146000421A94ED082AF0EE420A94ED1B2AB0EEDF
:10147000420AFFF717FE84ED180AD4ED0B1AB0EEFE
:10148000611AD4ED091AF0EE610AD4ED1B1AB0EE20
:10149000610AFFF7DFFD84ED190A00BF25E0002592
:1014A00020E004F1300000EB850090ED000A04F12B
:1014B0004C0000EB8600D0ED000A60EE200AC5EB80
:1014C000C500544901EB800050F8260000EE100AD8
:1014D000B8EEC01A4C4890ED000A00EE810A80ED8B
:1014E000000A6D1C072DDCDB761C072ED7DB0026DF
:1014F00025E0002520E004F1300000EB850090EDB0
:10150000000A04F14C0000EB8600D0ED000A60EE0A
:10151000200AC5EBC500404901EB800050F82600C9
:1015200000EE100AB8EEC01A384890ED000A00EE3E
:10153000810A80ED000A6D1C072DDCDB761C072E6E
:10154000D7DB002625E0002520E004F1300000EB89
:10155000850090ED000A04F14C0000EB8600D0ED10
:10156000000A60EE200AC5EBC5002C4901EB8000A3
:1015700050F8260000EE100AB8EEC01A244890ED8C
:10158000000A00EE810A80ED000A6D1C072DDCDBED
:10159000761C072ED7DB94ED2A0A84ED2B0A1A4815
:1015A00090ED000AB1EE400A84ED330A174890ED41
:1015B000000A84ED350A164890ED000A84ED340ADD
:1015C000D4ED330A94ED301A80EE810AD4ED010A8D
:1015D00030EE200A84ED1E0AD4ED350A94ED311A5E
:1015E00080EE810AD4ED020A30EE200A84ED1F0A53
:1015F000D4ED340A14E0000000004842000000006E
:101600000000000000000000880400208C0400207E
:10161000900400203C020020C403002000030020AE
:1016200094ED321A80EE810AD4ED030A30EE200ADE
:1016300084ED200AD4ED1C0A94ED1D1A70EEC10A47
:10164000B0EE600A08F0D2F984ED1A0A207830B9B9
:1016500094ED200A20EE090A84ED240A6CE020783B
:10166000012833D194ED1A0A10EE101A084609F039
:1016700033F921F000419FED4B0B53EC102B09F097
:10168000F5F804D21FED210A84ED230A09E094ED58
:10169000230AD4ED1A0A94ED021A00EE810A84EDB1
:1016A000230A94ED260A84ED270A94ED250A84ED99
:1016B000260A94ED1B0A84ED250A94ED200AD4ED48
:1016C000250A20EE200A84ED240A35E0207802283D
:1016D00032D194ED1A0A10EE101A084609F0FCF8FF
:1016E00021F000419FED310B53EC102B09F0BEF8B7
:1016F00004D21FED3C0A84ED230A09E094ED230A8D
:10170000D4ED1A0A94ED021A00EE810A84ED230A40
:1017100094ED260A84ED270A94ED250A84ED260A25
:1017200094ED1B0A84ED250A94ED200AD4ED250AD8
:1017300020EE200A84ED240A94ED1E0AD4ED1A0A44
:1017400020EE200A84ED220A94ED220AD4ED230A29
:1017500030EE200AD4ED240A30EE200A84ED210A6E
:1017600094ED210AD4ED280AB4EEE00AF1EE10FA65
:1017700004DD94ED280A84ED210A10E094ED210A9D
:10178000D4ED280AF1EE600AB4EEE00AF1EE10FAA8
:1017900005D294ED280AB1EE400A84ED210ABDEC91
:1017A000068B70BD000000000000F03F000000004C
:1017B0000000D03F0048704788490020004870472B
:1017C00068490020004870471849002010B50446B9
:1017D00004B910BD94F8D80120B904F10C0007F049
:1017E000FFF935E094F8D801012829D194ED7B1A4E
:1017F000F0EE410A94ED7C1AB0EE410AB2EE041A02
:1018000004F1B800FFF7D4FC94ED4F0A84ED7F0A91
:1018100094ED7F1AF0EE410A94ED7D1AB0EE410A84
:1018200004F5C87004F09EFE84ED810A94ED810AEF
:10183000BDEEC00A10EE100A01B2A4F8081207E0CB
:1018400094F8D801022803D104F10C0007F0D9F96B
:1018500094F8D80320B904F5037007F0C1F937E014
:1018600094F8D80301282BD194EDFB1AF0EE410A2D
:1018700094EDFC1AB0EE410AB2EE041A04F52E7093
:10188000FFF796FC94EDCF0A84EDFF0A94EDFF1A62
:10189000F0EE410A94EDFD1AB0EE410A04F56470D1
:1018A00004F060FE04F5037080ED7E0A90ED7E0A80
:1018B000BDEEC00A10EE100A01B2A4F8081407E049
:1018C00094F8D803022803D104F5037007F099F9BE
:1018D00000BF7EE700B97047816891ED0B0A80ED8B
:1018E0007B0A816891ED0D0A80EDFB0A816891ED1C
:1018F0000F0A80EDFD0A816891ED0E0A80ED7D0AE8
:10190000D0F80C12B1F9021000EE101AB8EEC00AAD
:1019100080EDF90AC16891ED010AB8EEC00A80EDC8
:10192000790A00BFD7E700001CB5044606F0C4FDE5
:10193000E06006F0BDFDC4F80C02FFF743FFA060B5
:1019400007F062F82060002184F8D91184F8D811DA
:1019500084F8D91384F8D813444890ED002A4448F9
:10196000D0ED001A434890ED001ADFED430A9FEDD9
:10197000430A04F1100000F073F99FED412ADFEDF6
:10198000401A9FED401ADFED3E0A9FED3B0A04F13D
:10199000640000F065F9DFED3C0A9FED3C0A3C4A2B
:1019A000012104F5C87004F06DFE3A480221DFED14
:1019B000320A9FED320A384B384ACDE900103849D7
:1019C00004F1B800FFF7A8FB9FED362ADFED2C1AD3
:1019D000B1EE041AF3EE0E0A9FED330A04F504701B
:1019E00000F03EF99FED262ADFED251AB2EE0E1A21
:1019F000DFED230A9FED220A04F5197000F030F99B
:101A0000DFED210A9FED210A284A012104F56470C7
:101A100004F038FE26480121F3EE0E0A9FED220A5B
:101A2000244B254ACDE90010244904F52E70FFF718
:101A300073FB2348FFF74EFF94ED7B0A84ED7C0A8D
:101A400094ED790A84ED7A0A94ED7D0A84ED7F0A9B
:101A500094EDFB0A84EDFC0A94EDF90A84EDFA0A90
:101A600094EDFD0A84EDFF0A1CBD0000700100200A
:101A70006C010020680100200000C8420080224460
:101A800000000000C3F5983F0000FA440060EA46F9
:101A90005C010020E0010020D0010020C0010020F6
:101AA000B40100209A99993E00004843800100202B
:101AB0001802002008020020F8010020EC0100209C
:101AC000B44C002000B9704790F8D91169B190F872
:101AD000D81151B9B0F9081200EE101AB8EEC00AC8
:101AE00080ED810A80ED800A18E090F8D911012973
:101AF00008D090F8D811012904D190ED7B0A80ED2F
:101B00007C0A0BE090F8D911022907D090F8D8117F
:101B1000022903D190ED7B0A80ED7C0A90F8D82150
:101B200080F8D92190F8D91379B190F8D81361B918
:101B3000B0F9081400EE101AB8EEC00A00F50371EF
:101B400081ED7E0A81ED7D0A18E090F8D913012914
:101B500008D090F8D813012904D190EDFB0A80ED4C
:101B6000FC0A0BE090F8D913022907D090F8D8139B
:101B7000022903D190EDFB0A80EDFC0A90F8D823EE
:101B800080F8D92300BF9EE700B50146F0EE401A69
:101B9000B0EE602AB0EE413A11B99FED300A00BDB7
:101BA00091ED110A81ED120A91ED100A81ED110AF1
:101BB000C1ED041A81ED032A32EE610A81ED100AAB
:101BC00091ED130AD1ED140A30EE600AD1ED020A4C
:101BD00060EE202A91ED000AD1ED100A20EE200AD5
:101BE00081ED080A91ED090AD1ED010A91ED101A73
:101BF00000EE810A81ED090A9FED180A084607F0F8
:101C0000F8FA91ED0A0A81ED0B0A91ED0B0AD1ED7C
:101C10000C0AB7EE001A71EE600A20EE200AD1ED30
:101C20000C0A02EEA00A81ED0A0A91ED130A81ED79
:101C3000140A91ED080AD1ED090A30EE200AD1ED1F
:101C40000A0A30EE200A81ED130AB7EE000A0846B0
:101C500007F0CFFA91ED130AA1E7000000000000A1
:101C600000B9704780ED001AC0ED011A80ED022A1C
:101C7000DFED102AC0ED052ADFED0E2AC0ED042AA3
:101C8000DFED0C2AC0ED032AC0ED070A80ED060A3D
:101C9000DFED082AC0ED082ADFED062AC0ED092A8B
:101CA000DFED042AC0ED0A2ADFED022AC0ED132A77
:101CB00000BFD6E7000000001CB5044604B91CBDF7
:101CC0009FED3B0A8DED010A9FED390A8DED000A6B
:101CD0002246694601A806F09BFE94F8D80120B977
:101CE0009DED010A84ED800A20E094F8D8010228D5
:101CF0000CD19DED010ADFED2F0A80EE201A94ED44
:101D00007C0A31EE000A84ED7C0A0FE094F8D801D9
:101D100001280BD19DED010A9FED261AC0EE010AA4
:101D200094ED7C0A30EE800A84ED7C0A94F8D803A6
:101D300030B99DED000A04F5037080ED7D0A34E0B2
:101D400094F8D803022816D19DED000A9FED1A1AC7
:101D5000C0EE010A94EDFC0A30EE800A84EDFC0A24
:101D6000F3EE030A9FED150A04F57C7006F082FB82
:101D700084EDFC0A19E094F8D803012815D19DEDF3
:101D8000000A9FED0D1AC0EE010A94EDFC0A30EE38
:101D9000800A84EDFC0AF3EE030A9FED080A04F5BD
:101DA0007C7006F067FB84EDFC0A00BF87E700004B
:101DB000000000000000FA4400409C45000018C2EA
:101DC00070B52DED088B04460D46E878A97840EAF9
:101DD000012000B220816088E0816878297840EA9B
:101DE000012000B26080B4F90200B4F90E10401A6C
:101DF000B0F5805F05DD28480068401E2649086070
:101E00000CE0B4F90200B4F90E10401A10F5805F2E
:101E100004DA21480068401C1F490860B4F9021028
:101E20001D48006801EB40301C490860084690EDF1
:101E3000000AB8EEC00ADFED1A0A80EE201AB0EEF2
:101E4000413AB0EE430A07F0D1FD84ED050AB4F93A
:101E5000080008F0B9FB41EC1B0B9FED120B53EC93
:101E6000102B08F005FC41EC1A0B9FED100B53EC06
:101E7000102B08F051FA41EC190B9FED0E0B53ECAF
:101E8000102B08F049FA41EC180B08F007FAA06192
:101E9000BDEC088B70BD0000440100204001002013
:101EA000610BB6411F85EB51B81E094000000000D0
:101EB00000003E40F6285C8FC23533400048704732
:101EC000904B002000487047B04B00204288C281F0
:101ED0004A780B7842EA032212B24280CA788B78A1
:101EE00042EA032212B20281B0F90220B0F90E30A8
:101EF000D21AB2F5805F05DD134A1268521E124BEA
:101F00001A600CE0B0F90220B0F90E30D21A12F5C6
:101F1000805F04DA0C4A1268521C0B4B1A60B0F94D
:101F20000230094A126803EB4232084B1A601A4623
:101F300092ED000AB8EEC00ADFED050A80EE201A25
:101F400080ED051A704700003401002038010020A0
:101F5000610BB64100487047704B002070B50446D5
:101F60000D462846FEF710FE2878697840EA0120E1
:101F7000C0F30A0020806878C010A97840EA4110B8
:101F8000C0F30A006080A8788011E97840EA8100F7
:101F9000297940EA8120C0F30A00A0802879401006
:101FA000697940EAC110C0F30A00E0806879C0F3A3
:101FB0000110A072687900118108E172A07A0128ED
:101FC00002D1244908600AE0A07A032802D12149FD
:101FD000086004E0A07A022801D11E490860A879AF
:101FE000E97940EA012000B2A081287A697A40EAC2
:101FF000012001B2E181A87AE97A40EA012001B228
:102000002182297BA174697BE174A87BE97B40EA8A
:102010000120A082287C697C40EA012000B2208156
:102020002088A0F5806000B220806088A0F58060E4
:1020300000B26080A088A0F5806000B2A080E08837
:10204000A0F5806000B2E0802089A0F5806000B239
:10205000208170BD4C01002010B5024692F820305E
:10206000012B01D0022B06D1106840690843146887
:102070006061002010BD506A40F480205062012051
:10208000F8E7F0B504460D461E4694F82070206827
:102090008368A86800B900E000BF012F01D0022FBB
:1020A0007CD103F0806030B903F0006018B903F010
:1020B0008050002873D0C3F30161022905D9606AFA
:1020C00040F4000060620120F0BD012088403060D3
:1020D000A86860B9B5F800C0E86840EA4C5C2068C0
:1020E00000F5C07000EB0110C0F800C00FE0D5E9AA
:1020F00001C040EACC00D5F80CC040EA0C00D4F88E
:1021000000C00CF5C07C0CEB011CCCF80000D5F82D
:1021100010C0206800F5C07000EB0110C0F804C0CA
:10212000287D01280ED1206800F5C07000EB011059
:10213000406840F4807C206800F5C07000EB01101E
:10214000C0F804C0D079000692F806C040EA0C40FE
:1021500092F805C040EA0C2C10794CEA000C20687B
:1021600000F5C07000EB0110C0F80CC0D07800067C
:1021700092F802C040EA0C4092F801C040EA0C20FC
:1021800092F800C040EA0C00D4F800C00CF5C07C06
:102190000CEB011CCCF80800206801E016E00FE011
:1021A00000F5C07000EB0110006840F0010C2068E1
:1021B00000F5C07000EB0110C0F800C0002083E7FC
:1021C000606A40F40010606201207DE7606A40F4BC
:1021D00080206062012077E7F0B504460A46216856
:1021E00094F82050012D01D0022D7ED1424901F5F5
:1021F0000071086840F001000860086820F47C5015
:1022000008600868566A40EA06200860107D00F001
:102210001F06012000FA06F3C8699843C861A1F5BA
:102220000071D069C8B9D1F80C029843C1F80C020A
:10223000908880B2968940EA064601F51070576989
:1022400040F83760108880B2168940EA064601F5EA
:102250001070576900EBC7004660D069012819D19A
:10226000D1F80C021843C1F80C02908880B216888D
:1022700040EA064601F51070576940F837609089CA
:1022800080B2168940EA064601F51070576900EBE6
:10229000C7004660906928B9D1F804029843C1F894
:1022A000040204E0D1F804021843C1F804021069E2
:1022B00028B9D1F814029843C1F8140204E0D1F807
:1022C00014021843C1F81402106A012804D1D1F88D
:1022D0001C021843C1F81C02D1F8000220F00100D2
:1022E000C1F800020020F0BDFFE7606A40F48020E2
:1022F00060620120F7E7000000640040704770B59D
:10230000044694F82050012D01D0022D7DD151B901
:102310002068C06800F0030080B9606A40F40010D3
:102320006062012070BD2068006900F0030028B9D8
:10233000606A40F4001060620120F3E7206800F555
:10234000D87000EB0110006800F004009060906805
:1023500040B9206800F5D87000EB01100068400D0E
:10236000106007E0206800F5D87000EB01100068ED
:10237000C0085060206800F5D87000EB01100068BC
:1023800000F00200D060206800F5D87000EB01106A
:10239000406800F00F001061206800F5D87000EB75
:1023A0000110406800F47F40000A9061206800F549
:1023B000D87000EB01104068000C5061206800F5F7
:1023C000D87000EB011080681870206800F5D87094
:1023D00000EB0110806800F47F40000A587020680C
:1023E00000F5D87000EB0110806800F47F00000C4D
:1023F0009870206800F5D87000EB01108068000E1E
:10240000D870206800F5D87000E02FE000EB0110D4
:10241000C0681871206800F5D87000EB0110C06822
:1024200000F47F40000A5871206800F5D87000EB76
:102430000110C06800F47F00000C9871206800F55E
:10244000D87000EB0110C068000ED87131B9206857
:10245000C06840F020002668F06005E02068006950
:1024600040F020002668306100205BE7606A40F49D
:1024700080206062012055E72DE9F05F04460025C9
:10248000206846692068D0F8049020688768206832
:10249000D0F80CA02068D0F810B02068D0F81880D0
:1024A00006F00100002855D007F00100C0B101205E
:1024B0002168886007F0020018B1204600F0B1FAE8
:1024C0000EE007F0040010B145F4006508E007F0E5
:1024D000080010B145F4805502E0204600F0A0FA53
:1024E00007F48070C8B14FF480702168886007F4E9
:1024F000007018B1204600F096FA0EE007F48060F4
:1025000010B145F4005508E007F4006010B145F43F
:10251000804502E0204600F085FA07F48030C8B11B
:102520004FF480302168886007F4003018B12046ED
:1025300000F07BFA0EE007F4802010B145F400456E
:1025400008E007F4002010B145F4803502E0204691
:1025500000F06AFA06F0080038B10AF0100020B165
:1025600045F4007510202168C86006F0040040B1F1
:102570000AF0080028B108202168C860204600F051
:102580000DFA06F0020038B12068C06800F00300C0
:1025900010B1204600F003FA06F0400038B10BF00D
:1025A000100020B145F4806510202168086106F014
:1025B000200040B10BF0080028B108202168086114
:1025C000204600F0FBF906F0100038B120680069E1
:1025D00000F0030010B1204600F0F1F906F40030DD
:1025E00040B109F0100028B1102021684860204651
:1025F00000F0E6F906F4803040B109F0080028B197
:10260000082021684860204600F010FA06F40040D7
:1026100088B309F0040078B306F4807020B108F0A4
:10262000010008B145F0010506F4007020B108F082
:10263000020008B145F0020506F4806020B108F000
:10264000040008B145F0040506F40060A0B108F0EC
:10265000700088B108F07000402817D006DC102800
:102660000BD020280CD0302819D10CE0502810D0E5
:10267000602814D110E01DE019E045F008050FE0D6
:1026800045F010050CE045F0200509E045F0400557
:1026900006E045F0800503E045F4807500E000BFEA
:1026A00000BF2068806920F07000216888610420E4
:1026B000216848602DB1606A284360622046FFF7B8
:1026C0001DFEBDE8F09F70B504460CB9012070BD39
:1026D00094F8200010B9204600F0B0F82068006897
:1026E00040F001002168086000F010FD05460DE093
:1026F00000F00CFD401B0A2808D9606A40F4003045
:102700006062052084F820000120E0E7206840682E
:1027100000F001000028EBD02068006820F00200E3
:102720002168086000F0F2FC05460DE000F0EEFCC8
:10273000401B0A2808D9606A40F400306062052016
:1027400084F820000120C2E72068406800F0020001
:102750000028EBD1207E012806D12068006840F0D7
:1027600080002168086005E02068006820F0800093
:1027700021680860607E012806D12068006840F06A
:1027800040002168086005E02068006820F04000F3
:1027900021680860A07E012806D12068006840F00A
:1027A00020002168086005E02068006820F0200013
:1027B00021680860E07E012806D12068006820F0CA
:1027C00010002168086005E02068006840F01000F3
:1027D00021680860207F012806D12068006840F049
:1027E00008002168086005E02068006820F0080003
:1027F00021680860607F012806D12068006840F0E9
:1028000004002168086005E02068006820F00400EA
:1028100021680860D4E9020108432169084361691D
:1028200008436168491E08432168C861002060624E
:10283000012084F82000002049E7000010B586B090
:102840000446142101A8FDF738FE4E49206888424D
:1028500041D14D480068401C4B490860084600685B
:1028600001280FD100BF002000904848006840F0C8
:102870000070464908600846006800F0007000904B
:1028800000BF00BF00BF0020009040481038006823
:1028900040F008003D49103908600846006800F023
:1028A0000800009000BF00BF0320019002200290AA
:1028B00000200390032004900920059001A93448CA
:1028C00000F024FB00220521142001F05BF8142005
:1028D00001F048F854E02F492068884250D100BFE9
:1028E000002000902948006840F080602749086077
:1028F0000846006800F08060009000BF00BF2248DA
:102900000068401C204908600846006801280FD173
:1029100000BF002000901D48006840F000701B4977
:1029200008600846006800F00070009000BF00BF1B
:1029300000BF0020009015481038006840F00200E9
:102940001249103908600846006800F00200009043
:1029500000BF00BF60200190022002900020039081
:10296000032004900920059001A90B4800F0CEFA3D
:1029700000220521402001F005F8402000F0F2FF80
:1029800006B010BD00640040140000204038024032
:10299000000C02400068004000040240704710B57F
:1029A0008AB0044601AB03AA00212046FFF7A7FC2A
:1029B00001A903A8FEF766F90AB010BD7047704779
:1029C000704770B5044694F82000012822D10220F7
:1029D00084F820002068006820F001002168086069
:1029E00000F094FB05460DE000F090FB401B0A2828
:1029F00008D9606A40F400306062052084F8200045
:102A0000012070BD2068406800F001000028EBD173
:102A10006062F6E7606A40F4002060620120F0E73F
:102A2000704770477047704770477047704770B580
:102A30000446A56D00F06AFB064694F835000228AE
:102A400008D08020606500BF002084F8340000BFFB
:102A5000012070BD2068006820F016002168086021
:102A60002068406920F0800021684861206C08B926
:102A7000A06C28B12068006820F008002168086078
:102A80002068006820F001002168086010E000F074
:102A90003DFB801B05280BD920206065032084F8AE
:102AA000350000BF002084F8340000BF0320D0E7C9
:102AB0002068006800F001000028E8D194F85C105C
:102AC0003F208840A860012084F8350000BF002026
:102AD00084F8340000BF00BFBBE7014691F8350021
:102AE000022803D08020486501207047052081F826
:102AF00035000868006820F001000A6810600020B6
:102B0000F3E70000F8B50446002000908C48006808
:102B10004FF41651B0FBF1F7A56D2E6894F85C10D8
:102B200008208840304098B12068006800F0040018
:102B300070B12068006820F004002168086094F8F3
:102B40005C1008208840A860606D40F0010060655E
:102B500094F85C1001208840304068B120684069DA
:102B600000F0800040B194F85C1001208840A8601B
:102B7000606D40F00200606594F85C1004208840AD
:102B8000304068B12068006800F0020040B194F85D
:102B90005C1004208840A860606D40F0040060650F
:102BA00094F85C1010208840304078B320680068AA
:102BB00000F0080050B394F85C1010208840A86022
:102BC0002068006800F4802080B12068006800F46C
:102BD000002028B9206CC8B12046216C884715E038
:102BE000A06C98B12046A16C88470FE0206800686F
:102BF00000F4807028B92068006820F0080021687F
:102C00000860206C10B12046216C884794F85C1055
:102C1000202088403040002865D02068006800F0FF
:102C2000100000285FD094F85C1020208840A86035
:102C300094F83500052828D12068006820F0160097
:102C4000216808602068406920F0800021684861A0
:102C5000206C08B9A06C28B12068006820F008003A
:102C60002168086094F85C103F208840A86001202B
:102C700084F8350000BF002084F8340000BF206DC8
:102C800010B12046216D8847F8BD2068006800F427
:102C9000802080B12068006800F4002028B9606CB2
:102CA00010B12046616C88471DE0E06BD8B120462A
:102CB000E16B884717E02068006800F4807068B90D
:102CC0002068006820F0100021680860012084F866
:102CD000350000BF002084F8340000BFE06B10B165
:102CE0002046E16B8847606D38B3606D00F00100ED
:102CF000F0B1052084F835002068006820F001005C
:102D00002168086000BF0098401C0090B84200D9BC
:102D100005E02068006800F001000028F3D100BF42
:102D2000012084F8350000BF002084F8340000BF83
:102D3000E06C10B12046E16C884700BFA4E70000BA
:102D4000240000202DE9F0410446002500F0DEF9C2
:102D5000074614B90120BDE8F081606A00B100BFE8
:102D6000022084F8350000BF002084F8340000BF42
:102D70002068006820F00100216808600AE000F087
:102D8000C5F9C01B052805D920206065032084F8FB
:102D90003500E0E72068006800F001000028EED16F
:102DA0002068056821480540D4E901010843E1682D
:102DB00008432169084361690843A1690843E1693F
:102DC0000843216A08430543606A042803D1D4E913
:102DD0000B0108430543206805602068456925F01C
:102DE0000705606A0543606A04280DD1A06A05439F
:102DF000E06A48B12046FDF7DDFF28B1402060655C
:102E0000012084F83500A6E7206845612046FDF7DB
:102E1000B7FF064694F85C103F208840B060002061
:102E20006065012084F83500002094E73F8010F0B1
:102E30002DE9F04704460D4616461F464FF00008A0
:102E4000D4F8589000BF94F83400012802D1022031
:102E5000BDE8F087012084F8340000BF94F8350005
:102E6000012825D1022084F83500002060653B460A
:102E7000324629462046FDF7F2FF94F85C103F20C9
:102E80008840C9F808002068006840F016002168F2
:102E90000860206C28B12068006840F008002168B4
:102EA00008602068006840F001002168086006E0C2
:102EB00000BF002084F8340000BF4FF002084046F5
:102EC000C6E7000070B5044600F020F90646254626
:102ED000681C10B104480078054400BF00F016F9E2
:102EE000801BA842FAD370BD20000020704700006C
:102EF00010B5044604480068204020B10248046030
:102F00002046FFF7F3FF10BD143C0140F8B5024620
:102F10000B460025002400200021D6E0012606FAF9
:102F200001F51E6806EA0504AC4274D11E7906F06C
:102F30000306012E04D01E7906F00306022E13D1DB
:102F400090684F000326BE40B0434F00DE68BE408D
:102F500030439060506801268E40B0431E79C6F31E
:102F600000168E40304350601E7906F00306032E93
:102F700009D0D0684F000326BE40B0434F009E6882
:102F8000BE403043D0601E7906F00306022E13D1F6
:102F9000CF0802F1200656F827004E07F70E0F263D
:102FA000BE40B0434F07FF0E1E69BE403043CF08FE
:102FB00002F1200646F8270010684F000326BE40A5
:102FC000B0431E7906F003064F00BE403043106048
:102FD0005E6806F44036002E76D000BF00260096CC
:102FE0003C4E366846F480463A4F3E603E46366870
:102FF00006F48046009600BF00BF374E8F0856F893
:1030000027008E07370F0F26BE40B043334EB24223
:1030100002D1002624E057E0314EB24201D1012610
:103020001EE0304EB24201D1022619E02E4EB242CD
:1030300001D1032614E02D4EB24201D104260FE047
:103040002B4EB24201D105260AE02A4EB24201D1EE
:10305000062605E0284EB24201D1072600E00826E8
:103060008F073F0FBE4030431B4E8F0846F82700A6
:10307000224E3068A0435E6806F4801606B12043F5
:103080001E4E3060361D3068A0435E6806F40016A0
:1030900006B12043194E361D3060184E361F306879
:1030A000A0435E6806F4003606B12043134E361F77
:1030B0003060361F3068A0435E6806F4803606B183
:1030C00020430E4E083E3060491C1029FFF426AF05
:1030D000F8BD0000443802400838014000000240BA
:1030E0000004024000080240000C024000100240B0
:1030F0000014024000180240001C0240083C01403D
:103100000AB1816101E00B048361704701480068E6
:10311000704700001800002070B504460CB901206B
:1031200070BD94F83D0028B9002084F83C0020468A
:1031300000F006FB242084F83D002068006820F0A1
:103140000100216808602068006840F400402168A0
:1031500008602068006820F400402168086000F0E2
:103160004DFD05465C496068884206D85B4885424B
:1031700001D2012007E0002005E05948854201D234
:10318000012000E00020012800D1C9E75548B5FB27
:10319000F0F62068406820F03F0030432168486026
:1031A0004D496068884201D8701C07E04FF4967062
:1031B00070434FF47A71B0FBF1F0401C2168096A4A
:1031C00021F03F0108432168086243496068884252
:1031D00014D8681E61684900B0FBF1F0401CC0F3D0
:1031E0000B00042801D204203DE0681E61684900FC
:1031F000B0FBF1F0401CC0F30B0034E0A06838B91C
:10320000681E616801EB4101B0FBF1F0401C0AE06F
:10321000681E616801EBC10202EB0111B0FBF1F025
:10322000401C40F48040C0F30B0008B901201AE0B4
:10323000A06848B9681E616801EB4101B0FBF1F07C
:10324000401CC0F30B000CE0681E616801EBC1027A
:1032500002EB0111B0FBF1F0401CC0F30B0040F495
:10326000804040F400402168C9694CF6FF729143E8
:1032700008432168C861D4E9070108432168096847
:1032800021F0C001084321680860D4E90310084315
:103290002168896848F2FF329143084321688860B9
:1032A000D4E9050108432168C96821F0FF010843FA
:1032B0002168C8602068006840F00100216808604B
:1032C00000202064202084F83D000020206384F842
:1032D0003E0000BF24E70000A086010080841E009D
:1032E00000093D0040420F002DE9FC5F04460F46F7
:1032F00090469946DDE90CAB0E9EFFF707FF0546A9
:1033000094F83D00202870D119230122B0492046AD
:10331000009502F041FA10B10220BDE8FC9F00BF09
:1033200094F83C00012801D10220F6E7012084F83E
:103330003C0000BF2068006800F0010028B9206848
:10334000006840F00100216808602068006820F4EF
:10335000006021680860222084F83D00402084F845
:103360003E0000202064C4F824A0A4F82AB0608D98
:1033700020859848E0624B46424639462046CDE9D2
:10338000006502F0BBF808B10120C6E7208D88B9BE
:1033900000BF00200190206840690190206880698A
:1033A000019000BF00BF2068006840F400702168F1
:1033B000086040E0208D012818D12068006820F4C2
:1033C00080602168086000BF00200190206840698B
:1033D000019020688069019000BF00BF20680068EC
:1033E00040F400702168086025E0EFE0208D02289D
:1033F00016D12068006820F4806021680860206889
:10340000006840F400602168086000BF002001905F
:1034100020684069019020688069019000BF0AE03F
:1034200000BF0020019020684069019020688069F9
:10343000019000BF00BFBAE0208D03287ED8208D08
:10344000012815D12A463146204602F04AFA08B131
:10345000012062E720680069616A0870606A401CA8
:103460006062208D401E2085608D401E60859EE03C
:10347000208D02282AD13346002257492046009544
:1034800002F08AF908B1012047E72068006840F49B
:1034900000702168086020680069616A0870606ACD
:1034A000401C6062208D401E2085608D401E60851E
:1034B00020680069616A0870606A401C6062208D43
:1034C000401E2085608D401E608570E033460022DE
:1034D00041492046009502F05FF908B101201CE740
:1034E0002068006820F48060216808602068006916
:1034F000616A0870606A401C6062208D401E2085F1
:10350000608D401E60853346002233492046009579
:1035100002F042F908B10120FFE62068006840F49B
:1035200000702168086020680069616A0870606A3C
:10353000401C6062208D401E208500E010E0608D00
:10354000401E608520680069616A0870606A401CDE
:103550006062208D401E2085608D401E608526E0C3
:103560002A463146204602F0BCF908B10120D4E6D3
:1035700020680069616A0870606A401C6062208D82
:10358000401E2085608D401E608520684069C0F324
:10359000800060B120680069616A0870606A401C40
:1035A0006062208D401E2085608D401E6085208DCC
:1035B00000287FF441AF202084F83D00002084F8EB
:1035C0003E0000BF84F83C0000BFA6E60220A4E64F
:1035D000020010000000FFFF040001002DE9FC5F65
:1035E00004460F4690469946DDE90CAB0E9EFFF768
:1035F0008DFD054694F83D0020287DD11923012238
:103600004D492046009502F0C7F810B10220BDE8F0
:10361000FC9F00BF94F83C00012801D10220F6E78E
:10362000012084F83C0000BF2068006800F0010021
:1036300028B92068006840F001002168086020680F
:10364000006820F4006021680860212084F83D00B3
:10365000402084F83E0000202064C4F824A0A4F890
:103660002AB0608D20853548E0624B464246394697
:103670002046CDE9006501F0F1FF08B10120C6E761
:1036800031E02A463146204602F06BF950B1206CF9
:10369000042805D12068006840F4007021680860A3
:1036A0000120B4E7606A007821680861606A401C04
:1036B0006062208D401E2085608D401E60852068E0
:1036C0004069C0F3800070B1208D60B1606A0078FD
:1036D00021680861606A401C6062208D401E208560
:1036E000608D401E6085208D0028CAD12A46314653
:1036F000204602F023F800E01CE050B1206C0428C2
:1037000005D12068006840F400702168086001203D
:103710007DE72068006840F4007021680860202080
:1037200084F83D00002084F83E0000BF84F83C008F
:1037300000BF6CE702206AE7020010000000FFFFF4
:1037400010B586B00446142101A8FCF7B6FE2A493C
:10375000206888424DD100BF0020009027480068B3
:1037600040F00400254908600846006800F00400A5
:10377000009000BF00BF00BF002000900846006816
:1037800040F0010008600846006800F00100009069
:1037900000BF00BF48150190122002900120039045
:1037A000032004900420059001A91548FFF7AEFB03
:1037B0004FF48070019012200290012003900320AA
:1037C00004900420059001A90E48FFF79FFB00BF5D
:1037D0000020009009481030006840F400000749BC
:1037E000103108600846006800F40000009000BF37
:1037F00000BF06B010BD0000005C00403038024041
:1038000000080240000002400348006803490978AC
:10381000084401490860704718000020200000207B
:1038200010B50D48006840F400700B490860084668
:10383000006840F4806008600846006840F48070CA
:103840000860032000F0DCF80F2000F007F800F01B
:103850005FF8002010BD0000003C02402DE9F0415F
:1038600088B004460027B84600BF002001902448D5
:10387000006840F00100224908600846006800F036
:103880000100019000BF00BF02A903A800F08EF95B
:10389000069F1FB900F0B2F9054602E000F0AEF94C
:1038A00045001848B5FBF0F0A0F101084FF080404A
:1038B0001549086040F2E7311348C160C0F8048040
:1038C000002101618160816100F014FF064696B914
:1038D0000D4800F085FF06466EB91C2000F042F846
:1038E000102C07D2002221461C2000F04BF807487C
:1038F000046000E00126304608B0BDE8F081000019
:103900004038024040420F00D40B00201C00002031
:1039100008B500BF002000901148006840F48040C6
:103920000F4908600846006800F48040009000BF1E
:1039300000BF00BF00200090081F006840F08050CA
:10394000091F08600846006800F08050009000BF22
:1039500000BF00220F21901E00F014F808BD0000E7
:103960004438024001460846002809DB00F01F03E6
:1039700001229A4043099B0003F1E023C3F8002190
:1039800000BF70472DE9F05F80460D4616460027C0
:1039900004F02CF9074639462A46334601F0070061
:1039A000C0F1070ABAF1040F02D94FF0040A01E08E
:1039B000C0F1070AD14600F1040ABAF1070F02D29A
:1039C0004FF0000A01E0A0F1030AD4464FF0010ACB
:1039D0000AFA09FAAAF1010A0AEA020A0AFA0CFA30
:1039E0004FF0010B0BFA0CFBABF1010B0BEA030BD5
:1039F0004AEA0B042146404604F000F9BDE8F09F76
:103A000000BF00F00702064B19684FF6FF0319408C
:103A1000044B0B4343EA0221014B196000BF70477E
:103A20000CED00E00000FA0570B504460D460CB937
:103A3000012070BD5848006800F00700A84209D274
:103A400055490D700846006800F00700A84201D0F3
:103A50000120EEE7207800F0020002281DD1207836
:103A600000F00400042805D14C48006840F4E05000
:103A70004A490860207800F00800082805D1474826
:103A8000006840F46040454908604448006820F000
:103A9000F000A168084341490860207800F0010067
:103AA000A8B36068012807D13C4808380068C0F313
:103AB0004040B8B90120BCE76068022802D06068C5
:103AC000032807D1354808380068C0F3406048B97A
:103AD0000120AEE7314808380068C0F3400008B95B
:103AE0000120A6E72D48006820F003006168084324
:103AF0002A490860FFF70AFB064609E0FFF706FBC4
:103B0000801B41F28831884202D9032091E707E007
:103B10002248006800F00C006168B0EB810FEDD125
:103B20001D48006800F00700A84209D91A490D7025
:103B30000846006800F00700A84201D0012078E79D
:103B4000207800F00400042807D11448006820F40D
:103B5000E050E168084311490860207800F008004F
:103B6000082808D10D48006820F46040216940EA27
:103B7000C1000A49086000F061F808490968C1F30A
:103B80000311074A515CC8400649086006480068AE
:103B9000FFF764FE00204CE7003C0240083802407A
:103BA000C4AA0008240000201C0000200F2202608C
:103BB0000D4A126802F0030242600B4A126802F0DA
:103BC000F0028260084A126802F4E052C260064ABB
:103BD000126802F46042D2080261044A126802F0DC
:103BE00007020A607047000008380240003C0240AB
:103BF00001480068704700002400002000B5FFF76E
:103C0000F7FF04490968C1F38221034A515CC840A7
:103C100000BD000008380240D4AA000800B5FFF734
:103C2000E7FF04490968C1F34231034A515CC840C7
:103C300000BD000008380240D4AA00082DE9F04772
:103C4000002400250026A1462548006800F00C004D
:103C500020B1042805D008283AD105E0DFF8849087
:103C600039E0DFF8849036E01D48001F006800F05E
:103C70003F041B48001F006800F4800078B11A4818
:103C80001749091F0968C1F38811A0FB017001469B
:103C9000224600233846FCF767FB05460EE0114834
:103CA0000F49091F0968C1F38811A0FB0170014683
:103CB000224600233846FCF757FB05460848001FFC
:103CC0000068C0F30140401C4600B5FBF6F902E075
:103CD000DFF8109000BF00BF4846BDE8F087000045
:103CE000083802400024F400001BB700F8B5044671
:103CF0000CB90120F8BD207800F00100002874D034
:103D0000F948006800F00C0004280DD0F64800685F
:103D100000F00C00082813D1F348001F006800F4DD
:103D20008000B0F5800F0BD1EF4808380068C0F371
:103D30004040002859D06068002856D10120D9E7BA
:103D400000BF6068B0F5803F08D1E74808380068D8
:103D500040F48030E449083908601EE06068B0F53E
:103D6000A02F0DD1E0480838006840F48020DE49DB
:103D7000083908600846006840F4803008600CE0AC
:103D8000D9480838006820F48030D74908390860DD
:103D90000846006820F48020086000BF606890B189
:103DA000FFF7B4F9054606E0FFF7B0F9401B6428B9
:103DB00001D903209EE7CC4808380068C0F3404092
:103DC0000028F1D011E0FFF7A1F9054606E0FFF762
:103DD0009DF9401B642801D903208BE7C2480838AD
:103DE0000068C0F340400028F1D1207800F00200C4
:103DF00002285FD1BC48006800F00C0058B1BA48F6
:103E0000006800F00C0008281CD1B748001F0068AB
:103E100000F48000B0B9B44808380068C0F340002E
:103E200020B1E068012801D0012063E7AE480838DE
:103E3000006820F0F800216940EAC100AA49083969
:103E4000086037E0E06800B30120A8490860FFF788
:103E50005DF9054606E0FFF759F9401B022801D934
:103E6000032047E7A04808380068C0F34000002856
:103E7000F1D09D480838006820F0F800216940EA38
:103E8000C10099490839086014E00020974908608A
:103E9000FFF73CF9054606E0FFF738F9401B02281A
:103EA00001D9032026E7904808380068C0F3400095
:103EB0000028F1D1207800F0080008282CD1606992
:103EC000A8B101208A490860FFF720F9054606E0FD
:103ED000FFF71CF9401B022801D903200AE782489A
:103EE0006C300068C0F340000028F1D014E00020DE
:103EF0007F490860FFF70AF9054606E0FFF706F973
:103F0000401B022801D90320F4E677486C30006892
:103F1000C0F340000028F1D1207800F0040004280C
:103F200070D1002770483830006800F0805090B998
:103F300000BF002000906C483830006840F080508E
:103F40006949383108600846006800F080500090E8
:103F500000BF00BF01276748006800F48070B0B957
:103F60006448006840F4807062490860FFF7CEF84A
:103F7000054606E0FFF7CAF8401B022801D90320D6
:103F8000B8E65C48006800F480700028F2D000BFFA
:103F9000A068012808D154486830006840F001004A
:103FA0005149683108601DE0A06805280DD14E48D0
:103FB0006830006840F004004B49683108600846EA
:103FC000006840F0010008600CE047486830006875
:103FD00020F001004449683108600846006820F07C
:103FE0000400086000BFA068A8B1FFF78FF805467D
:103FF00009E0FFF78BF8401B41F28831884202D973
:10400000032077E626E0384868300068C0F34000B7
:104010000028EED013E0FFF779F8054608E0FFF737
:1040200075F8401B41F28831884201D9032061E6CE
:104030002D4868300068C0F340000028EFD1012F00
:1040400007D129483830006820F08050264938319F
:10405000086000BFA069002845D02348006800F030
:104060000C0008285DD0A069022845D100201F4916
:104070000866FFF74BF8054606E0FFF747F8401BD8
:10408000022801D9032035E6174808380068C0F334
:1040900040600028F1D1D4E907010843616A40EA91
:1040A00081110122A06AC2EB500041EA00412C209C
:1040B000005D41EA00600C49091F086001200B49BE
:1040C0000866FFF723F8054606E0FFF71FF8401BD8
:1040D000022801D903200DE6034808380068C0F320
:1040E00040600028F1D049E0083802400000474213
:1040F000800E474200700040002021490866FFF70B
:1041000005F8054606E0FFF701F8401B022801D933
:104110000320EFE51B480068C0F340600028F2D19F
:104120002CE0A069012800D1E4E51648001D0668CE
:10413000A069012820D006F48001E06981421BD1EA
:1041400006F03F01206A814216D147F6C070304028
:10415000616AB0EB811F0FD106F440310122A06AE1
:10416000C2EB5000B1EB004F06D106F070612C207D
:10417000005DB1EB006F01D00120BBE50020B9E587
:10418000000047420038024010B504460CB9012037
:1041900010BD606A38B96068B0F5827F00D105E073
:1041A0000021E16102E00021216161610021A16241
:1041B00094F8510028B9002084F85000204600F0FF
:1041C00047F8022084F851002068006820F0400081
:1041D00021680860A08800F48270218901F40441FC
:1041E0000843A18901F400610843217C01F0020128
:1041F0000843217D01F001010843218B01F4007186
:104200000843217F01F0380108432021095D01F0B6
:1042100080010843218D01F40051084321680860A2
:104220000421A06901EA104094F8241001F0100163
:104230000843216848602068C06920F40060216854
:10424000C86100206065012084F8510000209FE7CC
:1042500010B586B00446142101A8FCF72EF9484990
:10426000206888427ED100BF002000904548006849
:1042700040F48050434908600846006800F48050CC
:10428000009000BF00BF00BF002000903D481438E0
:10429000006840F002003B49143908600846006895
:1042A00000F00200009000BF00BF00BF002000909F
:1042B0000846006840F0010008600846006800F009
:1042C0000100009000BF00BF182001900220029062
:1042D00000200390032004900520059001A92A489E
:1042E000FEF714FE8020019002200290002003902F
:1042F000032004900520059001A92448FEF706FE3E
:104300002348244908604FF0C060486000212148DC
:104310008160C1604FF48061016100214161816170
:10432000C16101624162FEF70DFD08B1FCF766FE56
:1043300000BF1848E064846300BF15484830164940
:1043400008604FF0C0604860402113488160002140
:10435000C1604FF480610161002141618161C161EF
:10436000016200E00AE04162FEF7ECFC08B1FCF7F4
:1043700045FE00BF0848A064846300BF06B010BDBE
:104380000030014044380240000402400000024076
:104390001064024098080020F80800202DE9FF5F13
:1043A0000446884691461D460E9E0120029000203C
:1043B000019000BF94F85000012803D1022004B0FE
:1043C000BDE8F09F012084F8500000BFFEF79EFE7C
:1043D000074694F851B060680390AA46BBF1010FFC
:1043E0000BD00398B0F5827F04D1A06810B9BBF15F
:1043F000040F02D002200190DBE0B8F1000F03D0DF
:10440000B9F1000F00D015B901200190D1E094F866
:104410005100042802D0052084F851000020606576
:10442000C4F83890E587A587C4F83080E586A5866E
:10443000206460642068006800F04000402805D0D7
:104440002068006840F0400021680860E068B0F52E
:10445000006F4AD1606810B1BAF1010F09D1206B29
:1044600000882168C860206B801C2063E08E401E9D
:10447000E08633E02068806800F00200022810D156
:10448000E08E70B1029801280BD1206B0088216862
:10449000C860206B801C2063E08E401EE0860020F8
:1044A00002902068806800F0010068B1E08F58B188
:1044B0002068C068A16B0880A06B801CA063E08F9F
:1044C000401EE08701200290FEF720FEC01BB04294
:1044D00004D3701C10B1032001906AE0E08E002824
:1044E000C8D1E08F0028C5D14AE0606810B1BAF1A8
:1044F000010F09D1206B007821680873206B401CE4
:104500002063E08E401EE08634E02068806800F082
:104510000200022810D1E08E70B1029801280BD160
:10452000206B007821680873206B401C2063E08EAC
:10453000401EE086002002902068806800F00100A4
:1045400068B1E08F58B12068C068A16B0870A06B9B
:10455000401CA063E08F401EE08701200290FEF720
:10456000D5FDC01BB04201D3701C00B916B90320A1
:1045700001901EE0E08E0028C7D1E08F0028C4D152
:104580003A463146204602F001F920B1012001905F
:10459000202060650DE0A06850B900BF00200090A9
:1045A0002068C068009020688068009000BF00BF4D
:1045B00000BF012084F8510000BF002084F85000A3
:1045C00000BF0198FBE67047704710B50346002214
:1045D00000BF93F83C00012801D1022010BD01204A
:1045E00083F83C0000BF22F0FF00CC6840EA0402E0
:1045F00022F440708C6840EA040222F480604C6827
:1046000040EA040222F400600C6840EA040222F44A
:1046100080500C6940EA040222F400504C6940EAE0
:10462000040222F48040CC6940EA04021868426423
:1046300000BF002083F83C0000BF00BFCEE70000B1
:1046400030B502460B4600BF92F83C00012801D16C
:10465000022030BD012082F83C0000BF022082F819
:104660003D00106844681068816824F07004186880
:10467000044310684460184D1068A8421BD01068AD
:10468000B0F1804F17D0154D1068A84213D0144DCB
:104690001068A8420FD0134D1068A8420BD0124DDD
:1046A0001068A84207D0114D1068A84203D0104DE1
:1046B0001068A84205D121F08001586801431068B4
:1046C0008160012082F83D0000BF002082F83C009C
:1046D00000BF00BFBDE70000000001400004004033
:1046E00000080040000C0040000401400040014070
:1046F0000018004010B504460CB9012010BD94F814
:104700003D0028B9002084F83C00204600F026F83F
:10471000022084F83D00211D206802F065FC012084
:1047200084F8460000BF84F83E0001213F20015577
:10473000402001554120015500BF00BF012084F8F1
:10474000420043200155442001554520015500BF3A
:10475000012084F83D000020D0E7000038B5044671
:104760001C492068884218D100BF002000901A48D8
:10477000006840F00100184908600846006800F031
:104780000100009000BF00BF002205211920FFF7A3
:10479000F9F81920FFF7E6F81BE010492068884275
:1047A00017D100BF002000900B48006840F4003093
:1047B000094908600846006800F40030009000BF16
:1047C00000BF002205211920FFF7DCF81920FFF7B0
:1047D000C9F838BD0000014044380240004401409F
:1047E000014691F83D00012801D0012070470220C8
:1047F00081F83D000868C06840F001000B68D8608F
:104800001A4B086898421BD00868B0F1804F17D047
:10481000174B0868984213D0164B086898420FD07F
:10482000154B086898420BD0144B0868984207D083
:10483000134B0868984203D0124B086898420CD179
:104840000868806800F00702062A0CD00868006833
:1048500040F001000B68186005E00868006840F04F
:1048600001000B6818600020C0E700000000014054
:104870000004004000080040000C0040000401401B
:1048800000400140001800402DE9F04104460D466B
:10489000002700BF94F83C00012802D10220BDE8A7
:1048A000F081012084F83C0000BF022084F83D0024
:1048B0002068866826F0770626F47F4620688660A2
:1048C0002868502833D00CDC202850D004DC002885
:1048D0004BD0102851D149E0302849D040284CD144
:1048E00039E060282DD0702807D0B0F5805F03D064
:1048F000B0F5005F41D10DE041E0D5E902136A68EF
:10490000206802F0EEFB2068866846F07706206893
:10491000866034E0D5E902136A68206802F0E1FBA2
:104920002068806840F480402168886027E0EA6859
:104930006968206802F0C6FC5021206802F0DCFBA8
:104940001DE0EA686968206802F0CFFC60212068F9
:1049500002F0D2FB13E0EA686968206802F0B2FC5A
:104960004021206802F0C8FB09E000BF00BF00BF83
:104970002968206802F0C0FB01E0012700BF00BFEA
:10498000012084F83D0000BF002084F83C0000BFF7
:10499000384684E7704710B5044620680069C0F3C4
:1049A0004000D8B12068C068C0F34000B0B16FF0DB
:1049B000020021680861012020772068806900F0EA
:1049C000030018B12046FFF7E5FF05E0204600F0A0
:1049D00005F9204600F0B9F9002020772068006929
:1049E000C0F38000D8B12068C068C0F38000B0B1C7
:1049F0006FF0040021680861022020772068806938
:104A000000F4407018B12046FFF7C4FF05E02046CF
:104A100000F0E4F8204600F098F9002020772068A4
:104A20000069C0F3C000D8B12068C068C0F3C000FE
:104A3000B0B16FF008002168086104202077206879
:104A4000C06900F0030018B12046FFF7A3FF05E09E
:104A5000204600F0C3F8204600F077F900202077C8
:104A600020680069C0F30010D8B12068C068C0F3A6
:104A70000010B0B16FF010002168086108202077A5
:104A80002068C06900F4407018B12046FFF782FF2B
:104A900005E0204600F0A2F8204600F056F900207C
:104AA00020772068006900F0010058B12068C068D4
:104AB00000F0010030B16FF001002168086120466C
:104AC00000F0CAF920680069C0F3C01058B120682E
:104AD000C068C0F3C01030B16FF080002168086179
:104AE0002046FFF770FD20680069C0F3801058B1C0
:104AF0002068C068C0F3801030B16FF040002168BA
:104B00000861204600F0B1F920680069C0F3401048
:104B100058B12068C068C0F3401030B16FF0200079
:104B2000216808612046FFF74FFD10BD10B586B023
:104B30000446142101A8FBF7C0FC234920688842E1
:104B40001ED100BF002000902048006840F01000F7
:104B50001E4908600846006800F01000009000BF81
:104B600000BF4FF4205001900220029000200390DB
:104B700004900120059001A91548FEF7C7F921E02E
:104B80001449206888421DD100BF002000900F48C2
:104B9000006840F020000D4908600846006800F0F9
:104BA0002000009000BF00BF402001900220029032
:104BB00001200390002004900320059001A90648DD
:104BC000FEF7A4F906B010BD0000014030380240E5
:104BD00000100240004401400014024070472DE9DB
:104BE000F04104460D461646002700BF94F83C00ED
:104BF000012802D10220BDE8F081012084F83C00A8
:104C000000BF36B1042E1BD0082E31D00C2E5ED141
:104C100045E02946206802F079FA2068806940F072
:104C20000800216888612068806920F004002168FC
:104C3000886120688069296908432168886148E0A3
:104C40002946206802F09AFA2068806940F40060E2
:104C5000216888612068806920F48060216888610B
:104C600020688069296940EA01202168886130E074
:104C70002946206802F0C0FA2068C06940F00800A8
:104C80002168C8612068C06920F004002168C861FB
:104C90002068C069296908432168C86119E029466C
:104CA000206802F0E5FA2068C06940F400602168DD
:104CB000C8612068C06920F480602168C8612068EC
:104CC000C069296940EA01202168C86101E0012723
:104CD00000BF00BF00BF002084F83C0000BF384682
:104CE00089E710B504460CB9012010BD94F83D00C9
:104CF00028B9002084F83C00204600F025F8022066
:104D000084F83D00211D206802F06EF9012084F82E
:104D1000460000BF84F83E0001213F20015540209D
:104D200001554120015500BF00BF012084F8420019
:104D300043200155442001554520015500BF012065
:104D400084F83D000020D0E77047704770B50446F6
:104D50000D4615B994F83E000BE0042D02D13F201A
:104D6000005D06E0082D02D14020005D01E04120F9
:104D7000005D012801D0012070BD1DB9022084F81A
:104D80003E000EE0042D03D102213F20015508E032
:104D9000082D03D102214020015502E002214120CB
:104DA000015501222946206802F08AF9234920682A
:104DB000884203D022492068884201D1012000E0C6
:104DC000002028B12068406C40F40040216848640D
:104DD0001A49206888421BD02068B0F1804F17D054
:104DE00018492068884213D01749206888420FD09C
:104DF0001649206888420BD011492068884207D0A4
:104E000013492068884203D01249206888420CD197
:104E10002068806800F00706062E0CD02068006825
:104E200040F001002168086005E02068006840F05B
:104E300001002168086000209EE70000000001409A
:104E4000000401400004004000080040000C004045
:104E5000004001400018004010B504462068B0F141
:104E6000804F01D1FEF7D0FC10BD704770477047EE
:104E70002DE9F84F0446206805682068C668206858
:104E800047694FF00009CA4605F00F09B9F1000F54
:104E90000AD105F0200038B106F0200020B12046EC
:104EA00002F02AFBBDE8F88FB9F1000F7CD007F0C3
:104EB000010018B906F49070002875D005F00100C3
:104EC00030B106F4807018B1206C40F0010020640D
:104ED00005F0040030B107F0010018B1206C40F07B
:104EE0000200206405F0020030B107F0010018B1A3
:104EF000206C40F00400206405F0080048B106F082
:104F0000200010B907F0010018B1206C40F0080033
:104F10002064206C002846D005F0200028B106F05F
:104F2000200010B1204602F0E7FA20684069C0F383
:104F3000801A206C00F0080010B9BAF1000F2DD0D3
:104F4000204602F080FA2068406900F040004028C6
:104F500020D100BF00BF2168143151E8001F21F0AB
:104F600040002168143141E80002002AF3D100BF5B
:104F7000A06B50B17548A16B0865A06BFDF7ADFD46
:104F800088B1A06B016D88470DE02046FFF76FFFE9
:104F900009E009E02046FFF76AFF04E02046FFF73A
:104FA00066FF002020647DE7206B012876D105F0A4
:104FB0001000002872D006F010000028FAD000BFC0
:104FC00000200090206800680090206840680090F1
:104FD00000BF00BF2068406900F0400040285ED15B
:104FE000A06B006840681FFA80F8B8F1000F54D039
:104FF000A08D404551DDA4F82E80A06BC069B0F5AE
:10500000807F43D000BF00BF21680C3151E8001FF2
:1050100021F4807021680C3141E80002002AF3D1AC
:1050200000BF00BF00BF2168143151E8001F21F00C
:1050300001002168143141E80002002AF3D100BFC9
:1050400000BF00BF2168143151E8001F21F040006B
:105050002168143141E80002002AF3D100BF20206A
:1050600084F83E000020206300BF00BF21680C319F
:1050700051E8001F21F0100021680C3141E80002C6
:10508000002AF3D100BFA06BFDF7D1FCA08DE28D0B
:10509000801A81B22046FFF7E9FE03E740E0A08DC9
:1050A000E18D401A1FFA80F8E08DC0B3B8F1000F0F
:1050B00035D000BF00BF21680C3151E8001F21F43A
:1050C000907021680C3141E80002002AF3D100BF42
:1050D00000BF00BF2168143151E8001F21F001001A
:1050E0002168143141E80002002AF3D100BF2020DA
:1050F00084F83E000020206300BF00BF21680C310F
:1051000051E8001F21F0100021680C3141E8000235
:10511000002AF3D100BF41462046FFF7A7FEC1E6B3
:1051200005F0800030B106F0800018B1204602F092
:10513000DDFBB7E605F0400030B106F0400018B1E5
:10514000204602F0B6F9ADE600BFABE613730008E7
:1051500010B504460CB9012010BDA06900B100E0F3
:1051600000BF94F83D0028B9002084F83C00204698
:1051700000F028F8242084F83D002068C06820F45E
:1051800000502168C860204602F032FA20680069A9
:1051900020F49040216808612068406920F02A00CE
:1051A000216848612068C06840F400502168C860E8
:1051B00000202064202084F83D0084F83E00002078
:1051C000CAE7000010B586B00446142101A8FBF719
:1051D00074F99A492068884274D100BF0020009079
:1051E0009748006840F0100095490860084600683C
:1051F00000F01000009000BF00BF00BF0020009032
:105200008F481438006840F002008D491439086056
:105210000846006800F00200009000BF00BF00BF19
:10522000002000900846006840F001000860084631
:10523000006800F00100009000BF00BF80200190D6
:105240000220029000200390032004900720059084
:1052500001A97C48FDF75AFE4FF40070019002202E
:10526000029000200390032004900720059001A9DC
:105270007548FDF74BFE7548754908604FF00060B2
:105280004860002172488160C1604FF48061016113
:10529000002141618161C16101624162FDF752FDFE
:1052A00008B1FBF7ABFE00BF6948A063846300BF91
:1052B000002205212520FEF765FB2520FEF752FB85
:1052C000BAE0FFE76349206888425BD100BF002055
:1052D00000905B48001F006840F480205849091F77
:1052E00008600846006800F48020009000BF00BFFE
:1052F00000BF0020009052481438006840F00400BD
:105300004F49143908600846006800F00400009016
:1053100000BF00BF4FF440600190022002900020C7
:105320000390032004900720059001A94A48FDF747
:10533000EDFD4A484A4908604FF00060486000218E
:1053400047488160C1604FF4806101610021416183
:1053500081614FF48071C161002101624162FDF7FA
:10536000F1FC08B1FBF74AFE00BF3D48A06384632F
:1053700000BF002205212720FEF704FB2720FEF7AF
:10538000F1FA59E037492068884255D100BF002022
:1053900000902B48006840F020002949086008462A
:1053A000006800F02000009000BF00BF00BF002098
:1053B000009023481438006840F040002049143918
:1053C00008600846006800F04000009000BF00BF81
:1053D0004FF48440019002200290002003900320AB
:1053E00004900820059001A91F48FDF78FFD17487C
:1053F00018381E4908608005486000211B488160FC
:10540000C1604FF480610161002141618161C1612E
:1054100001624162FDF796FC08B1FBF7EFFD00BFAA
:105420001248A063846300BF002205214720FEF7D5
:10543000A9FA4720FEF796FA06B010BD0010014009
:105440004438024000040240000002404064024030
:10545000B40A0020004800400008024028600240D2
:10546000140B00200014014000180240740B0020AF
:1054700070B504460D46164694F83E00202816D115
:1054800005B10EB9012070BD00BF94F83C000128A1
:1054900001D10220F7E7012084F83C0000BF002082
:1054A000206332462946204602F0B8F9EBE7022095
:1054B000E9E770477047704700BFFEE7014608689C
:1054C0004069C0F38020B0B16FF480600A68506119
:1054D00000200863202081F83D00002081F83E0074
:1054E000086C40F00400086400BF002081F83C0014
:1054F00000BF012070470020FCE700002DE9F843C1
:1055000004460F4615469946DDE90886206800687E
:1055100040F48060216808602068006840F4807072
:1055200021680860434600224FF001112046009692
:1055300000F032F960B12068006800F48070B0F5C6
:10554000807F02D14FF4007020640320BDE8F8830F
:1055500007F0FE0021680861334642463E49204676
:1055600000F05DF908B10120F0E700BF00200090D5
:1055700020684069009020688069009000BF00BFEB
:1055800032464146204600F0ECF950B1206C042828
:1055900005D12068006840F400702168086001208F
:1055A000D4E7B9F1010F03D1E8B22168086117E02F
:1055B000C5F307202168086132464146204600F0C5
:1055C000D0F950B1206C042805D12068006840F45F
:1055D0000070216808600120B8E7E8B2216808611E
:1055E00032464146204600F0BCF950B1206C0428F8
:1055F00005D12068006840F400702168086001202F
:10560000A4E72068006840F4807021680860434681
:1056100000224FF001112046009600F0BDF858B16D
:105620002068006800F48070B0F5807F02D14FF4EC
:1056300000702064032089E7F8B240F0010021687F
:105640000861334642460449204600F0E8F808B1B4
:1056500001207BE7002079E7020001002DE9F843F3
:105660000446884615469946DDE9086720680068C3
:1056700040F4807021680860334600224FF0011129
:105680002046009700F088F860B12068006800F4B8
:105690008070B0F5807F02D14FF400702064032049
:1056A000BDE8F88308F0FE00216808613B463246F9
:1056B0002149204600F0B3F808B10120F0E700BF0F
:1056C0000020009020684069009020688069009068
:1056D00000BF00BF3A463146204600F042F950B1C3
:1056E000206C042805D12068006840F4007021680F
:1056F00008600120D4E7B9F1010F03D1E8B22168B5
:10570000086117E0C5F30720216808613A46314671
:10571000204600F026F950B1206C042805D12068FD
:10572000006840F40070216808600120B8E7E8B222
:10573000216808610020B3E70200010070B504464B
:105740000D46164620E02046FFF7B8FE08B10120BE
:1057500070BD681CC0B1FDF7D9FC801BA84200D801
:1057600095B900202063202084F83D00002084F8B3
:105770003E00206C40F02000206400BF002084F830
:105780003C0000BF0120E3E720684069C0F38000CF
:105790000028D8D00020DBE72DE9F04104460D4673
:1057A00017461E46DDF818801CE0701CD0B1FDF7CE
:1057B000ADFCA0EB0800B04200D89EB900202063E9
:1057C000202084F83D00002084F83E00206C40F04A
:1057D0002000206400BF002084F83C0000BF0120AE
:1057E000BDE8F081C5F3074001280AD1206840696F
:1057F000A9B20840A9B2884201D101200BE00020E3
:1058000009E020688069A9B20840A9B2884201D1A4
:10581000012000E00020B842C7D00020E0E72DE9D9
:10582000F04104460D4616461F463DE0206840699B
:10583000C0F38020E8B12068006840F4007021685F
:1058400008606FF480602168486100202063202098
:1058500084F83D00002084F83E00206C40F00400F5
:10586000206400BF002084F83C0000BF0120BDE898
:10587000F081701CC0B1FDF749FCC01BB04200D8DC
:1058800096B900202063202084F83D00002084F891
:105890003E00206C40F02000206400BF002084F80F
:1058A0003C0000BF0120E2E7C5F3074001280AD110
:1058B00020684069A9B20840A9B2884201D10120FC
:1058C0000BE0002009E020688069A9B20840A9B275
:1058D000884201D1012000E000200028A6D000204D
:1058E000C5E770B504460D46164632E020684069AB
:1058F000C0F30010A0B16FF01000216848610020D3
:105900002063202084F83D00002084F83E00206CB5
:10591000206400BF002084F83C0000BF012070BD5F
:10592000FDF7F4FB801BA84200D895B90020206346
:10593000202084F83D00002084F83E00206C40F0D8
:105940002000206400BF002084F83C0000BF01203C
:10595000E5E720684069C0F380100028C6D0002029
:10596000DDE770B504460D46164620E02046FFF7F9
:10597000A5FD08B1012070BD681CC0B1FDF7C6FBD4
:10598000801BA84200D895B900202063202084F80D
:105990003D00002084F83E00206C40F02000206490
:1059A00000BF002084F83C0000BF0120E3E720682E
:1059B0004069C0F3C0100028D8D00020DBE7000009
:1059C0009FED083B9FED092B9FED0A1B9FED0B0BF5
:1059D00000F088F800BF00F0DBF8012003F054FC71
:1059E000F9E70000BE73BEFEEFD0EF3F27BBBADF82
:1059F00078E9FCBFEF3A3C00B9D70FC08028B93F27
:105A0000EE3501C010B5002240210748FDF778FBB4
:105A10006420FDF757FA012240210348FDF770FB8F
:105A20006420FDF74FFA10BD001802401FB50DE0CD
:105A3000FFF7E8FF0A20012103AA0B46CDE9002168
:105A4000029000221D212648FDF74EFC9DF80C0017
:105A50001028EDD10820039000BF0A20012103AADD
:105A60000B46CDE9002102900B221C211C48FDF7BA
:105A7000B5FD0028F1D11220039000BF0A200121BA
:105A800003AA0B46CDE90021029041221C211448B3
:105A9000FDF7A4FD0028F1D1C020039000BF0A202B
:105AA000012103AA0B46CDE90021029042221C21CC
:105AB0000B48FDF793FD0028F1D10320039000BFB0
:105AC0000A20012103AA0B46CDE9002102900246DB
:105AD0001C210348FDF782FD0028F1D11FBD000005
